:020000040800F2
:1000000088550524AD020008013E0008213700088C
:10001000F93D000811040008B14F0008000000007D
:10002000000000000000000000000000D1440008B3
:10003000B104000800000000393E0008094500082E
:10004000C7020008C7020008C7020008C70200086C
:10005000C7020008C7020008C7020008C70200085C
:10006000C7020008C7020008C7020008C70200084C
:10007000C7020008C7020008C7020008C70200083C
:10008000C7020008C7020008C7020008C70200082C
:10009000C7020008C7020008C7020008C70200081C
:1000A000C7020008C7020008C7020008C70200080C
:1000B000C7020008C7020008C7020008C7020008FC
:1000C000C7020008C7020008C7020008C7020008EC
:1000D000C7020008A14F0008C7020008C7020008B5
:1000E000C7020008C702000800000000C70200089D
:1000F000C7020008C7020008C7020008C7020008BC
:10010000C7020008C7020008C7020008C7020008AB
:10011000C7020008C7020008C7020008C70200089B
:10012000C7020008C7020008C7020008C70200088B
:10013000C7020008C7020008C7020008C70200087B
:1001400000000000000000000000000000000000AF
:10015000C7020008C7020008C7020008C70200085B
:10016000C7020008C7020008C7020008C70200084B
:10017000C7020008C7020008C7020008C70200083B
:10018000C7020008C7020008C7020008C70200082B
:10019000C7020008C7020008C7020008C70200081B
:1001A000C7020008C7020008C7020008C70200080B
:1001B00081420008C7020008C7020008C702000801
:1001C000C7020008C7020008C7020008C7020008EB
:1001D000C7020008C7020008C7020008C7020008DB
:1001E000C7020008C7020008C7020008C7020008CB
:1001F000C7020008C7020008C7020008C7020008BB
:10020000C7020008C7020008C7020008C7020008AA
:10021000C7020008C7020008C7020008C70200089A
:10022000C7020008C7020008813B00080000000068
:10023000C7020008C702000800000000C70200084B
:10024000C7020008C7020008C7020008C70200086A
:10025000C7020008C7020008C7020008C70200085A
:10026000C7020008C7020008C7020008C70200084A
:10027000C7020008C7020008C7020008000000000B
:10028000C7020008C7020008C702000800000000FB
:1002900000000000C7020008DFF80CD000F07AF878
:1002A00000480047515000088855052406488047FB
:1002B00006480047FEE7FEE7FEE7FEE7FEE7FEE74B
:1002C000FEE7FEE7FEE7FEE7F945000899020008B1
:1002D0002DE9F05F0546002092469B46884606467B
:1002E000814640241BE0284641464746224600F00E
:1002F00041F853465A46C01A914110D31146184648
:10030000224600F028F82D1A67EB01084F462246D6
:100310000120002100F01FF817EB00094E41201EBC
:10032000A4F10104DFDC484631462A464346BDE8D5
:10033000F09FD2B201E000F8012B491EFBD27047BA
:100340000022F6E710B513460A4604461946FFF7A1
:10035000F0FF204610BD202A04DB203A00FA02F10B
:10036000002070479140C2F1200320FA03F31943A3
:1003700090407047202A04DB203A21FA02F0002145
:10038000704721FA02F3D040C2F1200291400843A5
:1003900019467047064C074D06E0E06840F001033F
:1003A00094E8070098471034AC42F6D3FFF778FF83
:1003B000D8DC0108F8DC010870B58C1810F8015B76
:1003C00015F0070301D110F8013B2A1106D110F8EE
:1003D000012B03E010F8016B01F8016B5B1EF9D1F2
:1003E0002B0705D40023521E0DD401F8013BFAE778
:1003F00010F8013BCB1A921C03E013F8015B01F8E3
:10040000015B521EF9D5A142D8D3002070BD000077
:10041000FEE700000000000070B54EF61450CEF26A
:1004200000000168890312D4BFF34F8FBFF36F8FB1
:100430000021C0F83C12BFF34F8FBFF36F8F0168EC
:1004400041F400310160BFF34F8FBFF36F8F01683C
:10045000C90348BF70BD00210167BFF34F8FC26E53
:1004600043F6E07CC2F34E31C2F3C90202F1010E41
:10047000930700BF0CEA41121C46754644EA020687
:10048000013D04F14044C0F84C62F7D10029A1F1CC
:100490000101EFD1BFF34F8F016841F4803101605A
:1004A000BFF34F8FBFF36F8F70BD000000000000DF
:1004B0007047000000000000EFF3108072B600BF2C
:1004C000FEE70000000000002DE9F041044600F0C6
:1004D0003BFD04B3054694F8350002281ED140F2D6
:1004E000B7082068C4F20208012140451ADD40F235
:1004F0005742C4F20202904225DC40F22742C4F285
:10050000020290423ADCB822C4F20202904252D077
:1005100040F210424AE00120BDE8F0818020606591
:1005200001209FE25722C4F2020290421ADD872284
:10053000C4F2020290422ADC5822C4F20202904223
:1005400039D0702232E040F28742C4F20202904277
:1005500024DC40F25842C4F2020290422BD040F216
:10056000704223E01022C4F20202904223D02822DB
:10057000C4F2020290421ED0402217E040F228420C
:10058000C4F20202904216D040F240420EE08822AD
:10059000C4F2020290420ED0A02207E040F288424C
:1005A000C4F20202904206D040F2A042C4F202021B
:1005B000904240F05C820029016808D021F01E01C1
:1005C00001602668716921F08001716103E021F00A
:1005D0000E010160266840F26F47C4F20207B8427C
:1005E00019DC9F21C4F20201884231DC5721C4F298
:1005F0000201884256DC1021C4F20201884200F058
:1006000091802821C4F20201884200F08B804021B1
:10061000C4F2020184E045F22F41C5F6020188428E
:100620002BDC40F2B741C4F20201884248DC40F2C0
:100630007041C4F20201884274D040F28841C4F291
:10064000020188426ED040F2A041C4F2020167E08C
:1006500040F22741C4F20201884240DCA021C4F2EA
:10066000020188425ED0B821C4F20201884259D00A
:1006700040F21041C4F2020152E045F26B41C5F66E
:10068000020188423CDC45F23041C5F60201884255
:1006900048D045F24441C5F60201884242D045F2B5
:1006A00058413BE05821C4F2020188423AD07021FF
:1006B000C4F20201884235D08821C4F202012FE041
:1006C00040F2B841C4F2020188422BD045F2084101
:1006D000C5F60201884225D045F21C411EE040F2D9
:1006E0002841C4F2020188421CD040F24041C4F2C9
:1006F0000201884216D040F25841C4F202010FE0D4
:1007000045F26C41C5F6020188420BD045F2944196
:10071000C5F60201884205D045F28041C5F60201C6
:1007200088426DD1216E40F20F42C4F202020B6882
:10073000904223F480720A6010DC6F21C4F202013F
:1007400088421CDC3F21C4F20201884232DC1021C5
:10075000C4F20201884252D028214AE0B8421ADC91
:1007600040F23F41C4F2020188422ADC40F21041CB
:10077000C4F20201884242D040F2284139E09F2170
:10078000C4F20201884225DC7021C4F202018842D1
:1007900035D088212DE040F29F41C4F20201884209
:1007A0001FDC40F27041C4F20201884227D040F2BF
:1007B00088411EE04021C4F2020188421FD0582126
:1007C00017E040F24041C4F20201884217D040F2E3
:1007D00058410EE0A021C4F2020188420FD0B82196
:1007E00007E040F2B841C4F20201884207D040F26B
:1007F000A041C4F20201884208BF206800E02068DE
:10080000016821F0010101603068C0070BD000F0E1
:100810009BFB401B0628F7D320206065032084F84B
:10082000350001201EE120680121404513DD40F222
:100830005742C4F2020290421EDC40F22742C4F248
:100840000202904233DCB822C4F2020290424BD042
:1008500040F2104243E05722C4F2020290421ADDF5
:100860008722C4F2020290422ADC5822C4F2020219
:10087000904239D0702232E040F28742C4F2020244
:10088000904224DC40F25842C4F2020290422BD043
:1008900040F2704223E01022C4F20202904223D0C0
:1008A0002822C4F2020290421ED0402217E040F2F9
:1008B0002842C4F20202904216D040F240420EE0BA
:1008C0008822C4F2020290420ED0A02207E040F239
:1008D0008842C4F20202904206D040F2A042C4F222
:1008E0000202904240F0CC800029A16D25D0E26D3B
:1008F0003F2302F01F0203FA02F28A60B84225DDAC
:1009000045F22F41C5F60201884235DC40F2B7417D
:10091000C4F20201884257DC40F27041C4F2020185
:10092000884200F08F8040F28841C4F20201884280
:1009300000F0888040F2A04180E0E26D012302F0E7
:100940001F0203FA02F24A60B842D9DC9F21C4F2C6
:100950000201884225DC5721C4F20201884242DCB0
:100960001021C4F2020188426CD02821C4F2020195
:10097000884267D0402161E045F26B41C5F6020133
:1009800088423CDC45F23041C5F60201884259D02C
:1009900045F24441C5F60201884253D045F2584120
:1009A0003BE040F22741C4F20201884238DCA0213A
:1009B000C4F20201884245D0B821C4F20201884243
:1009C00040D040F2104139E040F2B841C4F2020197
:1009D000884237D045F20841C5F60201884231D03D
:1009E00045F21C4119E05821C4F20201884229D085
:1009F0007021C4F20201884224D088211EE045F211
:100A00006C41C5F6020188421CD045F29441C5F6FE
:100A10000201884216D045F28041C5F602010FE07E
:100A200040F22841C4F2020188420BD040F240411A
:100A3000C4F20201884205D040F25841C4F20201DA
:100A400088420BD1616EA26EE06E4A6030B10168DF
:100A500021F480710160D4E91C014160012084F817
:100A600035000020002184F83410BDE8F08140F208
:100A7000B841C4F20201411AB1FA81F149099AE57B
:100A800040F2B841C4F20201411AB1FA81F14909B8
:100A90002AE700000000000080B5D8B190F83510BA
:100AA000022919D140F20F420168C4F202029142B8
:100AB00016DC6F23C4F20203994226DC3F23C4F202
:100AC000020399423CDC1023C4F2020399425AD03B
:100AD000282354E0012080BD80214165012080BD94
:100AE00040F26F43C4F2020399421ADC40F23F43E2
:100AF000C4F2020399422ADC40F21043C4F202031A
:100B0000994240D040F2284339E09F23C4F20203C7
:100B1000994225DC7023C4F20203994233D0882322
:100B20002DE040F29F43C4F2020399421FDC40F2E1
:100B30007043C4F20203994225D040F288431EE07C
:100B40004023C4F2020399421DD0582317E040F21B
:100B50004043C4F20203994215D040F258430EE0DC
:100B6000A023C4F2020399420DD0B82307E040F25B
:100B7000B843C4F20203994205D040F2A043C4F244
:100B80000203994270D191424FF0040280F835205F
:100B900010DC6F22C4F20202914220DC3F22C4F238
:100BA0000202914236DC1022C4F20202914254D079
:100BB00028224EE040F26F42C4F2020291421ADC57
:100BC00040F23F42C4F2020291422ADC40F210425B
:100BD000C4F20202914240D040F2284239E09F2202
:100BE000C4F20202914225DC7022C4F20202914258
:100BF00033D088222DE040F29F42C4F2020291429B
:100C00001FDC40F27042C4F20202914225D040F251
:100C100088421EE04022C4F2020291421DD05822B6
:100C200017E040F24042C4F20202914215D040F275
:100C300058420EE0A022C4F2020291420DD0B82226
:100C400007E040F2B842C4F20202914205D040F2FD
:100C5000A042C4F20202914224D10068016821F04E
:100C600001010160002080BD0268136823F00E03BB
:100C7000136045F25742C5F6020291420A6822F01B
:100C800001020A6014DC45F22F42C5F602029142CD
:100C90001DDC45F20842C5F6020291422CD045F215
:100CA0001C4225E0086820F001000860002080BD9B
:100CB00045F27F42C5F60202914211DC45F25842EC
:100CC000C5F60202914217D045F26C4210E045F29F
:100CD0003042C5F6020291420ED045F2444207E08E
:100CE00045F29442C5F60202914205D045F2804297
:100CF000C5F6020291421AD1D0E9181CD0E916E3D8
:100D00000A6822F480720A6003F01F01012202FACD
:100D100001F1CEF80410816ECCF80410C16E31B12F
:100D20000A6822F480720A60D0E91C124A6001212C
:100D300080F83510026D002180F834100AB1904718
:100D40000021084680BD0000B0B5044600F0FCF864
:100D500044F29C310546C2F20541621C097818BF75
:100D60000C4400BF00F0F0F8401BA042FAD3B0BD25
:100D700040F22040C5F60000016841F00101016029
:100D800070470000000000002DE9F04F83B00C68B0
:100D9000002C00F0C68000F1264242F2004702F12A
:100DA000FF72C5F602074FEAB22201920A22B84248
:100DB00008BF0922002500274FF0010A009209E030
:100DC0000C68043734FA0AF20AF1010A05F1020547
:100DD00000F0A780AAF10109012202FA09FE14EA33
:100DE0000E08EDD0D1F804B00BF00304A4F1010C0F
:100DF000BCF1010F11D803228668AA40CB6826EA0D
:100E00000202AB401A4382604268CBF3001322EA2D
:100E10000E0203FA09F31A434260032C1ED0032387
:100E2000C268AB40022C22EA03028B6803FA05F386
:100E300042EA0302C26011D16FF0030207F01C0600
:100E400002EA59020F23024403FA06F4D2F820C042
:100E50000B692CEA0404B3402343136203230268A2
:100E6000AB404E689A4306F00303AB4016F4403F94
:100E700042EA03020260A3D044F2F44340F2084E77
:100E8000C5F60203C5F6000E1A6842F002021A60A7
:100E90001A6807F00C0302F002020292029A29F08B
:100EA0000302019C009E092C38BF26460F2452F8ED
:100EB0000EC09C402CEA040406FA03F34FF0B04C39
:100EC000234342F80E30DCF800204B6842EA080663
:100ED000DC0258BF22EA08069C02CCF8006040F20F
:100EE000040CC5F6000CDCF8002042EA080658BFE6
:100EF00022EA08069C03CCF80060DCF8802042EA75
:100F0000080658BF22EA0806DB03CCF88060DCF84C
:100F10007C2042EA080658BF22EA0806CCF87C602A
:100F20004EE703B0BDE8F08F002A08BF09048161D5
:100F3000704700000000000041F20000C5F60040CC
:100F40000068000C7047000044F28050C2F2054077
:100F5000006870470000000044F29C3044F2805169
:100F6000C2F20540C2F2054100780A6810440860E8
:100F7000704700000000000080B5032000F064FA14
:100F800001F04AFD44F2184145F22043C5F6020142
:100F9000C0F600030A68C2F30322096801F00F01DA
:100FA0009A5C595C02F01F02D04044F29832C2F2BF
:100FB000054201F01F0120FA01F1116044F2943161
:100FC000C2F205410860002000F00AF800281CBFAA
:100FD000012080BD00F014FA002080BD0000000058
:100FE000B0B544F29C31C2F20541097801B3044620
:100FF00044F29430C2F205404FF47A72B2FBF1F140
:101000000068B0FBF1F002F027F80F2C4FF001055B
:101010000CD858B94FF0FF3000210022002500F015
:1010200003FA44F2A030C2F2054004602846B0BD85
:101030000120B0BD0000000068B190F83D10022909
:101040000BD1042180F83D100068C16821F0010136
:10105000C160002070470120704780218166012017
:101060007047000000000000D8B1026801461F234D
:10107000D06820F00100D0600020D0601061506185
:101080009061D0611062506290621063506353604F
:10109000C1E917004866886681F83D0081F83C0088
:1010A000704701207047000070B582B004460020F0
:1010B000019044F294302168C2F2054001F5F862D3
:1010C0004FF0A4430168C2F384101A6822FA00F0BA
:1010D000C0076CD0206848F2B512C1F64E320368E2
:1010E000A1FB0216D90720D0C16889071DD5C168A8
:1010F00021F00201C16081680A064FF0020258BF68
:101100000122A36E8D0542EA0302A2667ED4CA05BF
:1011100000F183804A0500F18780090503D5A16E9F
:1011200041F02001A166012141600168C90644BF68
:10113000C1685FEA81613CD420680168090744BF47
:10114000C1685FEAC1613CD420680168490744BFB7
:10115000C1685FEA01713CD420680168890744BF17
:10116000C1685FEA41713CD4A06E00B3042084F8EA
:101170003D002068B10AC26822F00102C26000BFCF
:10118000019A013201928A4202D8C268D207F7D18D
:10119000002184F83C10C068C0074FF0030008BF6E
:1011A000012084F83D00616D09B12046884702B0F6
:1011B00070BD10214160A16C0029BDD02046884738
:1011C000BAE708214160E16C0029BDD0204688477C
:1011D000BAE704214160216D0029BDD0204688472F
:1011E000BAE7C16821F03E01C16094F83D100429BE
:1011F00022D1002084F83C00012084F83D00A16D3C
:101200000029D4D02046884702B070BDA26E42F0BB
:101210000402A266CA057FF57DAFA26E42F0080205
:10122000A2664A057FF579AFA26E42F01002A2666F
:1012300009053FF574AF76E702214160002084F88C
:101240003C00012084F83D00616C00293FF48CAF24
:101250002046884788E70000B0B50446FFF774FED3
:10126000CCB10546002084F83C00022084F83D0003
:101270002068C16821F00101C16000BF2068C0681A
:10128000C0070AD0FFF760FE401B0528F6D90120F1
:10129000032240210AE00120B0BD204602F07CFC80
:1012A000002101220020C4E917116166A16684F8BB
:1012B0003D20B0BD0000000010B582B0002846D02F
:1012C000044690F83C00012847D0012084F83C00F7
:1012D00094F83D0001283DD1022084F83D00002013
:1012E000A066D4F800E0DDF810C0DEF80C0020F0B5
:1012F0000100CEF80C002046CDF800C002F09CFCA6
:101300002068E16C0029C26842F00601C16003D088
:10131000C16841F01001C160216D19B1C16841F08F
:101320000801C160A16C19B1C16841F02001C16020
:10133000C16841F00101C1606168B1F1804F03D122
:10134000C16841F48031C160002002B010BD0120AD
:1013500002B010BD002084F83C00022002B010BD95
:10136000B0B502784EF69C5CCEF2000C43784CF897
:10137000043CF2B14368CCF80030037BC17A90F8AA
:101380000AE0457B447A42EA0372837B42EA0161C8
:10139000C27B41EACE41007A41EA854141EA4341BC
:1013A00041EA024141EA042141EA4000CCF804004C
:1013B000B0BD0020CCF80000CCF80400B0BD0000A7
:1013C0004EF62450CEF20000BFF35F8F016821F487
:1013D00080310160002101677047000000000000BB
:1013E0004EF6245140F00100CEF200010867086873
:1013F00040F480300860BFF34F8FBFF36F8F7047AA
:1014000081B044F2F440C5F60200016841F00201E7
:101410000160006800F002000090009801B0704781
:1014200080B503F0C9FD80BD70B514460D46064673
:1014300003F0D2FD2946224602F0E6FC0146304682
:1014400003F0D2FD70BD000080B503F0E1FD80BD6A
:10145000B0B544F60C05C5F60205296849072968A8
:1014600005D401F00701081A18BF0120B0BD21F012
:10147000070108432860FFF767FD044655F8080C8C
:10148000800407D4FFF760FD001BB0F57A7FF5D923
:101490000120B0BD0020B0BD70470000000000007A
:1014A00010B5044690F84100800713D5002084F859
:1014B0004000082084F841002068016821F4F811F8
:1014C00001600168490707D4816889061AD40120A0
:1014D00084F84100002010BD016821F00401016082
:1014E000E06B43F6B971C0F600018165FFF7A4FD1A
:1014F0000028EFD0012084F841002046FFF7CCFF00
:10150000002010BD0221C160016841F4003101607A
:10151000016841F002010160002010BD00000000E0
:1015200070470000000000002DE9F04182B09046B5
:101530000E460446FFF708FD94F84010012901D13A
:10154000022535E00746012084F84000022594F882
:101550004100012829D1002060642021002220467A
:101560003B4684F84150CDF8008002F051FE05461C
:10157000D8B900222046314602F062FC706A18B1E8
:10158000012084F8410010E00221012220463B4660
:10159000CDF8008002264FF0010802F039FE054622
:1015A00018B92068C66084F84180002084F84000A3
:1015B000284602B0BDE8F08170470000000000003E
:1015C000704700000000000010B504460068826803
:1015D000510701681AD511F4802317D094F84110EF
:1015E000122936D1216800BF8A68520760D5E26AA5
:1015F000002A59D0616A097880F820102168626A4F
:10160000E36A013262625A1EE262EDE7930736D561
:1016100011F4003333D00221C160016821F4E021CC
:10162000016094F84110122946D10168490709D593
:10163000016821F004010160E06B0068C16821F0DD
:101640000101C160012084F84100204600F024FA25
:1016500010BD94F8411022292AD121688A685207C6
:1016600026D5A26B02B390F82010226B117021686E
:10167000226BA36B013222635A1EA263EEE71307AB
:1016800023D511F4002320D00821C160016849024C
:1016900006D5016821F410210160012084F8410081
:1016A000204600F0F5F810BD086820F4802008609E
:1016B0002046FFF785FF10BD94F84110222915D16F
:1016C000016849072DD4216852E0D30718BF11F4EF
:1016D000803316D1D20608D511F4801108BF10BD91
:1016E0001021C160204600F0D7F810BD94F84110D9
:1016F000022921D1012084F841002046FFF710FF84
:1017000010BD0121C160026822F470220260626C87
:1017100042F0020262640268520737D484F8411032
:1017200049E0016821F004010160E06B0068C168D4
:1017300021F00101C16022E094F841100829D4D1C0
:10174000416921F040614161012084F84100606CF1
:1017500088BB2046FFF7A0FE10BD90F82010226B3A
:1017600011702168226BA36B013222635A1EA2639F
:10177000896811F47C5F1CBFA16B0029EDD10120A9
:1017800084F84100204600F07BF810BD016821F08C
:1017900004010160E06B43F6B971C0F60001816598
:1017A000FFF74AFC0028A0D0606C40F004006064A1
:1017B000012084F841002046FFF7FEFE10BD000026
:1017C0002DE9F04182B00446FFF7BEFB24B3054685
:1017D00094F8410038B9204600F04EF841F28831C3
:1017E000204600F051F820686FF0FF06A1684FF026
:1017F0000008A36C026822F4F85206EB01211143A1
:10180000016020210022009320462B4602F000FDBB
:1018100030B102B0BDE8F081012002B0BDE8F08136
:10182000D4E900124FF62F77D4E903350E68C0F2E1
:10183000FF0737403B43E76943EA0262236A3A43C2
:101840001A430A604FF6FE034A68CFF6E0731A4067
:1018500063691A43A36942EA05421A434A600A6867
:1018600042F001020A60C4F84480012184F841106A
:1018700002B0BDE8F08100007047000000000000E9
:101880007047000000000000816470470000000005
:1018900070470000000000007047000000000000DA
:1018A0002DE9F04182B090460F460446FFF74CFB0D
:1018B000256894F84010012903D1022002B0BDE848
:1018C000F0810646012084F8400094F84100012888
:1018D0002CD14FF00000606457B3122084F841000F
:1018E00028690130E06228690130A0626762686996
:1018F00020F040606861E06A00B300BF042101226B
:1019000020463346CDF8008002F082FC60B9616A5F
:10191000097885F82010616AE26A01316162511E1E
:10192000E162E16A0029E9D1B0B909E0022016E0DC
:10193000606C40F008006064012010E0002058B99D
:101940000221012220463346CDF80080022502F014
:101950005FFC08B92168CD60012184F841100021A5
:1019600084F8401002B0BDE8F081000000000000E3
:1019700070B582B004460268106994F84030012BBB
:1019800001D1022582E0012384F8403094F84130EF
:10199000012B37D12346002543F8445FB9B301300A
:1019A000E062122084F841000320D060E06AA06267
:1019B000616244F219065069C0F6000620F04060EA
:1019C0005061E06B40F60C4E466443F6F176D0F879
:1019D00000C0C0F600064665C6698565202E5CF825
:1019E000105F25EA0E05CCF8005018D0102E1FD03D
:1019F0003EBBDCF8003040F20336B343002503F170
:101A0000020E23E00225002084F840003EE0606CD6
:101A100040F00800606484F84050012536E0DCF8AE
:101A2000003040F20336B343002503F2022E0DE0EE
:101A3000DCF8003040F20336B343002503F5817E25
:101A400004E01E68012546F0040E9C46CCF800E038
:101A50002032A36A01260096FFF72EFC50B1606C7D
:101A6000012540F00400606484F84160002084F89F
:101A700040000BE0002084F840002068016841F439
:101A800080310160016841F004010160284602B024
:101A900070BD000000000000704700000000000062
:101AA00080B500F069FF44F2204145F22042C5F6BE
:101AB0000201C0F600020968C1F30211515C01F095
:101AC0001F01C84080BD000080B544F2384EC5F605
:101AD000020E5EF8103C5EF8102CC2F3053C5EF876
:101AE0000C2CBCF1000FC2F30012DEF80410C1F39D
:101AF000CC0102FB01F100EE101AB8EE400A0BD047
:101B000003F00303022B0CD073B95EF8381C89066E
:101B10000DD49FED351A18E00021C0E90011816055
:101B200080BD9FED301A10E09FED2D1A0DE05EF89C
:101B3000381C49F20002C0F2D032C1F3C10122FACE
:101B400001F101EE101AB8EE411A02EE10CA9FED33
:101B5000274AB8EE422ADEF800106FF35F2103EE49
:101B6000101A81EE021AB8EE433ADEF8001000EEC9
:101B7000043AB7EE000AC1F3462133EE002A03EE21
:101B8000101AB8EE433A21EE021A33EE002A81EE23
:101B9000022ABCEEC22A80ED002ADEF80010C1F352
:101BA000064102EE101AB8EE422A32EE002A81EE09
:101BB000022ABCEEC22A80ED012ADEF80010C1F331
:101BC000066102EE101AB8EE422A32EE000A81EEE9
:101BD000000ABCEEC00A10EE101A816080BD00BF82
:101BE0000024744A20BCBE4B0024744C0000003911
:101BF00080B544F2404EC5F6020E5EF8183C5EF821
:101C0000182CC2F3055C5EF8142CBCF1000FC2F373
:101C10000022DEF80410C1F3CC0102FB01F100EE5A
:101C2000101AB8EE400A0BD003F00303022B0CD0BD
:101C300073B95EF8401C89060DD49FED351A18E083
:101C40000021C0E90011816080BD9FED301A10E0D5
:101C50009FED2D1A0DE05EF8401C49F20002C0F223
:101C6000D032C1F3C10122FA01F101EE101AB8EE2F
:101C7000411A02EE10CA9FED274AB8EE422ADEF85A
:101C800000106FF35F2103EE101A81EE021AB8EE16
:101C9000433ADEF8001000EE043AB7EE000AC1F352
:101CA000462133EE002A03EE101AB8EE433A21EE35
:101CB000021A33EE002A81EE022ABCEEC22A80ED1F
:101CC000002ADEF80010C1F3064102EE101AB8EE49
:101CD000422A32EE002A81EE022ABCEEC22A80EDB0
:101CE000012ADEF80010C1F3066102EE101AB8EE08
:101CF000422A32EE000A81EE000ABCEEC00A10EE63
:101D0000101A816080BD00BF0024744A20BCBE4B05
:101D10000024744C000000392DE9F04381B00446E2
:101D2000C07844F22C490007C5F6020901D4002509
:101D30002EE0A06E4FEA305003280DD80025DFE8D2
:101D400000F0020E1714D9F80000002540F400300E
:101D5000C9F8000055B913E001253DB910E004F1C0
:101D60000800022102F094FA05464DB1A84611E0A0
:101D700004F12800022102F01BFB0546002DF5D1DD
:101D8000D9F82400A16E20F440100843C9F82400BB
:101D90004FF000086078C00730D0A06D042807D845
:101DA000DFE800F00A131C030300FDB1A84625E09C
:101DB0000125002DFAD119E0D9F8000040F40030D7
:101DC000C9F80000002DF1D110E004F10800002155
:101DD00002F05EFA0546002DE8D107E004F1280084
:101DE000002102F0E5FA0546002DDFD1D9F82400E4
:101DF000A16D20F007000843C9F82400607880072F
:101E000032D5E06D4FEAB010042807D8DFE800F0C3
:101E10000A131C030300FDB1A84625E00125002D8F
:101E2000FAD119E0D9F8000040F40030C9F80000F8
:101E3000002DF1D110E004F10800002102F028FA91
:101E40000546002DE8D107E004F12800002102F04A
:101E5000AFFA0546002DDFD1D9F82400E16D20F45A
:101E6000E0700843C9F824006078400734D5D4F8FE
:101E7000A8004FEA7050042807D8DFE800F00A13E2
:101E80001C030300FDB1A84626E00125002DFAD170
:101E900019E0D9F8000040F40030C9F80000002D26
:101EA000F1D110E004F10800002102F0F1F905463B
:101EB000002DE8D107E004F12800002102F078FAB3
:101EC0000546002DDFD1D9F82C00D4F8A81020F455
:101ED00060000843C9F82C006078000734D5D4F8B6
:101EE000AC004FEA3060042807D8DFE800F00A139E
:101EF0001C030300FDB1A84626E00125002DFAD100
:101F000019E0D9F8000040F40030C9F80000002DB5
:101F1000F1D110E004F10800002102F0B9F9054602
:101F2000002DE8D107E004F12800002102F040FA7A
:101F30000546002DDFD1D9F82C00D4F8AC1020F0E4
:101F4000E0600843C9F82C00E078800728D5E06CF1
:101F50004FEA3010032806D8DFE800F00209120229
:101F6000B5B1A8461CE00125002DFAD110E0D9F842
:101F7000000040F40030C9F80000002DF1D107E066
:101F800004F10800022102F083F90546002DE8D192
:101F9000D9F82000E16C20F030000843C9F8200097
:101FA0006078C00632D5206E4FEA3030042807D85A
:101FB000DFE800F00A131C030300FDB1A84625E08A
:101FC0000125002DFAD119E0D9F8000040F40030C5
:101FD000C9F80000002DF1D110E004F10800002143
:101FE00002F056F90546002DE8D107E004F128007B
:101FF000002102F0DDF90546002DDFD1D9F82400DB
:10200000216E20F4E0400843C9F82400607880067F
:1020100026D5606E4FEA3040052807D8DFE800F08B
:10202000030A100303039DB1A84619E00125002D02
:10203000FAD10DE004F10800012102F029F904E0D1
:1020400004F12800012102F0B3F90546002DEBD17F
:10205000D9F82400616E20F4E0200843C9F8240078
:102060006078400628D5D4F8B0004FEA30700528D3
:1020700007D8DFE800F0030A100303039DB1A84668
:102080001AE00125002DFAD10DE004F1080001212C
:1020900002F0FEF804E004F12800012102F088F9C2
:1020A0000546002DEBD1D9F82C00D4F8B01020F063
:1020B000E0400843C9F82C006078000620D5206F66
:1020C000D8B1B0F1005F12D0B0F1805F25D1D9F85E
:1020D000000040F40030C9F8000085B9D9F82400A8
:1020E000216F20F040500843C9F8240008E004F1B3
:1020F0000800012102F0CCF80546002DEED0A846DC
:10210000E078C0072AD0A06C03280AD8DFE800F0E6
:10211000020D1602D5B1A84620E00125002DEED112
:10212000DCE70125002DF6D110E0D9F8000040F4DD
:102130000030C9F80000002DEDD107E004F10800DF
:10214000022102F0A5F80546002DE4D1D9F82000BF
:10215000A16C20F003000843C9F82000A0784006D5
:1021600042D5D9F8D40340F48070C9F8D403FEF7FF
:10217000EBFE0646D9F8D403C00505D4FEF7E4FE0D
:10218000801B6528F6D303256DBBD9F84410D4F81D
:10219000B400414011F4407F11D0D9F84410D9F86F
:1021A000442042F48032C9F84420D9F8442021F474
:1021B000407122F48032C9F84420C9F84410B0F5C7
:1021C000807F0FD1FEF7C0FE064641F2893700BF7F
:1021D000D9F84400800705D4FEF7B6FE801BB8424C
:1021E000F6D3032585B1A8462078C00742D0E06F1A
:1021F0004FEAF000052823D8DFE800F003262C037F
:1022000003037DB3A84635E04FF6CF73D4F8B4008E
:1022100059F81C2CC0F2FF0300F4407122F47C52E8
:1022200003EA1013B1F5407F08BF1A436FF31F3064
:1022300049F81C2CD9F844100843C9F84400D3E7E6
:102240000125002DDED10DE004F10800012102F08E
:102250001FF804E004F12800012102F0A9F8054666
:10226000002DCFD1D9F82800E16F20F038000843C5
:10227000C9F828002078800724D5A06F052807D842
:10228000DFE800F0030A100303039DB1A84619E03C
:102290000125002DFAD10DE004F10800012101F023
:1022A000F7FF04E004F12800012102F081F805465F
:1022B000002DEBD1D9F82800A16F20F007000843CA
:1022C000C9F828002078400726D5D4F894000528BE
:1022D00007D8DFE800F0030A100303039DB1A84606
:1022E0001AE00125002DFAD10DE004F108000121CA
:1022F00001F0CEFF04E004F12800012102F058F8BB
:102300000546002DEBD1D9F82C00D4F8941020F01C
:1023100007000843C9F82C002078800628D5D4F897
:1023200090004FEA3070052807D8DFE800F0030A74
:10233000100303039DB1A8461AE00125002DFAD130
:102340000DE004F10800002101F0A2FF04E004F117
:102350002800022102F02CF80546002DEBD1D9F817
:102360002800D4F8901020F0E0400843C9F8280075
:102370002078400628D5D4F89C004FEAB0200528E4
:1023800007D8DFE800F0030A100303039DB1A84655
:102390001AE00125002DFAD10DE004F1080000211A
:1023A00001F076FF04E004F12800022102F000F8B9
:1023B0000546002DEBD1D9F82C00D4F89C1020F460
:1023C000E0500843C9F82C002078000628D5D4F83E
:1023D000A0004FEA7030052807D8DFE800F0030AB4
:1023E000100303039DB1A8461AE00125002DFAD180
:1023F0000DE004F10800002101F04AFF04E004F1BF
:102400002800022101F0D4FF0546002DEBD1D9F8B8
:102410002C00D4F8A01020F460400843C9F82C0028
:102420002078000716D5D4F88400B0F5805F08D175
:1024300004F12800022101F0BBFF002818BF4FF073
:102440000108D9F82800D4F8841020F4405008433B
:10245000C9F828002078C00616D5D4F89800B0F541
:10246000807F08D104F12800022101F0A1FF00289B
:1024700018BF4FF00108D9F82C00D4F8981020F4B8
:1024800040700843C9F82C00A078000722D5D4F882
:10249000A400B0F5003F1AD0B0F5803F11D0C8BB02
:1024A00004F10800002101F0F3FE05468DB9D9F8CA
:1024B0002C00D4F8A41020F440300843C9F82C00B4
:1024C00008E004F12800022101F072FF0546002D0A
:1024D000EDD0A846A078400729D5D4F88800B0F5FB
:1024E000401F21D0B0F5001F18D0B0F5801F40F07C
:1024F000BF80D9F8000040F40030C9F80000ADB941
:10250000D9F82800D4F8881020F440100843C9F8FE
:1025100028000CE00125002DDBD1C8E704F12800DC
:10252000012101F045FF0546002DE9D0A846A0781D
:10253000C00720D0206DB0F5803F10D0B8B9D9F8D1
:10254000000040F40030C9F800009DB9D9F820001F
:10255000216D20F480300843C9F820000BE004F11D
:102560000800022101F094FE05461DB9EEE70125A1
:10257000002DEBD0A846E078800608D504F12800AD
:10258000022101F015FF002818BF4FF00108D4E91F
:1025900000108A037BD5D4F880206FF0010303EB91
:1025A0003223022B0AD34FEA32233BB1012B64D1F1
:1025B000D9F8003043F40033C9F80030002D5FD063
:1025C000CA0267D4CA006FD48A0279D44A0000F1E3
:1025D0008280B1F1FF3F40F38F80090200F19780C4
:1025E000C00707D004F10800002101F051FE0028C7
:1025F00018BF05462079800707D504F1080001219E
:1026000001F046FE002818BF05462079400707D58F
:1026100004F10800022101F03BFE002818BF054626
:102620002079000707D504F12800002101F0C0FE41
:10263000002818BF05462079C00607D504F12800F8
:10264000012101F0B5FE002818BF0546207980065B
:1026500007D504F12800022101F0AAFE002818BFC6
:102660000125002D18BF0125284601B0BDE8F083E3
:102670000125002D7FF45AAF42E70125002D9FD19F
:10268000D9F8283023F440731A43C9F82820454666
:10269000CA0297D5D9F82420636F22F000421A436A
:1026A000C9F82420CA008FD559F81C2CD4F8B830AA
:1026B00022F480421A4349F81C2C8A027FF586AF27
:1026C000D9F82420E36E22F080721A43C9F824203E
:1026D0004A007FF57EAF59F81C2C22F4004249F8DD
:1026E0001C2CD4F8BC2059F81C3C1A4349F81C2C6B
:1026F000B1F1FF3F3FF771AFD9F82020636D22F0B1
:1027000040521A43C9F8202009027FF569AFD9F871
:102710002810D4F88C2021F440011143C9F8281066
:10272000C0077FF45FAF65E72DE9F04381B0002873
:1027300000F0F28042F200080446C5F20028894603
:10274000D8F8000000F00F0088420ED2D8F8000040
:1027500020F00F0040EA0900C8F80000D8F8000097
:1027600000F00F00484540F0D780206844F2184739
:102770004107C5F602070AD521693A6802F07002DE
:10278000914204D93A6822F070021143396001077E
:102790000AD561697A6802F07002914204D97A68B8
:1027A00022F0700211437960C1060AD5A1697A68E6
:1027B00002F4E062914204D97A6822F4E0621143A3
:1027C000796081060AD5E169BA6802F07002914227
:1027D00004D9BA6822F070021143B96081070AD5A2
:1027E000E1683A6802F00F02914204D93A6822F097
:1027F0000F0211433960C0077ED1206881070AD5D6
:10280000E1683A6802F00F02914204D23A6822F07D
:102810000F0211433960D8F8001001F00F0149454B
:102820000DD9D8F8001021F00F0141EA0901C8F8CC
:102830000010D8F8001001F00F0149456CD1410794
:102840000AD521693A6802F07002914204D23A68CE
:1028500022F070021143396001070AD561697A6874
:1028600002F07002914204D27A6822F070021143A1
:102870007960C1060AD5A1697A6802F4E0629142E2
:1028800004D27A6822F4E0621143796080060AD5A6
:10289000E069B96801F07001884204D2B96821F09A
:1028A00070010843B86000F0B7F8396845F220427B
:1028B000C0F60002C1F303213B6803F00F03515C33
:1028C000D25C01F01F01C84002F01F0144F29832AF
:1028D00020FA01F1C2F20542116044F2943144F24F
:1028E000A032C2F20541C2F2054208601068FEF74C
:1028F00077FB01B0BDE8F083386820F47061D4E95B
:102900000102032841EA0201396009D0022829D1D5
:1029100057F8181C890307D4012001B0BDE8F083E3
:1029200057F8181C8901F7D557F8081C21F0070142
:10293000084347F8080CFEF707FB064641F28835C6
:1029400057F8080C616800F03800B0EBC10F3FF495
:1029500054AFFEF7F9FA801BA842F1D9032001B069
:10296000BDE8F083012857F8181C02D1C905D3D55A
:10297000DAE74907D0D5D7E780B500F04DF844F243
:10298000184145F22043C5F60201C0F600030A686B
:10299000C2F30322096801F00F019A5C595C02F04E
:1029A0001F0220FA02F201F01F0044F2983122FACD
:1029B00000F0C2F20541086044F29431C2F20541D0
:1029C0000A6080BD0000000080B5FFF7D5FF44F22B
:1029D0001C4145F22042C5F60201C0F6000209681A
:1029E000C1F30211515C01F01F01C84080BD00001D
:1029F00080B5FFF7C1FF44F21C4145F22042C5F605
:102A00000201C0F600020968C1F30221515C01F025
:102A10001F01C84080BD000044F20041C5F602011C
:102A20000869C0F3C20003280FD002282BD078BB5E
:102A30000868800649F20000C0F2D03058BF7047E5
:102A40000968C1F3C101C84070478A6A886AC0F347
:102A5000051CCB6A486B03F00103BCF1000FC0F307
:102A6000CC0003FB00F000EE100AB8EE400A14D0D0
:102A700002F00302022A12D0A2B90868800614D418
:102A80009FED251A1EE047F64000C0F27D1070470A
:102A900040F60010C0F23D007047002070479FEDE7
:102AA0001D1A0FE09FED1A1A0CE0086849F20002A7
:102AB000C0F2D032C0F3C10022FA00F001EE100AD9
:102AC000B8EE411A02EE10CA9FED144AB8EE422A3F
:102AD000086B6FF35F2003EE100A81EE021AB8EE66
:102AE000433A086B00EE043AB7EE000AC0F3462002
:102AF000013033EE000A21EE000A01EE100AB8EEB2
:102B0000411A80EE010ABCEEC00A10EE100A7047AE
:102B10000024744A20BCBE4B0024744C00000039D1
:102B20002DE9F041002800F05F810446007844F26E
:102B30000046C007C5F602064AD0306900F03801E9
:102B4000B06A102905D018290AD100F00300022824
:102B500006D13068800337D56068A8BB012726E01E
:102B600065686DB1B5F5803F06D0B5F5A02F30682A
:102B700007D140F480203060306840F4803006E0B7
:102B8000306820F480303060306820F4802030607D
:102B9000FEF7DAF9002D054613D000BF3068800338
:102BA00012D4FEF7D1F9401B6428F7D9032700207F
:102BB000002800F030820BE0FEF7C6F9401B6428C5
:102BC000F4D830688003F7D40120002800F0238275
:102BD0002078800768D5306910F03801B06A18D0C5
:102BE000182908BF5FEA807013D0E0683168C8B365
:102BF00021F0190108433060FEF7A6F9054600BF31
:102C0000306840071FD4FEF79FF9401B0228F7D910
:102C100036E03068400703D5E068002800F0768190
:102C20003068E16820F0190008433060FEF78CF945
:102C3000054600BF3068400705D4FEF785F9401B04
:102C40000228F7D91CE0FEF777F941F20301884228
:102C50001CD820697168402821F47C311DD141F4D1
:102C600000301CE021F001003060FEF76DF90546F0
:102C70003068400714D5FEF767F9401B0328F7D3E7
:102C800003270020002800F0C6810DE0706821694C
:102C900020F0FE4040EA016001E041EA003070604F
:102CA0000120002800F0B7812078C00659D530698E
:102CB00000F03801B06A082905D0182918D100F0B1
:102CC0000300012814D13068C00502D5E0698028CE
:102CD00042D1FEF731F941F2030188421BD8206A44
:102CE0007168202821F0F8412ED141F080402DE07C
:102CF000E0690028306816D040F080003060FEF7B0
:102D000023F905463068C005E3D4FEF71DF9401BE2
:102D10000228F7D916E0F068216A20F07C5040EADA
:102D20000160F06013E020F080003060FEF70CF9E5
:102D3000054600BF3068C00509D5FEF705F9401B00
:102D40000328F7D3032708E041EA80607060012080
:102D5000002800F0608104E001270020002800F036
:102D60005A812078000743D42078800653D42078F5
:102D7000400764D4656A9DB3306900F038001828B4
:102D800040F0A480012DB16A306B2DD001F0030218
:102D9000A36A9A4228D1C1F30511E26A914223D174
:102DA0000146226B6FF35F21013A91421CD1C0F3BF
:102DB0004621626B013A914216D1C0F30641A26BE3
:102DC000013A914210D1C0F30660E16B01398842AB
:102DD0000AD1706BC0F3CC00A16C814240F01E811F
:102DE0000027F8B2BDE8F0810127F8B2BDE8F08114
:102DF00060690028706F38D040F001007067FEF7FE
:102E0000A3F80546706F8007AED4FEF79DF8401B0F
:102E10000228F7D925E0A0690028306845D040F4A1
:102E200080503060FEF790F8054600BF306880049F
:102E30009DD4FEF789F8401B0228F7D911E0D6F897
:102E4000000440F48070C6F80004FEF77DF80546E3
:102E5000D6F80004C00519D4FEF776F8401B6428A4
:102E6000F6D90327F8B2BDE8F08120F001007067C1
:102E7000FEF76AF805460327706F80077FF574AF89
:102E8000FEF762F8401B0228F6D9C4E0A568002DC1
:102E90003ED0012D05D0052D306F3AD140F0040011
:102EA0003067306F40F0010039E020F4805030602E
:102EB000FEF74AF805460327306880047FF557AFD0
:102EC000FEF742F8401B0228F6D9A4E0306820F053
:102ED00080703060FEF738F8022D05464FF003078A
:102EE0000AD100BF3068800137D5FEF72DF8401BAE
:102EF0000228F7D98FE000BF306880017FF570AFFE
:102F0000FEF722F8401B0228F6D984E00127B8E634
:102F1000306F20F001003067306F20F00400306720
:102F2000FEF712F8002D054641F288384FF00307EE
:102F30000FD000BF306F80073FF51CAFFEF704F8DD
:102F4000401B4045F6D966E0FDF7FEFF401B4045BB
:102F500061D8306F8007F7D40CE704F12807B06A16
:102F600040F2F33188438ECF0843591E40EA0210E5
:102F70004FF47E42B06202EB47206FF35F214FF4C3
:102F8000FE0280B2E36B0844A16B02EB01414FF0FB
:102F9000FE4201F4FE0102EB0362084402F0FE412E
:102FA00008443063F06A4FF6F87120F00100F062D7
:102FB000706BA26C884340EAC2007063F06A216CB7
:102FC00020F00C000843F062F06A616C20F002000F
:102FD0000843F062F06A40F48030F062F06A40F436
:102FE0000030F062F06A40F48020F062F06A40F055
:102FF0000100F062306840F080703060FDF7A4FF9F
:1030000004460327306880013FF5EAAEFDF79CFFD8
:10301000001B0228F6D9F8B2BDE8F081F06A20F072
:103020000100F062FDF790FF0546FDF78DFFA84215
:10303000FBD0706B4FF6F871A26C8843002740EA12
:10304000C2007063F06A40F00100F062F8B2BDE8BF
:10305000F08100000000000080B501F03DFA80BD65
:1030600090F88410012901D1022070472421C0F872
:10307000881002681368116823F0005321F00101E1
:1030800011600021416613602022C0F8882080F87A
:1030900084100846704700007047000000000000E0
:1030A0007047000000000000B0B5044690F88400AE
:1030B000012801D10220B0BD012084F88400242021
:1030C000C4F8880020680568026822F001020260E6
:1030D000826822F0606211438160204601F0F4FAB8
:1030E000206805602020C4F88800002084F884004F
:1030F000B0BD000000000000B0B5044690F88400A8
:10310000012801D10220B0BD012084F884002420D0
:10311000C4F8880020680568026822F00102026095
:10312000826822F0604211438160204601F0CCFAAF
:10313000206805602020C4F88800002084F88400FE
:10314000B0BD00000000000070470000000000005B
:103150007047000000000000704700000000000001
:10316000B0B50368044640F62F00D9691D680840D1
:10317000D3F808E020280CD105F020020EF0805092
:10318000801806D0616F002900F0B3802046884780
:10319000B0BD40F60F00084000F09280012040F2E0
:1031A0002012C1F20000C0F200420EEA000C05EA53
:1031B000020010EB0C0000F08380C80718BF15F464
:1031C000807007D001201862D4F8900040F0010010
:1031D000C4F8900088070EF0010208D53AB1022029
:1031E0001862D4F8900040F00400C4F8900048073A
:1031F00008D53AB104201862D4F8900040F00200DB
:10320000C4F8900008070CD505F0200050EA0C0027
:1032100007D008201862D4F8900040F00800C4F8E5
:10322000900008050BD515F0806008D04FF40060C1
:103230001862D4F8900040F02000C4F89000D4F850
:103240009000002855D011F0200009D005F0200092
:103250000EF08051401803D0616F09B120468847B5
:103260002068D4F89010806801F0280100F0400038
:10327000401800F0AE80204601F02AFB20688068EC
:10328000400640F1968000BF206850E8020F216898
:1032900020F0400041E80202002AF5D1D4F8800075
:1032A000002800F0868044F6B901C0F600010165EF
:1032B000FDF7F2FBE8B1D4F88000016D8847B0BD9E
:1032C00005EA010CE26E5FEACC603ED5012A3CD1F2
:1032D000102018629868400643D4B4F85C00B4F833
:1032E0005E10B4F85E20002A1CBF401A5FEA00415D
:1032F00000D1B0BD216851E8001F226821F490710F
:1033000042E80013002BF5D14FF6FE71CEF6FF71A7
:10331000226852E8022F23680A4043E80225002D64
:10332000F6D12021C4F88C100021E166616700BF4E
:10333000216851E8001F226821F0100142E80013C3
:10334000002BF5D102212167F9E0C80224D51EF433
:10335000800021D04FF4801018622046FFF7F8FE5D
:10336000B0BDD4F8800040F20F42C4F202020168FE
:10337000914235DC6F22C4F20202914249DC3F22C5
:10338000C4F2020291426ADC1022C4F202029142AB
:1033900000F08880282281E008060ED505F0800024
:1033A0000EF40002801808D0A16F00297FF4EEAE61
:1033B0009FE72046FFF7D0FEB0BD5FEA4C6024D403
:1033C000080241D515F080403ED02046FFF7BCFEF4
:1033D000B0BD2046FFF7C0FE0020C4F89000B0BD8D
:1033E00040F26F42C4F2020291421EDC40F23F42C0
:1033F000C4F20202914239DC40F21042C4F20202ED
:1034000091424FD040F2284248E0204601F090FA25
:10341000B0BD9F22C4F20202914230DC7022C4F29D
:10342000020291423ED0882238E040F29F42C4F22C
:10343000020291422ADC40F27042C4F2020291423E
:1034400030D040F2884229E0C8017FF552AFB5F193
:10345000FF3FC8BFB0BD2046FFF722FEB0BD4022EF
:10346000C4F2020291421DD0582217E040F24042BD
:10347000C4F20202914215D040F258420EE0A0225E
:10348000C4F2020291420DD0B82207E040F2B842E5
:10349000C4F20202914205D040F2A042C4F20202FC
:1034A000914202D1D4F880100968043109688AB2C7
:1034B000002A3FF41EAFB4F85C309A42BFF419AF53
:1034C000A4F85E10C069B0F5807F31D0206850E864
:1034D000000F216820F4807041E80002002AF5D135
:1034E000206850E8020F216820F0010041E8020244
:1034F000002AF5D1206850E8020F216820F0400032
:1035000041E80202002AF5D12020C4F88C000020F6
:10351000E06600BF206850E8000F216820F010002E
:1035200041E80002002AF5D1D4F88000FCF7CCFF76
:1035300002202067B4F85C00B4F85E10401A81B233
:103540002046FFF7A9FDB0BD10B5B0B10446D0F8D4
:10355000880028B9002084F88400204600F028F86C
:103560002420C4F888002068016821F0010101606E
:10357000204601F0F1F9012801D1012010BDA06A17
:1035800010B1204601F0CCF82068416821F4904148
:103590004160816821F02A018160016841F00101E8
:1035A0000160204601F02CF910BD00000000000071
:1035B000B0B5B8B0044602A8C0210025CDE9365503
:1035C000CDE934553395FCF7BBFE41F2000120688C
:1035D000C4F20101884201D038B0B0BD0120029090
:1035E00002A803952195FEF797FB08B1FCF764FF4D
:1035F00044F2E040C5F60200016941F010010161AA
:10360000016901F0100101910199016841F0010186
:103610000160006833A900F00100019001984FF4A7
:10362000C0603390022034900020CDE9350007209F
:1036300037900020C5F60200FDF7A6FB25200221E9
:103640000022FDF7F1FE2520FDF7EAFE38B0B0BDFF
:103650002DE9F04182B00446D0F8880020283FD1FF
:103660000E4600294FF001004BD01746002A48D0E3
:103670001D464FF00008C4F890802120C4F888004F
:10368000FDF762FCA4F85470A4F856700746A168D0
:10369000B1F5805F0FD12069002814BF3046B046D5
:1036A000064608E0206816F8011B8162B4F856004F
:1036B0000138A4F85600B4F85600A8B180210022C1
:1036C00020463B46009501F00BFCE8B9002EE9D1FD
:1036D00038F8020B216800266FF35F208862E5E767
:1036E000022002B0BDE8F0814021002220463B4686
:1036F000009501F0F5FB20210028C4F8881018BFC0
:10370000032002B0BDE8F0812020C4F88800032027
:1037100002B0BDE8F081000070470000000000002A
:10372000FEE7000000000000B0B544F2A8333225E7
:10373000C2F205430002144641F288321D6044F291
:10374000E035C2F2054558604FF4807098614FF43F
:103750008060D8614FF040705862996228461946DF
:10376000FDF7E2FE41F2883228462146FEF798F83E
:10377000B0BD000000000000B0B544F2A83332250F
:10378000C2F20543000214461D6058604FF4807079
:1037900098614FF48060D8614FF04070C3E909012F
:1037A000BFF34F8F4EF668710020CEF2000100BFCC
:1037B00000F110522030B0F5002F0A60F8D1BFF3AD
:1037C0004F8F44F2E03544F2A831BFF36F8FC2F25D
:1037D0000545C2F2054141F288322846FDF7A4FEB4
:1037E00028462146FEF7C4F8B0BD000000000000E6
:1037F00080B582B04FEA102C8DF80500100A8DF8C4
:1038000006008DF80720080A8DF80000180A8DF8C8
:10381000011001AA8DF802002A2004218DF804C0AD
:103820008DF80330FFF780FF6A462B200421FFF755
:103830007BFF02B080BD0000F0B581B040F2000710
:10384000DDF818E0C2F200474FEA1E24A7F1020C8F
:10385000002500BF4FF4CE76674600BF07F8024F41
:10386000013E87F801E0F9D101350CF54E7CB5F544
:10387000CE7FEFD1FFF7BCFF2C2000F05DF940F2C6
:1038800000044FF4CE75C2F2004400BF3C204FF458
:103890004E712246FFF770FF013D04F54E74F5D1DD
:1038A00001B0F0BD00000000B0B540F600040221F8
:1038B000C5F6020401222046FDF736FB0A20FDF77B
:1038C00043FA022100222046FDF72EFB6420FDF77B
:1038D0003BFA022101222046FDF726FB7820FDF766
:1038E00033FA42F62064C2F20544617CFF2908BF26
:1038F000B0BD0020002510E004EB420201F01F01E2
:103900000132FFF711FF0135A8B2C10011FA85F1AC
:1039100004EB4101497CFF290BD000EBC0020B06F0
:1039200014F81200E8D500F007F97820FDF70CFA3A
:10393000E9E7B0BD0000000000F01C014FF4C052E8
:1039400002EA401200F0E00300F003000FF2140C52
:1039500042EA81121CF8000042EA032242EAC10155
:1039600008437047000B151F2DE9F04F85B00F9DE0
:10397000DDF838C090466E082F0901225BBAADF819
:103980001230740701EB050318BF02EB15179CFA00
:103990009CF2ADF8102000EB5502013B013A07FB09
:1039A00005F492B29BB2FFF723FF2C2000F0C4F87D
:1039B000002C03945AD0A8F1200046F60841C2B268
:1039C000C0F60001002004AC01EB8211019145F228
:1039D00048410DF11207C0F600014FF000084FF00A
:1039E000000B029201EB021100910AE04FF0000976
:1039F00008F1010803991FFA88F00F9D8142CB4618
:103A000034D9202D06D0182D06D0102D2ED1009996
:103A10000BE000BF019908E0029945F63822C0F694
:103A2000000201EB410102EB011108440BF108090E
:103A3000002590F800A000BF2AFA05F03A46C0071A
:103A40004FF03C004FF0020108BF2246FFF76CFE2A
:103A50000BF1010B5FFA8BF0B0FBF6F101FB1600E6
:103A60000028C3D00135082DE6D1C1E705B0BDE877
:103A7000F08F0000000000002DE9F04782B0994669
:103A8000904602440B44013A013B92B29BB2FFF7CD
:103A9000AFFE2C2000F050F8B8F1000F26D00A9F9E
:103AA0004FF0000A0DF10606002005E00AF1010AB8
:103AB0001FFA8AF1414519D2B9F1000FF6D000EB97
:103AC0000905441E38194078FFF736FF40BAADF8B3
:103AD00006003C2002213246FFF726FEA01C0134DE
:103AE00080B2A9B28142EDD1601CDFE702B0BDE82F
:103AF000F0870000000000002DE9F04F83B0177838
:103B0000BFB1DDE90C899A468B4606464FEA590457
:103B1000551E00BFB0B25946FAB25346CDF80080E8
:103B2000CDF80490FFF720FFAF7826440135002F31
:103B3000F0D103B0BDE8F08F80B544F2A831022285
:103B4000C2F2054100020A604FF4807248604FF4EF
:103B50000050C8600020C1E904008A614FF480620F
:103B6000CA6141F28832C1E90900C1E90B0048632A
:103B700044F2E030C2F20540FDF7D6FC80BD000003
:103B800080B544F2E030C2F20540C06BFDF78CFA1C
:103B900080BD00000000000070B590E80250D0E940
:103BA00003231A43CA60D0E9052300F120061A4313
:103BB000C369BCF1804F42EA030278CE42EA0302B5
:103BC000036B42EA040240F2000442EA0602CFF626
:103BD000FC7442EA030204EB854342EA0E0242EA25
:103BE00003020A6103D10A6942F040420A610022DD
:103BF0004A61436BB3F1FF3F04DC4A695B4242F424
:103C000080224A619AB20A62806BB0F1FF3F01DD07
:103C1000000406E04A69002342F400224A61A3EB53
:103C200000400A6A104308625FFA8CF08862002044
:103C3000486270BD0000000010B5D0F800C0C06D33
:103C4000DDF808E011F05F4FDCF8144063F3100476
:103C50004FF6FF73CCF81440C0F20103DCF81440B7
:103C600003F5602303EA040343EA0E53A3F580132C
:103C7000CCF814304FF01F03CCF80430CCF81C20E3
:103C8000CCF81810DCF8283023F4803408BF43F453
:103C9000803412F05F4FCCF82840DCF8281021F473
:103CA000003308BF41F40033CCF82830CCF82400AE
:103CB00010BD00000000000080B584B0FDF780FB5F
:103CC0000120ADF800004FF01050019012208DF847
:103CD000080003208DF80B000020ADF8090000203B
:103CE000C0F2011003906846FDF73AFB0420FDF78F
:103CF00077FB04B080BD0000F0B587B044F2E0402F
:103D00000025C5F602000695CDE90455CDE902551A
:103D1000016840F6000441F0800101600168C5F6C9
:103D2000020401F0800101910199016841F0040150
:103D300001600168012201F004010191019901680B
:103D400041F0010101600068022100F001000190D2
:103D50000198204602260127FDF7E6F8CDE9026723
:103D60000320059002A920460495FDF70DF807B041
:103D7000F0BD00000000000080B544F2EC4041F2CC
:103D80000001C2F20540C4F201010C2201604FF4AF
:103D9000E13141600021C0E902110161C0E9052162
:103DA000C0E90711C0E90911FFF7CEFB08B1FCF724
:103DB00083FB44F2EC400021C2F20540FFF79CF97E
:103DC00008B1FCF779FB44F2EC400021C2F2054057
:103DD000FFF76AF908B1FCF76FFB44F2EC40C2F25E
:103DE0000540FFF73DF9002808BF80BDFCF764FBE4
:103DF00080BD000000000000FEE7000000000000A1
:103E0000FEE700000000000000F007004FF0FF3C5C
:103E100080F00703042B28BF0423033838BF002099
:103E20000CFA03F399430CFA00F301FA00F022EACA
:103E300003010843704700007047000000000000C5
:103E40002DE9F041D1F824E0B2F1406F18BFBEF186
:103E5000000F03D003688C6A013C1C61D1F818C0C4
:103E6000BCF1000F0B6A25D0002B46D000688D688E
:103E7000D1E90487CC69C561CD6A43EA0E030E6BB4
:103E80002B434D6B33432B43002C43EA874343EAD8
:103E900008034DD04CEA0207CD6827430E683B4328
:103EA000B2F1406F43EA050343EA060242615AD188
:103EB000BDE8F081002B40D000688D68D1E904870F
:103EC000CC69C561CD6A43EA0E030E6B2B434D6B83
:103ED00033432B43002C43EA874343EA080346D08D
:103EE0004CEA0207CE682743B2F1406F43EA07036A
:103EF00043EA06024261DBD035E0D1E90B5645EAE0
:103F00000E074C694D6B3743CB692F4347EA844416
:103F10009BB34CEA0206CD683343006823430F6825
:103F20002B43B2F1406F43EA07024261C0D01AE06E
:103F300042EA0C0209681A4324E0CB6933B34EEA23
:103F40000205CC6A2B430D6B23434E694C6B2B430C
:103F500023430068CF6843EA8643B2F1406F43EAE7
:103F600007024261A4D049688161BDE8F0814CEA52
:103F7000020119434161BDE8F08142EA0C02006888
:103F80000968224311434161BDE8F081BEF1000F91
:103F900008BFBDE8F081D1E90B7642EA0E024B6919
:103FA0003A43496B32430068114341EA834141611E
:103FB000BDE8F0810000000080B5006C0021816345
:103FC000C16290F8411008290BD100680221C1603C
:103FD000016841F400310160016841F002010160B3
:103FE00080BD012180F84110FDF7E6FA80BD000098
:103FF00080B5006C00218163C162416C41F0040115
:10400000416401680A6822F004020A60FDF748FA78
:1040100080BD000000000000006C0021C16200684B
:10402000016841F4003101607047000000000000A9
:104030002DE9F04786B044F2E04040F20044C5F676
:104040000200C5F6020401AD4FF002080168012725
:1040500041F0100101600168032601F01001019197
:104060000199016841F00801016001684FF00909F8
:1040700001F0080101910199016841F0020101601C
:104080000068294600F00200019001984FF460504A
:10409000019004F50060CDF8088003970496CDF8F0
:1040A0001490FCF771FE204629464FF0040ACDE932
:1040B00001A8CDE90376CDF81490FCF765FE402009
:1040C0002946CDE90108CDE903760A20059020466E
:1040D000FCF75AFE04F540602946CDE901A8CDE978
:1040E0000376CDF81490FCF74FFE06B0BDE8F087DC
:1040F00070B582B044F2D44544F2E034C5F602050E
:10410000C2F2054404F10C020B212868002640F499
:1041100080402860286800F480400190019855F89C
:10412000580C40F4804045F8580C55F8580C20F4D1
:10413000804045F8580C45F200006160C5F200204F
:104140002060202042F61F61A06010202662C0F28D
:10415000050143C20120C4E906062046FDF730FBF5
:1041600044F2A8303221C2F205400022C0E9001614
:104170004FF40051C16046614FF4807181614FF48A
:104180008061C0E90716C0E90966C0E90B664663AD
:104190005C200F21FDF748F95C20FDF741F9286804
:1041A00040F001002860286844F28045C2F20545CD
:1041B00000F0010000904020C5F200200099286026
:1041C0001620C5E9010680200221C5E90306C5E9DC
:1041D0000516EE61082129624FF00071C5E909104A
:1041E0002846E563C5E90B66C5E90D662C64FCF756
:1041F0003BFF2846FDF730F87A2000210022FDF72A
:1042000013F97A20FDF70CF902B070BD0000000030
:104210002DE9F04381B0044600688068084018BF6B
:104220000120904203D1002001B0BDE8F083DDF809
:1042300020800D461646994608F1010707E000BFA9
:1042400020688068284018BF0120B042EBD0002FC2
:10425000F6D0FCF779FEB8F1000F03D0A0EB09000F
:104260004045EDD9042084F84100606C40F0010025
:104270006064012001B0BDE8F08300000000000090
:1042800080B544F2E030C2F20540FDF79DF980BDF3
:10429000F0B581B044F22C47C5F6020757F8042C5C
:1042A00002F00302032A02D1012001B0F0BD05464D
:1042B00057F82C0C0C4620F0806047F82C0CFCF7CB
:1042C00043FE064657F82C0C000105D5FCF73CFED2
:1042D000801B0228F6D964E057F8040CEE6895E8D4
:1042E0000E0020F47C3040EA0130A2F101014FF4CD
:1042F0007E4247F8040C02EB43224FF0FE436FF37B
:104300005F2192B202EB01004FF4FE012A6901EB3A
:10431000064101F4FE0103EB0262084402F0FE4193
:104320000844F8603868696920F0C00040EA01007C
:1043300038603868A96920F0200040EA0100386040
:1043400038684FF6F87120F0100038603869EA6973
:1043500020EA010040EAC2003861386840F01000ED
:1043600038602CB1012C386806D140F4801005E08B
:10437000386840F4002001E040F40010386057F83D
:104380002C0C40F0806047F82C0CFCF7DDFD044657
:1043900057F82C0C000107D4FCF7D6FD001B0328AE
:1043A000F6D3032001B0F0BD002001B0F0BD000045
:1043B000F0B581B044F22C47C5F6020757F8042C3B
:1043C00002F00302032A02D1012001B0F0BD05462C
:1043D00057F82C0C0C4620F0805047F82C0CFCF7BA
:1043E000B3FD064657F82C0C800005D5FCF7ACFD54
:1043F000801B0228F6D964E057F8040CEE6895E8B3
:104400000E0020F07C7040EA0150A2F101014FF44F
:104410007E4247F8040C02EB43224FF0FE436FF359
:104420005F2192B202EB01004FF4FE012A6901EB19
:10443000064101F4FE0103EB0262084402F0FE4172
:10444000084478613868696920F4406040EA0100F6
:1044500038603868A96920F4007040EA01003860CB
:1044600038684FF6F87120F480703860B869EA69EE
:1044700020EA010040EAC200B861386840F4807068
:1044800038602CB1012C386806D140F4000005E0FA
:10449000386840F4800001E040F08070386057F8E0
:1044A0002C0C40F0805047F82C0CFCF74DFD0446D6
:1044B00057F82C0C800007D4FCF746FD001B03289E
:1044C000F6D3032001B0F0BD002001B0F0BD000024
:1044D0007047000000000000B0B501380024B4EBC4
:1044E000106F01D00120B0BD4EF210050F21CEF2A9
:1044F000000568604FF0FF3000F076FDAC600720EB
:1045000028602046B0BD000080B5FCF725FD80BDC9
:1045100070B59CB044F6180409A84C21C5F60204F5
:10452000FBF70EFF02200025CDE90755CDE9055523
:10453000CDE90355CDE90155FCF78AFF40F22C4047
:104540000095C5F60000016821F0010101600068D6
:1045500000F001000090206840F440402060206896
:1045600000F440400090009820688004FCD50220B0
:10457000099001210C9140250D951290002613966B
:10458000042114913221CDE91510CDE917000C203A
:10459000CDE9190609A81B96FEF7C2FA50BB3F20C9
:1045A000019003200221CDE902060820CDE904058F
:1045B00006954FF48060CDE9070501A8FEF7B4F831
:1045C000C0B94FF6E830CFF6FF70215841F08001B6
:1045D00021504FF6DC40CFF6FF70215841F0020128
:1045E0002150205800F0020000900098FCF7C0FB1A
:1045F0001CB070BDFBF760FF4EF6885042F2000C15
:10460000CEF20000C5F2002C016841F47001016097
:10461000DCF8000000F00F00062806D8DCF80000E7
:10462000072161F30300CCF8000044F200404EF68D
:104630007F52C5F60200CEF6F622016841F0010174
:1046400001600021016103681A400260DCF800206B
:10465000120706D5DCF80020072363F30302CCF829
:10466000002040F200228161C161C0F20222016299
:1046700082620022C0F2FF12C26240F28022C0F2C7
:104680000112026341638263C16302644164026890
:1046900022F480220260016641F20000C5F600406B
:1046A0000068B1EB507F05D148F208100121C5F236
:1046B0000010016044F2000043F2D201C5F2002074
:1046C000016070470000000010B5416E01B3016841
:1046D00048F2C83CC0F6000C48F2D03E8A68C0F6EA
:1046E000000EC2F3426289684C0F1CF802301EF8BB
:1046F00002101A011EF80430B2FBF1F11CF804207C
:10470000A0F868101201B2FBF3F2A0F86A2010BD05
:104710000121A0F86A10A0F8681010BD0000000088
:10472000816ACA070CD18A0715D44A071ED40A0722
:1047300027D4CA0630D48A0639D44A0655D541E072
:104740000268D0F82CC0536823F4003343EA0C030A
:1047500053608A07E9D50268D0F830C0536823F463
:10476000803343EA0C0353604A07E0D50268D0F86F
:1047700034C0536823F4802343EA0C0353600A07D0
:10478000D7D50268D0F838C0536823F4004343EA11
:104790000C035360CA06CED50268D0F83CC09368BB
:1047A00023F4805343EA0C0393608A06C5D502685C
:1047B000D0F840C0936823F4005343EA0C0393609D
:1047C0004A0612D50268D0F844C0BCF5801F536871
:1047D00023F4801343EA0C03536006D1536823F497
:1047E000C00C836C43EA0C035360090658BF704742
:1047F0000168C06C4A6822F4002210434860704788
:10480000B0B582B004460020C4F89000FCF79CFBD1
:10481000216805460968090719D54FF400110022DF
:104820006FF07E40009020462B4600F059FB70B19F
:10483000206850E8000F216820F0800041E8000265
:10484000002AF5D12020C4F8880003202FE020683A
:104850000068400723D54FF4800100226FF07E40AE
:10486000009020462B4600F03BFBC0B1206850E88A
:10487000000F216820F4907041E80002002AF5D171
:10488000206850E8020F216820F0010041E8020290
:10489000002AF5D12020C4F88C00032007E0202056
:1048A000C4F88800C4F88C000020E066206700216E
:1048B00084F8841002B0B0BD80B5806B0021A0F8F0
:1048C0005E10A0F85610FEF747FC80BD0000000007
:1048D000016851E8001F026821F4907142E800135A
:1048E000002BF5D14FF6FE7CCEF6FF7C026852E835
:1048F000022F036802EA0C0243E802210029F5D1E5
:10490000C16E01290AD100BF016851E8001F026889
:1049100021F0100142E80013002BF5D12021C0F84E
:104920008C100021C1664167704700000000000044
:1049300080B500BF016851E8001F026821F0400106
:1049400042E80013002BF5D12021C0F88810002187
:104950008167FEF7E1FE80BDF0B583B004460368D1
:10496000806846F6F316D4E90312104362691043D7
:10497000E2691F68CCF6FF76104307EA060210438F
:10498000186058684FF2FF4720F4405240F600404C
:1049900011435960C5F60000A1698342C1F2FF17B7
:1049A0001CBF226A11439A6847F2FF763A40C4F26C
:1049B000000611439960DA6A44F2544122F00F0272
:1049C000676AC5F602013A43B342DA624FF08002E9
:1049D00025DD40F6FF77C4F20107BB423FDD83428D
:1049E00000F0718041F20047C4F20107BB4200F0C1
:1049F000758041F20007C4F20107BB4240F0A58078
:104A00000A68C2F3C203052B00F296800122DFE898
:104A100013F09C0091009500970099009B0044F6CC
:104A2000FF37C4F20007BB4233DC44F20047C4F254
:104A30000007BB4200F05D8044F60007C4F20007A7
:104A4000BB4240F082800A6802F00703052B00F2A7
:104A500073800022DFE803F0796E7274767847F68F
:104A60000007C4F20007BB4200F04E8047F6004743
:104A7000C4F20007BB4240F068800A6802F00703F6
:104A8000052B00F259800022DFE803F05F54585AEA
:104A90005C5E44F60047C4F20007BB4200F03F8072
:104AA00045F20007C4F20007BB4240F04E800A689E
:104AB00002F00703052B00F23F800022DFE803F03D
:104AC000453A3E4042444A6802F00703052B33D87A
:104AD0000222DFE803F03A2F333537390A68C2F390
:104AE000C203052B28D80122DFE803F02F24282A4F
:104AF0002C2E0A6802F00703052B1DD80022DFE8E0
:104B000003F024191D1F21230A6802F00703052B57
:104B100012D80022DFE803F0190E121416180A68E2
:104B200002F00703052B07D80022DFE803F00E038D
:104B300007090B0D042208E0802206E0082204E0A9
:104B4000102202E0202200E040222368834240F647
:104B50000010C0F23D0000F05380E369B3F5004F50
:104B600040F07880402A00F21A810025DFE812F038
:104B700041001201170117011B011701170117014D
:104B80001F0117011701170117011701170117015D
:104B90002601170117011701170117011701170146
:104BA0001701170117011701170117011701170145
:104BB0003401170117011701170117011701170118
:104BC0001701170117011701170117011701170125
:104BD0001701170117011701170117011701170115
:104BE0001701170117011701170117011701170105
:104BF00031010025FDF7E8FE002840F0EF8049E193
:104C0000931E1E2B00F274800027DFE813F01F00B4
:104C100077007A007700770077007E0077007700D2
:104C200077007700770077007700B800770077008B
:104C300077007700770077007700770077007700BC
:104C40007700770077007700770083000027FCF774
:104C500027FF5FE0402A00F2E6800025DFE812F03F
:104C60004100DE00E300E300E700E300E300E300CF
:104C7000EB00E300E300E300E300E300E300E30014
:104C8000F200E300E300E300E300E300E300E300FD
:104C9000E300E300E300E300E300E300E300E300FC
:104CA0000001E300E300E300E300E300E300E300CE
:104CB000E300E300E300E300E300E300E300E300DC
:104CC000E300E300E300E300E300E300E300E300CC
:104CD000E300E300E300E300E300E300E300E300BC
:104CE000FD000025FDF770FE002840F0BA80D1E0FD
:104CF000402A03D14FF4004000270BE00020012799
:104D000008E06846FCF7E0FE02E06846FCF770FF4A
:104D10000027019878B3616A45F23042C0F600027C
:104D20006668012532F8112006EB4603B0FBF2F16C
:104D30009942C0F0AF803303994200F2AB8000216A
:104D40000023FBF7C5FA0902002341EA106132464D
:104D5000000210EB560041F10001FBF7B9FA4FF6E3
:104D6000FF42A0F54071C0F20F02914205D82168C0
:104D70003D46C8608EE03D468CE001258AE051F852
:104D8000540C800649F20000C0F2D03000F18B8054
:104D90000027BFE70025FDF72BFEF8B97AE00020D9
:104DA0000125D8B976E06846FCF78EFE02E0684639
:104DB000FCF71EFF0025019880B96BE051F8540CF8
:104DC000800649F20000C0F2D03073D4002528B923
:104DD00060E04FF40040002500285BD0616A45F296
:104DE0003042C0F6000232F811106268B0FBF1F0F8
:104DF000510801EB4000B0FBF2F0A0F110014FF6BA
:104E0000EF72914208D84FF6F071C0F34202236866
:104E100008401044D8603DE001253BE00025FDF747
:104E2000E7FDF0B936E000200125D0B932E0684650
:104E3000FCF74AFE02E06846FCF7DAFE002501981E
:104E400078B927E051F8540C800649F20000C0F20E
:104E5000D03039D4002520B91CE04FF400400025A3
:104E6000C0B1616A45F23042C0F6000232F811105A
:104E70006268B0FBF1F000EB5200B0FBF2F0A0F181
:104E800010014FF6EF72914203D8216880B2C860DA
:104E900000E001254FF00110A0660020C4E91D00CC
:104EA000284603B0F0BD51F8541C0027C1F3C101DE
:104EB000C8402FE751F8541C0025C1F3C101C84078
:104EC00000287FF48BAFE5E751F8541C0025C1F3AF
:104ED000C101C8400028C4D1DCE700000000000088
:104EE0002DE9F04381B004460068C0690840401ACB
:104EF000B0FA80F04009904239D1DDF820800D46AB
:104F00001646994608F1010709E000BF2068C0690C
:104F10002840401BB0FA80F04009B0422BD1002F4E
:104F2000F4D0FCF711F8B8F1000F01464FF0030080
:104F300022D0A1EB090141451ED82068016849072C
:104F4000E4D5C16909071AD4C1690905DED54FF452
:104F5000006101622046FFF7BBFC2020C4F89000EE
:104F6000002084F88400032001B0BDE8F083002015
:104F700001B0BDE8F083002001B0BDE8F083082552
:104F800005622046FFF7A4FCC4F89050002084F886
:104F90008400012001B0BDE8F083000000000000A3
:104FA00080B544F2EC40C2F20540FEF7D9F880BD6E
:104FB000FEE7000000000000002848BF704700F036
:104FC0001F01012202FA01F14EF200124009CEF255
:104FD000000242F8201070474EF60C50CEF200004E
:104FE0000068C0F3022070474EF6145300F00F0221
:104FF000CEF20003B0F1FF3F1A4400F16043C8BF96
:1050000003F56442080110707047000000000000C2
:105010004EF60C514FF6FF03CEF200010A681A401B
:1050200060F30A2242F0806040F0FD700860704733
:1050300080B582B0019044F2EC40C2F2054001A973
:1050400001226423FEF704FB019802B080BD00003A
:1050500082B04FF6FF77FEF72FFEFBF78DFFFBF7D1
:10506000DBF9FFF755FAFEF747FEFEF7E1FFFFF722
:105070003FF8FEF781FEFEF717FC4FF018084FF4DB
:1050800078494FF4FC6B40F21F1AC8A5CCA600BFAC
:105090005C205021F022802346F2D844C0F601045F
:1050A0000094FEF7E9FC6820DC214FF47843A8A2C5
:1050B0000097CDF80480FEF71FFD5C20FC214FF423
:1050C0007843A8A20097CDF80480FEF715FD68206C
:1050D0004FF48E714FF47843A7A20097CDF8048067
:1050E000FEF70AFD78204FF49D714FF47843A7A294
:1050F0000097CDF80480FEF7FFFC4FF47A70FBF7C1
:1051000023FE4FF4FA70FBF71FFE002000214FF43E
:10511000CE724FF4CE730097FEF78EFB4FF47A7089
:10512000FBF712FE0020002128224FF4CE73CDF8A9
:105130000090FEF781FB4FF47A70FBF705FE282004
:10514000002150224FF4CE73CDF800B0FEF774FB6F
:105150004FF47A70FBF7F8FD5020002178224FF4CD
:10516000CE73FF240094FEF767FB4FF47A70FBF7D1
:10517000EBFD78200021A0224FF4CE734FF6E074AF
:105180000094FEF759FB4FF47A70FBF7DDFDB42075
:105190000021C8224FF4CE730097FEF74DFB4FF469
:1051A0007A70FBF7D1FDC8200021F0224FF4CE73B6
:1051B000CDF800A0FEF740FB4FF47A70FBF7C4FD7A
:1051C000F02000214FF48C724FF4CE730024009431
:1051D000FEF732FB4FF47A70FBF7B6FD4FF48C709C
:1051E00000214FF4A0724FF4CE73CDF80090FEF77B
:1051F00023FB4FF47A70FBF7A7FD4FF4A07000215A
:105200004FF4B4724FF4CE73CDF800B0FEF714FB38
:105210004FF47A70FBF798FD4FF4B47000214FF40F
:10522000CE724FF4CE73CDF800A0FEF705FB4FF41D
:105230007A70FBF789FD4FF4FA70FBF785FD0020CB
:105240000021CC22CC23CDF80090FEF7F5FA4FF4E4
:105250007A70FBF779FDCC2000214FF4CE72CC237D
:10526000CDF800B0FEF7E8FA4FF47A70FBF76CFD6A
:105270000020CC21CC224FF4CE73CDF800A0FEF755
:10528000DBFA4FF47A70FBF75FFDCC20CC214FF4B2
:10529000CE724FF4CE730097FEF7CEFA4FF47A70C9
:1052A000FBF752FD4FF47A70FBF74EFD4FF4FA70A6
:1052B000FBF74AFD002000214FF4CE724FF4CE736D
:1052C0000097FEF7B9FA64202821002333A2009743
:1052D000CDF80480FEF710FC56205621F022F02372
:1052E00048F2D834C0F600040094FEF7C5FB6820ED
:1052F0004FF4B47100232A460097CDF80480FEF7DE
:10530000FBFB4FF47A70FBF71FFD4FF4FA70FBF7CD
:105310001BFD002000214FF4CE724FF4CE73CDF868
:1053200000A0FEF789FA4FF47A70FBF70DFD00201C
:1053300000214FF4CE724FF4CE730097FEF77CFA43
:105340004FF47A70FBF700FD304600F041F89FE61D
:10535000312E3435205446545F4C43442054455339
:10536000540000005245534F4C5554494F4E3A3467
:105370003132783431320000445249564552204986
:10538000433A53504432303130000000496E746566
:1053900072666163653A5153504900005A484F4E56
:1053A000474A494E475955414E000000636F6C6FA4
:1053B0007220646570746820323462697400000081
:1053C00075617274207465737420212100000000DF
:1053D000014A024900F013B8315000082C4405245A
:1053E00002E008C8121F08C1002AFAD170477047AE
:1053F000002001E001C1121F002AFBD170472DE9F6
:10540000F04116460F460446002503E03946B047F2
:10541000641C6D1C20780028F8D12846BDE8F08176
:10542000000000000102030401020304060708094A
:10543000010002000400060008000A000C00100031
:10544000200040008000000100000000000000007B
:105450000000000000000000000000080808080824
:10546000080800001818000000486C241200000012
:1054700000000000000000000000002424247F122F
:1054800012127F12121200000000081C2A2A0A0CB5
:105490001828282A2A1C080800000022251515159E
:1054A0002A585454542200000000000C1212120A10
:1054B00076252911916E0000000606040300000005
:1054C0000000000000000000004020101008080844
:1054D00008080810102040000002040808101010EE
:1054E00010101008080402000000000008086B1CDF
:1054F0001C6B0808000000000000000008080808F5
:105500007F080808080000000000000000000000FC
:105510000000000006060403000000000000000078
:10552000FE0000000000000000000000000000007D
:10553000000000000606000000008040402020100F
:10554000100808040402020000000018244242422D
:105550004242424224180000000000080E080808D9
:1055600008080808083E00000000003C42424220B3
:1055700020100804427E00000000003C4242201837
:1055800020404042221C000000000020302824243B
:1055900022227E20207800000000007E0202021AF3
:1055A00026404042221C0000000000382402021A5B
:1055B00026424242241800000000007E22221010E1
:1055C00008080808080800000000003C4242422485
:1055D00018244242423C000000000018244242428B
:1055E00064584040241C000000000000000018180F
:1055F0000000000018180000000000000000000873
:10560000000000000008080400000040201008040A
:1056100002040810204000000000000000007F008D
:1056200000007F00000000000000000204081020BD
:1056300040201008040200000000003C42424640A6
:1056400020101000181800000000001C225A5555A8
:1056500055552D42221C00000000000808181414A3
:10566000243C224242E700000000001F2222221EAA
:1056700022424242221F00000000007C42420101FF
:1056800001010142221C00000000001F2242424290
:1056900042424242221F00000000003F4212121EFE
:1056A00012120242423F00000000003F4212121E4E
:1056B00012120202020700000000003C2222010137
:1056C00001712122221C0000000000E742424242F8
:1056D0007E42424242E700000000003E08080808FF
:1056E00008080808083E00000000007C1010101098
:1056F000101010101010110F0000007722120A0E67
:105700000A121222227700000000000702020202A1
:1057100002020202427F0000000000773636363671
:105720002A2A2A2A2A6B0000000000E346464A4A39
:1057300052525262624700000000001C2241414167
:1057400041414141221C00000000003F42424242D0
:105750003E020202020700000000001C22414141FB
:1057600041414D53321C60000000003F4242423E26
:105770001212222242C700000000007C42420204B2
:1057800018204042423E00000000007F49080808FF
:1057900008080808081C0000000000E742424242D6
:1057A00042424242423C0000000000E742422224C2
:1057B00024141418080800000000006B49494949E6
:1057C0005555362222220000000000E7422424180A
:1057D0001818242442E70000000000772222141445
:1057E00008080808081C00000000007E2120101096
:1057F00008040442423F000000780808080808082E
:1058000008080808080878000000020204040808D4
:105810000810102020204040001E10101010101002
:105820001010101010101E0000384400000000007E
:105830000000000000000000000000000000000068
:1058400000000000000000FF00060800000000004B
:105850000000000000000000000000000000003C0C
:105860004278444242FC0000000000030202021A97
:1058700026424242261A00000000000000000038C4
:1058800044020202443800000000006040404078BA
:105890004442424264D80000000000000000003C86
:1058A000427E0202423C0000000000F08808087EB0
:1058B00008080808083E0000000000000000007C06
:1058C00022221C023C42423C000000030202023A37
:1058D0004642424242E700000000000C0C00000E6D
:1058E00008080808083E00000000003030000038BA
:1058F000202020202020221E00000003020202722D
:10590000120A1612227700000000000E080808088C
:1059100008080808083E0000000000000000007FA2
:105920009292929292B70000000000000000003BAB
:105930004642424242E70000000000000000003CF6
:1059400042424242423C0000000000000000001BB6
:1059500026424242221E020700000000000000789A
:1059600044424242447840E00000000000000077DA
:105970004C040404041F0000000000000000007C30
:1059800042023C40423E0000000000000008083E89
:10599000080808080830000000000000000000634C
:1059A0004242424262DC000000000000000000E7CA
:1059B000422424140808000000000000000000EB4E
:1059C00049495555222200000000000000000076E1
:1059D00024181818246E000000000000000000E7E2
:1059E0004224241418080807000000000000007E6C
:1059F00022100808447E000000C020202020201033
:105A0000202020202020C000101010101010101096
:105A100010101010101010100006080808080810C8
:105A200008080808080806000C32C2000000000040
:105A30000000000000000000000000000000000066
:105A40000000000000000000000000000000000056
:105A50000000000000000000000000000000000046
:105A60000000000000000000000000000000000036
:105A70006000600060006000600060006000400046
:105A800020002000200000000000000060006000F6
:105A900060000000000000000000000060066006DA
:105AA000300398018800440000000000000000005E
:105AB00000000000000000000000000000000000E6
:105AC00000000000000000000000000000000000D6
:105AD0001002100210021002FE07FE070802080161
