:020000040800F2
:10000000B02D0224AD02000891400008913B000889
:100010008940000851040008D9530008000000007E
:100020000000000000000000000000006947000818
:10003000F104000800000000C9400008A1470008C2
:10004000C7020008C7020008C7020008C70200086C
:10005000C7020008C7020008C7020008C70200085C
:10006000C7020008C7020008C7020008C70200084C
:10007000C7020008C7020008C7020008C70200083C
:10008000C7020008C7020008C7020008C70200082C
:10009000C7020008C7020008C7020008C70200081C
:1000A000C7020008C7020008C7020008C70200080C
:1000B000C7020008C7020008C7020008C7020008FC
:1000C000C7020008C7020008C7020008C7020008EC
:1000D000C7020008C9530008C7020008C702000889
:1000E000C7020008C702000800000000C70200089D
:1000F000C7020008C7020008C7020008C7020008BC
:10010000C7020008C7020008C7020008C7020008AB
:10011000C7020008C7020008C7020008A14900087A
:10012000C7020008C7020008C7020008C70200088B
:10013000C7020008C7020008C7020008C70200087B
:1001400000000000000000000000000000000000AF
:10015000C7020008C7020008C7020008C70200085B
:10016000C7020008C7020008C7020008C70200084B
:10017000C7020008C7020008C7020008C70200083B
:10018000C7020008C7020008C7020008C70200082B
:10019000C7020008C7020008C7020008C70200081B
:1001A000C7020008C7020008C7020008C70200080B
:1001B00019450008C7020008C7020008C702000866
:1001C000C7020008C7020008C7020008C7020008EB
:1001D000C7020008C7020008C7020008C7020008DB
:1001E000C7020008C7020008C7020008C7020008CB
:1001F000C7020008C7020008C7020008C7020008BB
:10020000C7020008C7020008C7020008C7020008AA
:10021000C7020008C7020008C7020008C70200089A
:10022000C7020008C7020008B13D00080000000036
:10023000C7020008C702000800000000C70200084B
:10024000C7020008C7020008C7020008C70200086A
:10025000C7020008C7020008C7020008C70200085A
:10026000C7020008C7020008C7020008C70200084A
:10027000C7020008C7020008C7020008000000000B
:10028000C7020008C7020008C702000800000000FB
:1002900000000000C7020008DFF80CD000F098F85A
:1002A00000480047D1A40208B02D02240648804728
:1002B00006480047FEE7FEE7FEE7FEE7FEE7FEE74B
:1002C000FEE7FEE7FEE7FEE7D148000899020008D6
:1002D0002DE9F05F0546002092469B46884606467B
:1002E000814640241BE0284641464746224600F00E
:1002F0005FF853465A46C01A914110D3114618462A
:10030000224600F046F82D1A67EB01084F462246B8
:100310000120002100F03DF817EB00094E41201E9E
:10032000A4F10104DFDC484631462A464346BDE8D5
:10033000F09FD2B201E000F8012B491EFBD27047BA
:100340000022F6E710B513460A4604461946FFF7A1
:10035000F0FF204610BD421C10F8011B0029FBD104
:10036000801A704710B5002200E0521C835C8C5C40
:10037000A34201D1002BF8D1D8B2E1B2401A10BD8E
:10038000034611F8012B00F8012B002AF9D1184679
:100390007047202A04DB203A00FA02F1002070475F
:1003A0009140C2F1200320FA03F3194390407047B3
:1003B000202A04DB203A21FA02F00021704721FABA
:1003C00002F3D040C2F12002914008431946704721
:1003D000064C074D06E0E06840F0010394E8070092
:1003E00098471034AC42F6D3FFF75AFFB44D0908D2
:1003F000D44D090870B58C1810F8015B15F007038F
:1004000001D110F8013B2A1106D110F8012B03E0AD
:1004100010F8016B01F8016B5B1EF9D12B0705D4B5
:100420000023521E0DD401F8013BFAE710F8013BFE
:10043000CB1A921C03E013F8015B01F8015B521E1A
:10044000F9D5A142D8D3002070BD00000000000003
:10045000FEE700000000000070B54EF61450CEF22A
:1004600000000168890312D4BFF34F8FBFF36F8F71
:100470000021C0F83C12BFF34F8FBFF36F8F0168AC
:1004800041F400310160BFF34F8FBFF36F8F0168FC
:10049000C90348BF70BD00210167BFF34F8FC26E13
:1004A00043F6E07CC2F34E31C2F3C90202F1010E01
:1004B000930700BF0CEA41121C46754644EA020647
:1004C000013D04F14044C0F84C62F7D10029A1F18C
:1004D0000101EFD1BFF34F8F016841F4803101601A
:1004E000BFF34F8FBFF36F8F70BD0000000000009F
:1004F0007047000000000000EFF3108072B600BFEC
:10050000FEE70000000000002DE9F041044600F085
:100510003BFD04B3054694F8350002281ED140F295
:10052000B7082068C4F20208012140451ADD40F2F4
:100530005742C4F20202904225DC40F22742C4F244
:10054000020290423ADCB822C4F20202904252D037
:1005500040F210424AE00120BDE8F0818020606551
:1005600001209FE25722C4F2020290421ADD872244
:10057000C4F2020290422ADC5822C4F202029042E3
:1005800039D0702232E040F28742C4F20202904237
:1005900024DC40F25842C4F2020290422BD040F2D6
:1005A000704223E01022C4F20202904223D028229B
:1005B000C4F2020290421ED0402217E040F22842CC
:1005C000C4F20202904216D040F240420EE088226D
:1005D000C4F2020290420ED0A02207E040F288420C
:1005E000C4F20202904206D040F2A042C4F20202DB
:1005F000904240F05C820029016808D021F01E0181
:1006000001602668716921F08001716103E021F0C9
:100610000E010160266840F26F47C4F20207B8423B
:1006200019DC9F21C4F20201884231DC5721C4F257
:100630000201884256DC1021C4F20201884200F017
:1006400091802821C4F20201884200F08B80402171
:10065000C4F2020184E045F22F41C5F6020188424E
:100660002BDC40F2B741C4F20201884248DC40F280
:100670007041C4F20201884274D040F28841C4F251
:10068000020188426ED040F2A041C4F2020167E04C
:1006900040F22741C4F20201884240DCA021C4F2AA
:1006A000020188425ED0B821C4F20201884259D0CA
:1006B00040F21041C4F2020152E045F26B41C5F62E
:1006C000020188423CDC45F23041C5F60201884215
:1006D00048D045F24441C5F60201884242D045F275
:1006E00058413BE05821C4F2020188423AD07021BF
:1006F000C4F20201884235D08821C4F202012FE001
:1007000040F2B841C4F2020188422BD045F20841C0
:10071000C5F60201884225D045F21C411EE040F298
:100720002841C4F2020188421CD040F24041C4F288
:100730000201884216D040F25841C4F202010FE093
:1007400045F26C41C5F6020188420BD045F2944156
:10075000C5F60201884205D045F28041C5F6020186
:1007600088426DD1216E40F20F42C4F202020B6842
:10077000904223F480720A6010DC6F21C4F20201FF
:1007800088421CDC3F21C4F20201884232DC102185
:10079000C4F20201884252D028214AE0B8421ADC51
:1007A00040F23F41C4F2020188422ADC40F210418B
:1007B000C4F20201884242D040F2284139E09F2130
:1007C000C4F20201884225DC7021C4F20201884291
:1007D00035D088212DE040F29F41C4F202018842C9
:1007E0001FDC40F27041C4F20201884227D040F27F
:1007F00088411EE04021C4F2020188421FD05821E6
:1008000017E040F24041C4F20201884217D040F2A2
:1008100058410EE0A021C4F2020188420FD0B82155
:1008200007E040F2B841C4F20201884207D040F22A
:10083000A041C4F20201884208BF206800E020689D
:10084000016821F0010101603068C0070BD000F0A1
:100850009BFB401B0628F7D320206065032084F80B
:10086000350001201EE120680121404513DD40F2E2
:100870005742C4F2020290421EDC40F22742C4F208
:100880000202904233DCB822C4F2020290424BD002
:1008900040F2104243E05722C4F2020290421ADDB5
:1008A0008722C4F2020290422ADC5822C4F20202D9
:1008B000904239D0702232E040F28742C4F2020204
:1008C000904224DC40F25842C4F2020290422BD003
:1008D00040F2704223E01022C4F20202904223D080
:1008E0002822C4F2020290421ED0402217E040F2B9
:1008F0002842C4F20202904216D040F240420EE07A
:100900008822C4F2020290420ED0A02207E040F2F8
:100910008842C4F20202904206D040F2A042C4F2E1
:100920000202904240F0CC800029A16D25D0E26DFA
:100930003F2302F01F0203FA02F28A60B84225DD6B
:1009400045F22F41C5F60201884235DC40F2B7413D
:10095000C4F20201884257DC40F27041C4F2020145
:10096000884200F08F8040F28841C4F20201884240
:1009700000F0888040F2A04180E0E26D012302F0A7
:100980001F0203FA02F24A60B842D9DC9F21C4F286
:100990000201884225DC5721C4F20201884242DC70
:1009A0001021C4F2020188426CD02821C4F2020155
:1009B000884267D0402161E045F26B41C5F60201F3
:1009C00088423CDC45F23041C5F60201884259D0EC
:1009D00045F24441C5F60201884253D045F25841E0
:1009E0003BE040F22741C4F20201884238DCA021FA
:1009F000C4F20201884245D0B821C4F20201884203
:100A000040D040F2104139E040F2B841C4F2020156
:100A1000884237D045F20841C5F60201884231D0FC
:100A200045F21C4119E05821C4F20201884229D044
:100A30007021C4F20201884224D088211EE045F2D0
:100A40006C41C5F6020188421CD045F29441C5F6BE
:100A50000201884216D045F28041C5F602010FE03E
:100A600040F22841C4F2020188420BD040F24041DA
:100A7000C4F20201884205D040F25841C4F202019A
:100A800088420BD1616EA26EE06E4A6030B101689F
:100A900021F480710160D4E91C014160012084F8D7
:100AA00035000020002184F83410BDE8F08140F2C8
:100AB000B841C4F20201411AB1FA81F149099AE53B
:100AC00040F2B841C4F20201411AB1FA81F1490978
:100AD0002AE700000000000080B5D8B190F835107A
:100AE000022919D140F20F420168C4F20202914278
:100AF00016DC6F23C4F20203994226DC3F23C4F2C2
:100B0000020399423CDC1023C4F2020399425AD0FA
:100B1000282354E0012080BD80214165012080BD53
:100B200040F26F43C4F2020399421ADC40F23F43A1
:100B3000C4F2020399422ADC40F21043C4F20203D9
:100B4000994240D040F2284339E09F23C4F2020387
:100B5000994225DC7023C4F20203994233D08823E2
:100B60002DE040F29F43C4F2020399421FDC40F2A1
:100B70007043C4F20203994225D040F288431EE03C
:100B80004023C4F2020399421DD0582317E040F2DB
:100B90004043C4F20203994215D040F258430EE09C
:100BA000A023C4F2020399420DD0B82307E040F21B
:100BB000B843C4F20203994205D040F2A043C4F204
:100BC0000203994270D191424FF0040280F835201F
:100BD00010DC6F22C4F20202914220DC3F22C4F2F8
:100BE0000202914236DC1022C4F20202914254D039
:100BF00028224EE040F26F42C4F2020291421ADC17
:100C000040F23F42C4F2020291422ADC40F210421A
:100C1000C4F20202914240D040F2284239E09F22C1
:100C2000C4F20202914225DC7022C4F20202914217
:100C300033D088222DE040F29F42C4F2020291425A
:100C40001FDC40F27042C4F20202914225D040F211
:100C500088421EE04022C4F2020291421DD0582276
:100C600017E040F24042C4F20202914215D040F235
:100C700058420EE0A022C4F2020291420DD0B822E6
:100C800007E040F2B842C4F20202914205D040F2BD
:100C9000A042C4F20202914224D10068016821F00E
:100CA00001010160002080BD0268136823F00E037B
:100CB000136045F25742C5F6020291420A6822F0DB
:100CC00001020A6014DC45F22F42C5F6020291428D
:100CD0001DDC45F20842C5F6020291422CD045F2D5
:100CE0001C4225E0086820F001000860002080BD5B
:100CF00045F27F42C5F60202914211DC45F25842AC
:100D0000C5F60202914217D045F26C4210E045F25E
:100D10003042C5F6020291420ED045F2444207E04D
:100D200045F29442C5F60202914205D045F2804256
:100D3000C5F6020291421AD1D0E9181CD0E916E397
:100D40000A6822F480720A6003F01F01012202FA8D
:100D500001F1CEF80410816ECCF80410C16E31B1EF
:100D60000A6822F480720A60D0E91C124A600121EC
:100D700080F83510026D002180F834100AB19047D8
:100D80000021084680BD0000B0B5044600F0FCF824
:100D900041F275510546C2F20141621C097818BF43
:100DA0000C4400BF00F0F0F8401BA042FAD3B0BDE5
:100DB00040F22040C5F60000016841F001010160E9
:100DC00070470000000000002DE9F04F83B00C6870
:100DD000002C00F0C68000F1264242F2004702F1EA
:100DE000FF72C5F602074FEAB22201920A22B84208
:100DF00008BF0922002500274FF0010A009209E0F0
:100E00000C68043734FA0AF20AF1010A05F1020506
:100E100000F0A780AAF10109012202FA09FE14EAF2
:100E20000E08EDD0D1F804B00BF00304A4F1010CCE
:100E3000BCF1010F11D803228668AA40CB6826EACC
:100E40000202AB401A4382604268CBF3001322EAED
:100E50000E0203FA09F31A434260032C1ED0032347
:100E6000C268AB40022C22EA03028B6803FA05F346
:100E700042EA0302C26011D16FF0030207F01C06C0
:100E800002EA59020F23024403FA06F4D2F820C002
:100E90000B692CEA0404B340234313620323026862
:100EA000AB404E689A4306F00303AB4016F4403F54
:100EB00042EA03020260A3D044F2F44340F2084E37
:100EC000C5F60203C5F6000E1A6842F002021A6067
:100ED0001A6807F00C0302F002020292029A29F04B
:100EE0000302019C009E092C38BF26460F2452F8AD
:100EF0000EC09C402CEA040406FA03F34FF0B04CF9
:100F0000234342F80E30DCF800204B6842EA080622
:100F1000DC0258BF22EA08069C02CCF8006040F2CE
:100F2000040CC5F6000CDCF8002042EA080658BFA5
:100F300022EA08069C03CCF80060DCF8802042EA34
:100F4000080658BF22EA0806DB03CCF88060DCF80C
:100F50007C2042EA080658BF22EA0806CCF87C60EA
:100F60004EE703B0BDE8F08F002A08BF0904816195
:100F7000704700000000000041F20000C5F600408C
:100F80000068000C7047000041F6A850C2F2024011
:100F9000006870470000000041F2755041F6A8510A
:100FA000C2F20140C2F2024100780A6810440860AF
:100FB000704700000000000080B5032000F064FAD4
:100FC00001F04EFD44F2184140F64413C5F602010B
:100FD000C0F603030A68C2F30322096801F00F0197
:100FE0009A5C595C02F01F02D04041F2C032C2F25A
:100FF000014201F01F0120FA01F1116041F2BC3100
:10100000C2F201410860002000F00AF800281CBF6D
:10101000012080BD00F014FA002080BD0000000017
:10102000B0B541F27551C2F20141097801B30446ED
:1010300041F2BC30C2F201404FF47A72B2FBF1F1DE
:101040000068B0FBF1F002F02BF80F2C4FF0010517
:101050000CD858B94FF0FF3000210022002500F0D5
:1010600003FA41F27850C2F2014004602846B0BD54
:101070000120B0BD0000000068B190F83D100229C9
:101080000BD1042180F83D100068C16821F00101F6
:10109000C1600020704701207047802181660120D7
:1010A0007047000000000000D8B1026801461F230D
:1010B000D06820F00100D0600020D0601061506145
:1010C0009061D0611062506290621063506353600F
:1010D000C1E917004866886681F83D0081F83C0048
:1010E000704701207047000070B582B004460020B0
:1010F000019041F2BC302168C2F2014001F5F86272
:101100004FF0A4430168C2F384101A6822FA00F079
:10111000C0076CD0206848F2B512C1F64E320368A1
:10112000A1FB0216D90720D0C16889071DD5C16867
:1011300021F00201C16081680A064FF0020258BF27
:101140000122A36E8D0542EA0302A2667ED4CA057F
:1011500000F183804A0500F18780090503D5A16E5F
:1011600041F02001A166012141600168C90644BF28
:10117000C1685FEA81613CD420680168090744BF07
:10118000C1685FEAC1613CD420680168490744BF77
:10119000C1685FEA01713CD420680168890744BFD7
:1011A000C1685FEA41713CD4A06E00B3042084F8AA
:1011B0003D002068B10AC26822F00102C26000BF8F
:1011C000019A013201928A4202D8C268D207F7D14D
:1011D000002184F83C10C068C0074FF0030008BF2E
:1011E000012084F83D00616D09B12046884702B0B6
:1011F00070BD10214160A16C0029BDD020468847F8
:10120000BAE708214160E16C0029BDD0204688473B
:10121000BAE704214160216D0029BDD020468847EE
:10122000BAE7C16821F03E01C16094F83D1004297D
:1012300022D1002084F83C00012084F83D00A16DFB
:101240000029D4D02046884702B070BDA26E42F07B
:101250000402A266CA057FF57DAFA26E42F00802C5
:10126000A2664A057FF579AFA26E42F01002A2662F
:1012700009053FF574AF76E702214160002084F84C
:101280003C00012084F83D00616C00293FF48CAFE4
:101290002046884788E70000B0B50446FFF774FE93
:1012A000CCB10546002084F83C00022084F83D00C3
:1012B0002068C16821F00101C16000BF2068C068DA
:1012C000C0070AD0FFF760FE401B0528F6D90120B1
:1012D000032240210AE00120B0BD204602F074FD47
:1012E000002101220020C4E917116166A16684F87B
:1012F0003D20B0BD0000000010B582B0002846D0EF
:10130000044690F83C00012847D0012084F83C00B6
:1013100094F83D0001283DD1022084F83D000020D2
:10132000A066D4F800E0DDF810C0DEF80C0020F074
:101330000100CEF80C002046CDF800C002F094FD6C
:101340002068E16C0029C26842F00601C16003D048
:10135000C16841F01001C160216D19B1C16841F04F
:101360000801C160A16C19B1C16841F02001C160E0
:10137000C16841F00101C1606168B1F1804F03D1E2
:10138000C16841F48031C160002002B010BD01206D
:1013900002B010BD002084F83C00022002B010BD55
:1013A000B0B502784EF69C5CCEF2000C43784CF857
:1013B000043CF2B14368CCF80030037BC17A90F86A
:1013C0000AE0457B447A42EA0372837B42EA016188
:1013D000C27B41EACE41007A41EA854141EA43417C
:1013E00041EA024141EA042141EA4000CCF804000C
:1013F000B0BD0020CCF80000CCF80400B0BD000067
:101400004EF62450CEF20000BFF35F8F016821F446
:10141000803101600021016770470000000000007A
:101420004EF6245140F00100CEF200010867086832
:1014300040F480300860BFF34F8FBFF36F8F704769
:1014400081B044F2F440C5F60200016841F00201A7
:101450000160006800F002000090009801B0704741
:1014600080B503F0BDFF80BD70B514460D4606463D
:1014700003F0C6FF2946224602F00EFE0146304622
:1014800003F0C6FF70BD000080B503F0D5FF80BD3E
:10149000B0B544F60C05C5F6020529684907296868
:1014A00005D401F00701081A18BF0120B0BD21F0D2
:1014B000070108432860FFF767FD044655F8080C4C
:1014C000800407D4FFF760FD001BB0F57A7FF5D9E3
:1014D0000120B0BD0020B0BD70470000000000003A
:1014E00010B5044690F84100800713D5002084F819
:1014F0004000082084F841002068016821F4F811B8
:1015000001600168490707D4816889061AD401205F
:1015100084F84100002010BD016821F00401016041
:10152000E06B44F24921C0F600018165FFF7A4FD9C
:101530000028EFD0012084F841002046FFF7CCFFBF
:10154000002010BD0221C160016841F4003101603A
:10155000016841F002010160002010BD00000000A0
:1015600070470000000000002DE9F04182B0904675
:101570000E460446FFF708FD94F84010012901D1FA
:10158000022535E00746012084F84000022594F842
:101590004100012829D1002060642021002220463A
:1015A0003B4684F84150CDF8008002F07DFF0546AF
:1015B000D8B900222046314602F08AFD706A18B17F
:1015C000012084F8410010E00221012220463B4620
:1015D000CDF8008002264FF0010802F065FF0546B5
:1015E00018B92068C66084F84180002084F8400063
:1015F000284602B0BDE8F0817047000000000000FE
:10160000704700000000000010B5044600688268C2
:10161000510701681AD511F4802317D094F84110AE
:10162000122936D1216800BF8A68520760D5E26A64
:10163000002A59D0616A097880F820102168626A0E
:10164000E36A013262625A1EE262EDE7930736D521
:1016500011F4003333D00221C160016821F4E0218C
:10166000016094F84110122946D10168490709D553
:10167000016821F004010160E06B0068C16821F09D
:101680000101C160012084F84100204600F024FAE5
:1016900010BD94F8411022292AD121688A68520786
:1016A00026D5A26B02B390F82010226B117021682E
:1016B000226BA36B013222635A1EA263EEE713076B
:1016C00023D511F4002320D00821C160016849020C
:1016D00006D5016821F410210160012084F8410041
:1016E000204600F0F5F810BD086820F4802008605E
:1016F0002046FFF785FF10BD94F84110222915D12F
:10170000016849072DD4216852E0D30718BF11F4AE
:10171000803316D1D20608D511F4801108BF10BD50
:101720001021C160204600F0D7F810BD94F8411098
:10173000022921D1012084F841002046FFF710FF43
:1017400010BD0121C160026822F470220260626C47
:1017500042F0020262640268520737D484F84110F2
:1017600049E0016821F004010160E06B0068C16894
:1017700021F00101C16022E094F841100829D4D180
:10178000416921F040614161012084F84100606CB1
:1017900088BB2046FFF7A0FE10BD90F82010226BFA
:1017A00011702168226BA36B013222635A1EA2635F
:1017B000896811F47C5F1CBFA16B0029EDD1012069
:1017C00084F84100204600F07BF810BD016821F04C
:1017D00004010160E06B44F24921C0F6000181651B
:1017E000FFF74AFC0028A0D0606C40F00400606461
:1017F000012084F841002046FFF7FEFE10BD0000E6
:101800002DE9F04182B00446FFF7BEFB24B3054644
:1018100094F8410038B9204600F04EF841F2883182
:10182000204600F051F820686FF0FF06A1684FF0E5
:101830000008A36C026822F4F85206EB0121114360
:10184000016020210022009320462B4602F02CFE4E
:1018500030B102B0BDE8F081012002B0BDE8F081F6
:10186000D4E900124FF62F77D4E903350E68C0F2A1
:10187000FF0737403B43E76943EA0262236A3A4382
:101880001A430A604FF6FE034A68CFF6E0731A4027
:1018900063691A43A36942EA05421A434A600A6827
:1018A00042F001020A60C4F84480012184F841102A
:1018B00002B0BDE8F08100007047000000000000A9
:1018C00070470000000000008164704700000000C5
:1018D000704700000000000070470000000000009A
:1018E0002DE9F04182B090460F460446FFF74CFBCD
:1018F000256894F84010012903D1022002B0BDE808
:10190000F0810646012084F8400094F84100012847
:101910002CD14FF00000606457B3122084F84100CE
:1019200028690130E06228690130A0626762686955
:1019300020F040606861E06A00B300BF042101222A
:1019400020463346CDF8008002F0AEFD60B9616AF2
:10195000097885F82010616AE26A01316162511EDE
:10196000E162E16A0029E9D1B0B909E0022016E09C
:10197000606C40F008006064012010E0002058B95D
:101980000221012220463346CDF80080022502F0D4
:101990008BFD08B92168CD60012184F84110002138
:1019A00084F8401002B0BDE8F081000000000000A3
:1019B00070B582B004460268106994F84030012B7B
:1019C00001D1022582E0012384F8403094F84130AF
:1019D000012B37D12346002543F8445FB9B30130CA
:1019E000E062122084F841000320D060E06AA06227
:1019F000616244F2A9265069C0F6000620F04060FA
:101A00005061E06B40F60C4E466444F28126D0F8FB
:101A100000C0C0F600064665C6698565202E5CF8E4
:101A2000105F25EA0E05CCF8005018D0102E1FD0FC
:101A30003EBBDCF8003040F20336B343002503F12F
:101A4000020E23E00225002084F840003EE0606C96
:101A500040F00800606484F84050012536E0DCF86E
:101A6000003040F20336B343002503F2022E0DE0AE
:101A7000DCF8003040F20336B343002503F5817EE5
:101A800004E01E68012546F0040E9C46CCF800E0F8
:101A90002032A36A01260096FFF72EFC50B1606C3D
:101AA000012540F00400606484F84160002084F85F
:101AB00040000BE0002084F840002068016841F4F9
:101AC00080310160016841F004010160284602B0E4
:101AD00070BD00000000000080B541F67800C2F241
:101AE000014017F0CDFE80BD80B500F069FF44F2E3
:101AF000204140F64412C5F60201C0F6030209680F
:101B0000C1F30211515C01F01F01C84080BD00000B
:101B100080B544F2384EC5F6020E5EF8103C5EF811
:101B2000102CC2F3053C5EF80C2CBCF1000FC2F384
:101B30000012DEF80410C1F3CC0102FB01F100EE4B
:101B4000101AB8EE400A0BD003F00303022B0CD09E
:101B500073B95EF8381C89060DD49FED351A18E06C
:101B60000021C0E90011816080BD9FED301A10E0B6
:101B70009FED2D1A0DE05EF8381C49F20002C0F20C
:101B8000D032C1F3C10122FA01F101EE101AB8EE10
:101B9000411A02EE10CA9FED274AB8EE422ADEF83B
:101BA00000106FF35F2103EE101A81EE021AB8EEF7
:101BB000433ADEF8001000EE043AB7EE000AC1F333
:101BC000462133EE002A03EE101AB8EE433A21EE16
:101BD000021A33EE002A81EE022ABCEEC22A80ED00
:101BE000002ADEF80010C1F3064102EE101AB8EE2A
:101BF000422A32EE002A81EE022ABCEEC22A80ED91
:101C0000012ADEF80010C1F3066102EE101AB8EEE8
:101C1000422A32EE000A81EE000ABCEEC00A10EE43
:101C2000101A816080BD00BF0024744A20BCBE4BE6
:101C30000024744C0000003980B544F2404EC5F6D3
:101C4000020E5EF8183C5EF8182CC2F3055C5EF8D4
:101C5000142CBCF1000FC2F30022DEF80410C1F313
:101C6000CC0102FB01F100EE101AB8EE400A0BD0D5
:101C700003F00303022B0CD073B95EF8401C8906F5
:101C80000DD49FED351A18E00021C0E900118160E4
:101C900080BD9FED301A10E09FED2D1A0DE05EF82B
:101CA000401C49F20002C0F2D032C1F3C10122FA55
:101CB00001F101EE101AB8EE411A02EE10CA9FEDC2
:101CC000274AB8EE422ADEF800106FF35F2103EED8
:101CD000101A81EE021AB8EE433ADEF8001000EE58
:101CE000043AB7EE000AC1F3462133EE002A03EEB0
:101CF000101AB8EE433A21EE021A33EE002A81EEB2
:101D0000022ABCEEC22A80ED002ADEF80010C1F3E0
:101D1000064102EE101AB8EE422A32EE002A81EE97
:101D2000022ABCEEC22A80ED012ADEF80010C1F3BF
:101D3000066102EE101AB8EE422A32EE000A81EE77
:101D4000000ABCEEC00A10EE101A816080BD00BF10
:101D50000024744A20BCBE4B0024744C000000399F
:101D60002DE9F04381B00446C07844F22C490007C5
:101D7000C5F6020901D400252EE0A06E4FEA3050CE
:101D800003280DD80025DFE800F0020E1714D9F85B
:101D90000000002540F40030C9F8000055B913E0F8
:101DA00001253DB910E004F10800022102F0BCFB5E
:101DB00005464DB1A84611E004F12800022102F0C9
:101DC00043FC0546002DF5D1D9F82400A16E20F47E
:101DD00040100843C9F824004FF000086078C0079D
:101DE00030D0A06D042807D8DFE800F00A131C03E8
:101DF0000300FDB1A84625E00125002DFAD119E028
:101E0000D9F8000040F40030C9F80000002DF1D1ED
:101E100010E004F10800002102F086FB0546002DC9
:101E2000E8D107E004F12800002102F00DFC05468E
:101E3000002DDFD1D9F82400A16D20F00700084360
:101E4000C9F824006078800732D5E06D4FEAB01001
:101E5000042807D8DFE800F00A131C030300FDB1D3
:101E6000A84625E00125002DFAD119E0D9F8000097
:101E700040F40030C9F80000002DF1D110E004F169
:101E80000800002102F050FB0546002DE8D107E0D4
:101E900004F12800002102F0D7FB0546002DDFD118
:101EA000D9F82400E16D20F4E0700843C9F824005B
:101EB0006078400734D5D4F8A8004FEA7050042861
:101EC00007D8DFE800F00A131C030300FDB1A846A1
:101ED00026E00125002DFAD119E0D9F8000040F4E0
:101EE0000030C9F80000002DF1D110E004F1080025
:101EF000002102F019FB0546002DE8D107E004F1AE
:101F00002800002102F0A0FB0546002DDFD1D9F802
:101F10002C00D4F8A81020F460000843C9F82C0065
:101F20006078000734D5D4F8AC004FEA306004285C
:101F300007D8DFE800F00A131C030300FDB1A84630
:101F400026E00125002DFAD119E0D9F8000040F46F
:101F50000030C9F80000002DF1D110E004F10800B4
:101F6000002102F0E1FA0546002DE8D107E004F176
:101F70002800002102F068FB0546002DDFD1D9F8CA
:101F80002C00D4F8AC1020F0E0600843C9F82C0015
:101F9000E078800728D5E06C4FEA3010032806D897
:101FA000DFE800F002091202B5B1A8461CE00125E5
:101FB000002DFAD110E0D9F8000040F40030C9F843
:101FC0000000002DF1D107E004F10800022102F029
:101FD000ABFA0546002DE8D1D9F82000E16C20F0DD
:101FE00030000843C9F820006078C00632D5206E62
:101FF0004FEA3030042807D8DFE800F00A131C034A
:102000000300FDB1A84625E00125002DFAD119E015
:10201000D9F8000040F40030C9F80000002DF1D1DB
:1020200010E004F10800002102F07EFA0546002DC0
:10203000E8D107E004F12800002102F005FB054685
:10204000002DDFD1D9F82400216E20F4E0400843B0
:10205000C9F824006078800626D5606E4FEA3040CB
:10206000052807D8DFE800F0030A100303039DB139
:10207000A84619E00125002DFAD10DE004F1080071
:10208000012102F051FA04E004F12800012102F0DC
:10209000DBFA0546002DEBD1D9F82400616E20F45F
:1020A000E0200843C9F824006078400628D5D4F819
:1020B000B0004FEA3070052807D8DFE800F0030AC7
:1020C000100303039DB1A8461AE00125002DFAD1A3
:1020D0000DE004F10800012102F026FA04E004F109
:1020E0002800012102F0B0FA0546002DEBD1D9F805
:1020F0002C00D4F8B01020F0E0400843C9F82C00C0
:102100006078000620D5206FD8B1B0F1005F12D002
:10211000B0F1805F25D1D9F8000040F40030C9F853
:10212000000085B9D9F82400216F20F04050084301
:10213000C9F8240008E004F10800012102F0F4F9D4
:102140000546002DEED0A846E078C0072AD0A06C46
:1021500003280AD8DFE800F0020D1602D5B1A84620
:1021600020E00125002DEED1DCE70125002DF6D180
:1021700010E0D9F8000040F40030C9F80000002D4C
:10218000EDD107E004F10800022102F0CDF9054687
:10219000002DE4D1D9F82000A16C20F00300084301
:1021A000C9F82000A078400642D5D9F8D40340F4FD
:1021B0008070C9F8D403FEF7E7FE0646D9F8D403C9
:1021C000C00505D4FEF7E0FE801B6528F6D3032585
:1021D0006DBBD9F84410D4F8B400414011F4407FED
:1021E00011D0D9F84410D9F8442042F48032C9F80B
:1021F0004420D9F8442021F4407122F48032C9F8F7
:102200004420C9F84410B0F5807F0FD1FEF7BCFE22
:10221000064641F2893700BFD9F84400800705D44B
:10222000FEF7B2FE801BB842F6D3032585B1A8465F
:102230002078C00742D0E06F4FEAF000052823D88D
:10224000DFE800F003262C0303037DB3A84635E046
:102250004FF6CF73D4F8B40059F81C2CC0F2FF032A
:1022600000F4407122F47C5203EA1013B1F5407F70
:1022700008BF1A436FF31F3049F81C2CD9F84410DB
:102280000843C9F84400D3E70125002DDED10DE055
:1022900004F10800012102F047F904E004F12800EC
:1022A000012102F0D1F90546002DCFD1D9F828003F
:1022B000E16F20F038000843C9F828002078800733
:1022C00024D5A06F052807D8DFE800F0030A100323
:1022D00003039DB1A84619E00125002DFAD10DE0B8
:1022E00004F10800012102F01FF904E004F12800C4
:1022F000012102F0A9F90546002DEBD1D9F82800FB
:10230000A16F20F007000843C9F828002078400793
:1023100026D5D4F89400052807D8DFE800F0030A92
:10232000100303039DB1A8461AE00125002DFAD140
:102330000DE004F10800012102F0F6F804E004F1D8
:102340002800012102F080F90546002DEBD1D9F8D3
:102350002C00D4F8941020F007000843C9F82C0092
:102360002078800628D5D4F890004FEA30700528F0
:1023700007D8DFE800F0030A100303039DB1A84665
:102380001AE00125002DFAD10DE004F1080000212A
:1023900002F0CAF804E004F12800022102F054F926
:1023A0000546002DEBD1D9F82800D4F8901020F084
:1023B000E0400843C9F828002078400628D5D4F822
:1023C0009C004FEAB020052807D8DFE800F0030A98
:1023D000100303039DB1A8461AE00125002DFAD190
:1023E0000DE004F10800002102F09EF804E004F181
:1023F0002800022102F028F90546002DEBD1D9F87A
:102400002C00D4F89C1020F4E0500843C9F82C00AC
:102410002078000628D5D4F8A0004FEA70300528AF
:1024200007D8DFE800F0030A100303039DB1A846B4
:102430001AE00125002DFAD10DE004F10800002179
:1024400002F072F804E004F12800022102F0FCF826
:102450000546002DEBD1D9F82C00D4F8A01020F4BB
:1024600060400843C9F82C002078000716D5D4F83E
:102470008400B0F5805F08D104F12800022102F049
:10248000E3F8002818BF4FF00108D9F82800D4F865
:10249000841020F440500843C9F828002078C00672
:1024A00016D5D4F89800B0F5807F08D104F1280043
:1024B000022102F0C9F8002818BF4FF00108D9F82E
:1024C0002C00D4F8981020F440700843C9F82C0070
:1024D000A078000722D5D4F8A400B0F5003F1AD0A8
:1024E000B0F5803F11D0C8BB04F10800002102F014
:1024F0001BF805468DB9D9F82C00D4F8A41020F4A7
:1025000040300843C9F82C0008E004F128000221FB
:1025100002F09AF80546002DEDD0A846A0784007B5
:1025200029D5D4F88800B0F5401F21D0B0F5001FA0
:1025300018D0B0F5801F40F0BF80D9F8000040F4FB
:102540000030C9F80000ADB9D9F82800D4F88810D7
:1025500020F440100843C9F828000CE00125002DA4
:10256000DBD1C8E704F12800012102F06DF805462F
:10257000002DE9D0A846A078C00720D0206DB0F586
:10258000803F10D0B8B9D9F8000040F40030C9F845
:1025900000009DB9D9F82000216D20F48030084357
:1025A000C9F820000BE004F10800022101F0BCFF93
:1025B00005461DB9EEE70125002DEBD0A846E078D1
:1025C000800608D504F12800022102F03DF8002819
:1025D00018BF4FF00108D4E900108A037BD5D4F866
:1025E00080206FF0010303EB3223022B0AD34FEA62
:1025F00032233BB1012B64D1D9F8003043F40033CE
:10260000C9F80030002D5FD0CA0267D4CA006FD469
:102610008A0279D44A0000F18280B1F1FF3F40F391
:102620008F80090200F19780C00707D004F10800ED
:10263000002101F079FF002818BF054620798007A6
:1026400007D504F10800012101F06EFF002818BF32
:1026500005462079400707D504F10800022101F062
:1026600063FF002818BF05462079000707D504F14D
:102670002800002101F0E8FF002818BF0546207956
:10268000C00607D504F12800012101F0DDFF002874
:1026900018BF05462079800607D504F128000221DD
:1026A00001F0D2FF002818BF0125002D18BF012519
:1026B000284601B0BDE8F0830125002D7FF45AAF14
:1026C00042E70125002D9FD1D9F8283023F440732B
:1026D0001A43C9F828204546CA0297D5D9F82420BC
:1026E000636F22F000421A43C9F82420CA008FD534
:1026F00059F81C2CD4F8B83022F480421A4349F817
:102700001C2C8A027FF586AFD9F82420E36E22F0D4
:1027100080721A43C9F824204A007FF57EAF59F829
:102720001C2C22F4004249F81C2CD4F8BC2059F887
:102730001C3C1A4349F81C2CB1F1FF3F3FF771AF25
:10274000D9F82020636D22F040521A43C9F82020A6
:1027500009027FF569AFD9F82810D4F88C2021F44C
:1027600040011143C9F82810C0077FF45FAF65E747
:102770002DE9F04381B0002800F0F28042F2000819
:102780000446C5F200288946D8F8000000F00F0082
:1027900088420ED2D8F8000020F00F0040EA09006D
:1027A000C8F80000D8F8000000F00F00484540F0DD
:1027B000D780206844F218474107C5F602070AD5BA
:1027C00021693A6802F07002914204D93A6822F015
:1027D00070021143396001070AD561697A6802F015
:1027E0007002914204D97A6822F070021143796034
:1027F000C1060AD5A1697A6802F4E062914204D95F
:102800007A6822F4E0621143796081060AD5E169B1
:10281000BA6802F07002914204D9BA6822F07002DC
:102820001143B96081070AD5E1683A6802F00F02E6
:10283000914204D93A6822F00F0211433960C0076F
:102840007ED1206881070AD5E1683A6802F00F025C
:10285000914204D23A6822F00F0211433960D8F84D
:10286000001001F00F0149450DD9D8F8001021F0F2
:102870000F0141EA0901C8F80010D8F8001001F072
:102880000F0149456CD141070AD521693A6802F028
:102890007002914204D23A6822F07002114339600A
:1028A00001070AD561697A6802F07002914204D288
:1028B0007A6822F0700211437960C1060AD5A169D5
:1028C0007A6802F4E062914204D27A6822F4E0620B
:1028D0001143796080060AD5E069B96801F070019A
:1028E000884204D2B96821F070010843B86000F052
:1028F000B7F8396840F64412C0F60302C1F3032169
:102900003B6803F00F03515CD25C01F01F01C8402B
:1029100002F01F0141F2C03220FA01F1C2F201427D
:10292000116041F2BC3141F27852C2F20141C2F26F
:10293000014208601068FEF773FB01B0BDE8F08348
:10294000386820F47061D4E90102032841EA0201E9
:10295000396009D0022829D157F8181C890307D4F7
:10296000012001B0BDE8F08357F8181C8901F7D5A4
:1029700057F8081C21F00701084347F8080CFEF738
:1029800003FB064641F2883557F8080C616800F0F1
:102990003800B0EBC10F3FF454AFFEF7F5FA801BDF
:1029A000A842F1D9032001B0BDE8F083012857F80F
:1029B000181C02D1C905D3D5DAE74907D0D5D7E726
:1029C00080B500F04DF844F2184140F64413C5F6C6
:1029D0000201C0F603030A68C2F30322096801F08A
:1029E0000F019A5C595C02F01F0220FA02F201F01A
:1029F0001F0041F2C03122FA00F0C2F2014108602A
:102A000041F2BC31C2F201410A6080BD0000000009
:102A100080B5FFF7D5FF44F21C4140F64412C5F6DD
:102A20000201C0F603020968C1F30211515C01F012
:102A30001F01C84080BD000080B5FFF7C1FF44F210
:102A40001C4140F64412C5F60201C0F603020968B3
:102A5000C1F30221515C01F01F01C84080BD00009C
:102A600044F20041C5F602010869C0F3C200032820
:102A70000FD002282BD078BB0868800649F20000EE
:102A8000C0F2D03058BF70470968C1F3C101C840D7
:102A900070478A6A886AC0F3051CCB6A486B03F0EA
:102AA0000103BCF1000FC0F3CC0003FB00F000EE0B
:102AB000100AB8EE400A14D002F00302022A12D023
:102AC000A2B90868800614D49FED251A1EE047F6C7
:102AD0004000C0F27D10704740F60010C0F23D008B
:102AE0007047002070479FED1D1A0FE09FED1A1AE6
:102AF0000CE0086849F20002C0F2D032C0F3C10015
:102B000022FA00F001EE100AB8EE411A02EE10CAE5
:102B10009FED144AB8EE422A086B6FF35F2003EE74
:102B2000100A81EE021AB8EE433A086B00EE043A3E
:102B3000B7EE000AC0F34620013033EE000A21EE62
:102B4000000A01EE100AB8EE411A80EE010ABCEE4E
:102B5000C00A10EE100A70470024744A20BCBE4B15
:102B60000024744C000000392DE9F041002800F0E9
:102B70005F810446007844F20046C007C5F60206AD
:102B80004AD0306900F03801B06A102905D0182900
:102B90000AD100F00300022806D13068800337D53F
:102BA0006068A8BB012726E065686DB1B5F5803F78
:102BB00006D0B5F5A02F306807D140F480203060F2
:102BC000306840F4803006E0306820F480303060B7
:102BD000306820F480203060FEF7D6F9002D0546DD
:102BE00013D000BF3068800312D4FEF7CDF9401B2C
:102BF0006428F7D903270020002800F030820BE07A
:102C0000FEF7C2F9401B6428F4D830688003F7D47B
:102C10000120002800F023822078800768D53069E1
:102C200010F03801B06A18D0182908BF5FEA807028
:102C300013D0E0683168C8B321F01901084330604F
:102C4000FEF7A2F9054600BF306840071FD4FEF723
:102C50009BF9401B0228F7D936E03068400703D5BE
:102C6000E068002800F076813068E16820F0190003
:102C700008433060FEF788F9054600BF306840071A
:102C800005D4FEF781F9401B0228F7D91CE0FEF7B6
:102C900073F941F2030188421CD820697168402809
:102CA00021F47C311DD141F400301CE021F0010001
:102CB0003060FEF769F905463068400714D5FEF725
:102CC00063F9401B0328F7D303270020002800F0F6
:102CD000C6810DE07068216920F0FE4040EA016085
:102CE00001E041EA003070600120002800F0B78167
:102CF0002078C00659D5306900F03801B06A08293B
:102D000005D0182918D100F00300012814D130682B
:102D1000C00502D5E069802842D1FEF72DF941F2C5
:102D2000030188421BD8206A7168202821F0F841ED
:102D30002ED141F080402DE0E0690028306816D0A7
:102D400040F080003060FEF71FF905463068C0058E
:102D5000E3D4FEF719F9401B0228F7D916E0F06812
:102D6000216A20F07C5040EA0160F06013E020F01E
:102D700080003060FEF708F9054600BF3068C005E6
:102D800009D5FEF701F9401B0328F7D3032708E014
:102D900041EA806070600120002800F0608104E05A
:102DA00001270020002800F05A812078000743D432
:102DB0002078800653D42078400764D4656A9DB398
:102DC000306900F03800182840F0A480012DB16A65
:102DD000306B2DD001F00302A36A9A4228D1C1F3CF
:102DE0000511E26A914223D10146226B6FF35F2104
:102DF000013A91421CD1C0F34621626B013A9142E3
:102E000016D1C0F30641A26B013A914210D1C0F332
:102E10000660E16B013988420AD1706BC0F3CC00C7
:102E2000A16C814240F01E810027F8B2BDE8F0811C
:102E30000127F8B2BDE8F08160690028706F38D0D2
:102E400040F001007067FEF79FF80546706F80073D
:102E5000AED4FEF799F8401B0228F7D925E0A06907
:102E60000028306845D040F480503060FEF78CF880
:102E7000054600BF306880049DD4FEF785F8401BEE
:102E80000228F7D911E0D6F8000440F48070C6F8A3
:102E90000004FEF779F80546D6F80004C00519D4F9
:102EA000FEF772F8401B6428F6D90327F8B2BDE894
:102EB000F08120F001007067FEF766F805460327F1
:102EC000706F80077FF574AFFEF75EF8401B022835
:102ED000F6D9C4E0A568002D3ED0012D05D0052D02
:102EE000306F3AD140F004003067306F40F001009D
:102EF00039E020F480503060FEF746F8054603279D
:102F0000306880047FF557AFFEF73EF8401B02287B
:102F1000F6D9A4E0306820F080703060FEF734F815
:102F2000022D05464FF003070AD100BF306880012B
:102F300037D5FEF729F8401B0228F7D98FE000BFEC
:102F4000306880017FF570AFFEF71EF8401B022845
:102F5000F6D984E00127B8E6306F20F00100306731
:102F6000306F20F004003067FEF70EF8002D0546A4
:102F700041F288384FF003070FD000BF306F800751
:102F80003FF51CAFFEF700F8401B4045F6D966E060
:102F9000FDF7FAFF401B404561D8306F8007F7D43A
:102FA0000CE704F12807B06A40F2F33188438ECF72
:102FB0000843591E40EA02104FF47E42B06202EB11
:102FC00047206FF35F214FF4FE0280B2E36B0844A9
:102FD000A16B02EB01414FF0FE4201F4FE0102EB56
:102FE0000362084402F0FE4108443063F06A4FF681
:102FF000F87120F00100F062706BA26C884340EA27
:10300000C2007063F06A216C20F00C000843F0628B
:10301000F06A616C20F002000843F062F06A40F44C
:103020008030F062F06A40F40030F062F06A40F400
:103030008020F062F06A40F00100F062306840F0F9
:1030400080703060FDF7A0FF0446032730688001E0
:103050003FF5EAAEFDF798FF001B0228F6D9F8B25B
:10306000BDE8F081F06A20F00100F062FDF78CFF0E
:103070000546FDF789FFA842FBD0706B4FF6F8714B
:10308000A26C8843002740EAC2007063F06A40F0F7
:103090000100F062F8B2BDE8F0810000000000001D
:1030A00080B501F065FB80BD7047000000000000A6
:1030B00070470000000000007047000000000000A2
:1030C000B0B590F83C20012A4FF002025CD00123F9
:1030D00080F83C3080F83D2040F2004C0268C4F299
:1030E000010C42F4806363455368D2F808E002BFE4
:1030F00023F470034C68234341F2FF740D68C4F25B
:10310000000423F07003A24243EA050353600BDC82
:1031100040F2FF73C4F200039A4215DCB2F1804F13
:1031200027D040F2004317E040F2FF33C4F201031E
:103130009A4216DC41F60003C4F200039A4218D00A
:103140000023C4F2010309E040F60003C4F20003C7
:103150009A420ED040F60043C4F200039A4208D0CF
:103160000CE044F20003C4F201039A4201D062452C
:1031700004D12EF080038968194391600022012157
:1031800080F83D1080F83C201046B0BD00000000E3
:1031900060B310B5044690F83D0028B9002084F8CB
:1031A0003C00204600F024F8022084F83D0020680E
:1031B000211D01F0FDFB012084F8480084F83E0049
:1031C00084F83F0084F8400084F8410084F842000D
:1031D00084F8430084F8440084F8450084F84600ED
:1031E00084F8470084F83D00002010BD012070479E
:1031F00080B582B041F200410068C4F2000188420B
:1032000001D002B080BD44F2E8400022C5F60200C1
:10321000016841F0200101600068002100F02000F9
:10322000019001983720FEF71FF93720FEF718F9B3
:1032300002B080BD0000000090F83D1001291BD1B4
:10324000022180F83D10016841F2FF70C4F20000D5
:103250008142C86840F00100C8600FDC40F2FF7096
:10326000C4F20000814217DCB1F1804F2BD040F254
:103270000040C4F2000024E00120704740F2FF301B
:10328000C4F20100814212DC41F60000C4F20000E9
:10329000814218D0002012E040F60000C4F2000085
:1032A000814210D040F60040C4F2000009E044F230
:1032B0000000C4F20100814205D040F20040C4F297
:1032C000010081420BD107228868C0F2010202404E
:1032D0000020062A18BFB2F5803F00D17047086869
:1032E00040F001000860002070470000000000006E
:1032F000704700000000000010B504460068016936
:10330000890744BFC1685FEA817140D420680169C0
:10331000490744BFC1685FEA417144D4206801692C
:10332000090744BFC1685FEA017149D42068016997
:10333000C90644BFC1685FEAC1614DD42068016914
:10334000C9071CBFC1685FEAC17152D12068016919
:10335000090644BFC1685FEA016151D42068016970
:10336000C90544BFC1685FEA016150D420680169A2
:10337000490644BFC1685FEA41614FD420680169D2
:10338000890644BFC1685FEA81614ED410BD6FF009
:103390000201016101212177806980074CD020461C
:1033A000FFF7A6FF4EE06FF00401016102212177D3
:1033B000806910F4407F48D02046FFF799FF4AE02B
:1033C0006FF00801016104212177C069800745D0B1
:1033D0002046FFF78DFF47E06FF0100101610821E3
:1033E0002177C06910F4407F41D02046FFF780FF6D
:1033F00043E06FF001010161204600F049F8A5E7C4
:103400006FF0800101612046FFF752FEA6E76FF4DE
:10341000807101612046FFF747FEA7E76FF040018A
:103420000161204600F050F8A8E76FF0200101612B
:103430002046FFF741FE10BD204600F021F820464F
:1034400000F022F80020207760E7204600F018F80E
:10345000204600F019F8002020775FE7204600F0B2
:103460000FF8204600F010F8002020775EE7204695
:1034700000F006F8204600F007F8002020775DE70E
:1034800070470000000000007047000000000000CE
:1034900080B541F680210068C2F201410968884286
:1034A00018BF80BD03A02DF03BFA022026F080F962
:1034B00080BD00BF74696D20656E74657220212126
:1034C0000D00000000000000704700000000000038
:1034D00090F88410012901D1022070472421C0F8FE
:1034E000881002681368116823F0005321F001016D
:1034F00011600021416613602022C0F8882080F806
:10350000841008467047000070470000000000006B
:103510007047000000000000B0B5044690F8840039
:10352000012801D10220B0BD012084F884002420AC
:10353000C4F8880020680568026822F00102026071
:10354000826822F0606211438160204601F0D0FA67
:10355000206805602020C4F88800002084F88400DA
:10356000B0BD000000000000B0B5044690F8840033
:10357000012801D10220B0BD012084F8840024205C
:10358000C4F8880020680568026822F00102026021
:10359000826822F0604211438160204601F0A8FA5F
:1035A000206805602020C4F88800002084F884008A
:1035B000B0BD0000000000007047000000000000E7
:1035C000704700000000000070470000000000008D
:1035D000B0B50368044640F62F00D9691D6808405D
:1035E000D3F808E020280CD105F020020EF080501E
:1035F000801806D0616F002900F0B380204688470C
:10360000B0BD40F60F00084000F09280012040F26B
:103610002012C1F20000C0F200420EEA000C05EADE
:10362000020010EB0C0000F08380C80718BF15F4EF
:10363000807007D001201862D4F8900040F001009B
:10364000C4F8900088070EF0010208D53AB10220B4
:103650001862D4F8900040F00400C4F890004807C5
:1036600008D53AB104201862D4F8900040F0020066
:10367000C4F8900008070CD505F0200050EA0C00B3
:1036800007D008201862D4F8900040F00800C4F871
:10369000900008050BD515F0806008D04FF400604D
:1036A0001862D4F8900040F02000C4F89000D4F8DC
:1036B0009000002855D011F0200009D005F020001E
:1036C0000EF08051401803D0616F09B12046884741
:1036D0002068D4F89010806801F0280100F04000C4
:1036E000401800F0AE80204601F006FB206880689C
:1036F000400640F1968000BF206850E8020F216824
:1037000020F0400041E80202002AF5D1D4F8800000
:10371000002800F0868044F6E141C0F60001016512
:10372000FDF7DAF9E8B1D4F88000016D8847B0BD43
:1037300005EA010CE26E5FEACC603ED5012A3CD17D
:10374000102018629868400643D4B4F85C00B4F8BE
:103750005E10B4F85E20002A1CBF401A5FEA0041E8
:1037600000D1B0BD216851E8001F226821F490719A
:1037700042E80013002BF5D14FF6FE71CEF6FF7133
:10378000226852E8022F23680A4043E80225002DF0
:10379000F6D12021C4F88C100021E166616700BFDA
:1037A000216851E8001F226821F0100142E800134F
:1037B000002BF5D102212167F9E0C80224D51EF4BF
:1037C000800021D04FF4801018622046FFF7F8FEE9
:1037D000B0BDD4F8800040F20F42C4F2020201688A
:1037E000914235DC6F22C4F20202914249DC3F2251
:1037F000C4F2020291426ADC1022C4F20202914237
:1038000000F08880282281E008060ED505F08000AF
:103810000EF40002801808D0A16F00297FF4EEAEEC
:103820009FE72046FFF7D0FEB0BD5FEA4C6024D48E
:10383000080241D515F080403ED02046FFF7BCFE7F
:10384000B0BD2046FFF7C0FE0020C4F89000B0BD18
:1038500040F26F42C4F2020291421EDC40F23F424B
:10386000C4F20202914239DC40F21042C4F2020278
:1038700091424FD040F2284248E0204601F06CFAD5
:10388000B0BD9F22C4F20202914230DC7022C4F229
:10389000020291423ED0882238E040F29F42C4F2B8
:1038A000020291422ADC40F27042C4F202029142CA
:1038B00030D040F2884229E0C8017FF552AFB5F11F
:1038C000FF3FC8BFB0BD2046FFF722FEB0BD40227B
:1038D000C4F2020291421DD0582217E040F2404249
:1038E000C4F20202914215D040F258420EE0A022EA
:1038F000C4F2020291420DD0B82207E040F2B84271
:10390000C4F20202914205D040F2A042C4F2020287
:10391000914202D1D4F880100968043109688AB252
:10392000002A3FF41EAFB4F85C309A42BFF419AFDE
:10393000A4F85E10C069B0F5807F31D0206850E8EF
:10394000000F216820F4807041E80002002AF5D1C0
:10395000206850E8020F216820F0010041E80202CF
:10396000002AF5D1206850E8020F216820F04000BD
:1039700041E80202002AF5D12020C4F88C00002082
:10398000E06600BF206850E8000F216820F01000BA
:1039900041E80002002AF5D1D4F88000FCF7B4FD1C
:1039A00002202067B4F85C00B4F85E10401A81B2BF
:1039B0002046FFF7A9FDB0BD10B5B0B10446D0F860
:1039C000880028B9002084F88400204600F028F8F8
:1039D0002420C4F888002068016821F001010160FA
:1039E000204601F0CDF9012801D1012010BDA06AC7
:1039F00010B1204601F0A8F82068416821F49041F8
:103A00004160816821F02A018160016841F0010173
:103A10000160204601F008F910BD00000000000020
:103A2000B0B5B8B0044602A8C0210025CDE936558E
:103A3000CDE934553395FCF783FC41F20001206851
:103A4000C4F20101884201D038B0B0BD012002901B
:103A500002A803952195FEF783F908B1FCF74CFD08
:103A600044F2E040C5F60200016941F01001016135
:103A7000016901F0100101910199016841F0010112
:103A80000160006833A900F00100019001984FF433
:103A9000C0603390022034900020CDE9350007202B
:103AA00037900020C5F60200FDF78EF9252002218F
:103AB0000022FDF7D9FC2520FDF7D2FC38B0B0BDBF
:103AC0002DE9F04182B00446D0F8880020283FD18B
:103AD0000E4600294FF001004BD01746002A48D06F
:103AE0001D464FF00008C4F890802120C4F88800DB
:103AF000FDF74AFAA4F85470A4F856700746A16876
:103B0000B1F5805F0FD12069002814BF3046B04660
:103B1000064608E0206816F8011B8162B4F85600DA
:103B20000138A4F85600B4F85600A8B1802100224C
:103B300020463B46009501F0E7FBE8B9002EE9D1AD
:103B400038F8020B216800266FF35F208862E5E7F2
:103B5000022002B0BDE8F0814021002220463B4611
:103B6000009501F0D1FB20210028C4F8881018BF6F
:103B7000032002B0BDE8F0812020C4F888000320B3
:103B800002B0BDE8F08100007047000000000000B6
:103B9000FEE7000000000000B0B541F2A45332255A
:103BA000C2F201430002144641F288321D6041F224
:103BB000DC55C2F2014558604FF4807098614FF4B3
:103BC0008060D8614FF0407058629962284619466B
:103BD000FDF7CAFC41F2883228462146FDF780FEF7
:103BE000B0BD000000000000B0B541F2A453322582
:103BF000C2F201430002144641F288321D6041F2D4
:103C0000DC55C2F2014558604FF4807098614FF462
:103C10008060D8614FF0407058629962284619461A
:103C2000FDF7A2FC28462146FDF7C2FEB0BD00000C
:103C300080B582B04FEA102C8DF80500100A8DF87F
:103C400006008DF80720080A8DF80000180A8DF884
:103C5000011001AA8DF802002A2004218DF804C069
:103C60008DF80330FFF798FF6A462B200421FFF7F9
:103C700093FF02B080BD0000F0B581B01D46131A5D
:103C80000226069C06EB43062B46C1F10107FFF70F
:103C9000CFFF2C2000F068F8EFF3138071B64EF6DA
:103CA0006871BFF34F8F0020CEF2000100F1105277
:103CB0002030B0F5C83F0A60F8D178192246BFF32A
:103CC0004F8FBFF36F8F06FB00F13C20FFF78CFF97
:103CD00061B601B0F0BD0000B0B540F600040221AD
:103CE000C5F6020401222046FDF73EF90A20FDF741
:103CF0004BF8022100222046FDF736F96420FDF73B
:103D000043F8022101222046FDF72EF97820FDF725
:103D10003BF84FF64864C2F20044617CFF2908BFBB
:103D2000B0BD0020002510E004EB420201F01F01AD
:103D30000132FFF731FF0135A8B2C10011FA85F158
:103D400004EB4101497CFF290BD000EBC0020B06BC
:103D500014F81200E8D500F007F87820FDF714F801
:103D6000E9E7B0BD0000000080B541F2A451022295
:103D7000C2F2014100020A604FF4807248604FF4C1
:103D80000050C8600020C1E904008A614FF48062DD
:103D9000CA6141F28832C1E90900C1E90B004863F8
:103DA00041F2DC50C2F20140FDF7DEFB80BD0000B5
:103DB00080B541F2DC50C2F20140C06BFDF794F9CE
:103DC00080BD00000000000070B590E80250D0E90E
:103DD00003231A43CA60D0E9052300F120061A43E1
:103DE000C369BCF1804F42EA030278CE42EA030283
:103DF000036B42EA040240F2000442EA0602CFF6F4
:103E0000FC7442EA030204EB854342EA0E0242EAF2
:103E100003020A6103D10A6942F040420A610022AA
:103E20004A61436BB3F1FF3F04DC4A695B4242F4F1
:103E300080224A619AB20A62806BB0F1FF3F01DDD5
:103E4000000406E04A69002342F400224A61A3EB21
:103E500000400A6A104308625FFA8CF08862002012
:103E6000486270BD0000000010B5D0F800C0C06D01
:103E7000DDF808E011F05F4FDCF8144063F3100444
:103E80004FF6FF73CCF81440C0F20103DCF8144085
:103E900003F5602303EA040343EA0E53A3F58013FA
:103EA000CCF814304FF01F03CCF80430CCF81C20B1
:103EB000CCF81810DCF8283023F4803408BF43F421
:103EC000803412F05F4FCCF82840DCF8281021F441
:103ED000003308BF41F40033CCF82830CCF824007C
:103EE00010BD00000000000080B584B0FDF788FA26
:103EF0000120ADF800004FF01050019012208DF815
:103F0000080003208DF80B000020ADF80900002008
:103F1000C0F2011003906846FDF742FA0420FDF755
:103F20007FFA04B080BD0000F0B587B044F2E040F5
:103F30000025C5F602000695CDE90455CDE90255E8
:103F4000016840F6000441F0800101600168C5F697
:103F5000020401F0800101910199016841F004011E
:103F600001600168012201F00401019101990168D9
:103F700041F0010101600068022100F001000190A0
:103F80000198204602260127FCF7EEFFCDE90267E3
:103F90000320059002A920460495FCF715FF07B001
:103FA000F0BD00000000000010B584B041F6802094
:103FB00041F20041C2F2014000240394C4F2000126
:103FC000CDE90144016045F6C051C0E90114142156
:103FD000C16080218161FFF7DBF808B1FCF78CFA42
:103FE00041F6802001A9C2F2014001940394FFF739
:103FF00067F808B1FCF780FA41F68020C2F2014070
:10400000FFF71AF904B010BD80B541F6CC2041F29B
:104010000001C2F20140C4F201010C2201604FF420
:10402000E13141600021C0E902110161C0E90521CF
:10403000C0E90711C0E90911FFF7BEFC08B1FCF7A0
:104040005BFA41F6CC200021C2F20140FFF78CFA66
:1040500008B1FCF751FA41F6CC200021C2F2014030
:10406000FFF75AFA08B1FCF747FA41F6CC20C2F242
:104070000140FFF72DFA002808BF80BDFCF73CFA8D
:1040800080BD000000000000FEE70000000000000E
:10409000FEE700000000000000F007004FF0FF3CCA
:1040A00080F00703042B28BF0423033838BF002007
:1040B0000CFA03F399430CFA00F301FA00F022EA38
:1040C0000301084370470000704700000000000033
:1040D0002DE9F041D1F824E0B2F1406F18BFBEF1F4
:1040E000000F03D003688C6A013C1C61D1F818C032
:1040F000BCF1000F0B6A25D0002B46D000688D68FC
:10410000D1E90487CC69C561CD6A43EA0E030E6B21
:104110002B434D6B33432B43002C43EA874343EA45
:1041200008034DD04CEA0207CD6827430E683B4395
:10413000B2F1406F43EA050343EA060242615AD1F5
:10414000BDE8F081002B40D000688D68D1E904877C
:10415000CC69C561CD6A43EA0E030E6B2B434D6BF0
:1041600033432B43002C43EA874343EA080346D0FA
:104170004CEA0207CE682743B2F1406F43EA0703D7
:1041800043EA06024261DBD035E0D1E90B5645EA4D
:104190000E074C694D6B3743CB692F4347EA844484
:1041A0009BB34CEA0206CD683343006823430F6893
:1041B0002B43B2F1406F43EA07024261C0D01AE0DC
:1041C00042EA0C0209681A4324E0CB6933B34EEA91
:1041D0000205CC6A2B430D6B23434E694C6B2B437A
:1041E00023430068CF6843EA8643B2F1406F43EA55
:1041F00007024261A4D049688161BDE8F0814CEAC0
:10420000020119434161BDE8F08142EA0C020068F5
:104210000968224311434161BDE8F081BEF1000FFE
:1042200008BFBDE8F081D1E90B7642EA0E024B6986
:104230003A43496B32430068114341EA834141618B
:10424000BDE8F0810000000080B5006C00218163B2
:10425000C16290F8411008290BD100680221C160A9
:10426000016841F400310160016841F00201016020
:1042700080BD012180F84110FDF7BEF980BD00002E
:1042800080B5006C00218163C162416C41F0040182
:10429000416401680A6822F004020A60FDF720F90F
:1042A00080BD000000000000006C0021C1620068B9
:1042B000016841F400310160704700000000000017
:1042C0002DE9F04786B044F2E04040F20044C5F6E4
:1042D0000200C5F6020401AD4FF002080168012793
:1042E00041F0100101600168032601F01001019105
:1042F0000199016841F00801016001684FF0090966
:1043000001F0080101910199016841F00201016089
:104310000068294600F00200019001984FF46050B7
:10432000019004F50060CDF8088003970496CDF85D
:104330001490FCF749FD204629464FF0040ACDE9C8
:1043400001A8CDE90376CDF81490FCF73DFD40209F
:104350002946CDE90108CDE903760A2005902046DB
:10436000FCF732FD04F540602946CDE901A8CDE90E
:104370000376CDF81490FCF727FD06B0BDE8F08772
:10438000F0B583B044F2D44541F2DC54C5F60205E1
:10439000C2F20144092100262868102740F4804019
:1043A0002860286800F480400290029855F8580C64
:1043B00040F4804045F8580C55F8580C20F48040E3
:1043C00045F8580C45F20000616042F61F61C5F2E5
:1043D00000202662C0F2050120602020A0604FF47A
:1043E000E060C4E9037160610120C4E9060620466B
:1043F000FDF706FA41F2A4503221C2F20140002238
:10440000C0E900164FF40051C16046614FF480715D
:1044100081614FF48061C0E90716C0E90966C0E90F
:104420000B6646635C200F21FDF71EF85C20FDF74C
:1044300017F8286840F001002860286841F6142524
:1044400000F001000190C2F201454020019905F100
:104450001401C5F2002028601620E563C5E90106B5
:104460004020C5E903064FF48170C1C14FF481605B
:1044700028624FF0007068628020C5E90A0628466D
:10448000C5E90C66AE632C64FCF70EFE2846FCF70B
:1044900003FF7A2005210022FCF7E6FF7A20FCF7D3
:1044A000DFFF03B0F0BD00002DE9F04381B004460A
:1044B00000688068084018BF0120904203D10020A6
:1044C00001B0BDE8F083DDF820800D461646994620
:1044D00008F1010707E000BF20688068284018BF86
:1044E0000120B042EBD0002FF6D0FCF74DFDB8F123
:1044F000000F03D0A0EB09004045EDD9042084F85B
:104500004100606C40F001006064012001B0BDE832
:10451000F08300000000000080B541F2DC50C2F2E0
:104520000140FDF771F880BDF0B581B044F22C4731
:10453000C5F6020757F8042C02F00302032A02D141
:10454000012001B0F0BD054657F82C0C0C4620F0B8
:10455000806047F82C0CFCF717FD064657F82C0C2A
:10456000000105D5FCF710FD801B0228F6D964E098
:1045700057F8040CEE6895E80E0020F47C3040EA11
:104580000130A2F101014FF47E4247F8040C02EB26
:1045900043224FF0FE436FF35F2192B202EB010022
:1045A0004FF4FE012A6901EB064101F4FE0103EB21
:1045B0000262084402F0FE410844F8603868696904
:1045C00020F0C00040EA010038603868A96920F096
:1045D000200040EA0100386038684FF6F87120F09A
:1045E000100038603869EA6920EA010040EAC20038
:1045F0003861386840F0100038602CB1012C386800
:1046000006D140F4801005E0386840F4002001E055
:1046100040F40010386057F82C0C40F0806047F8E8
:104620002C0CFCF7B1FC044657F82C0C000107D405
:10463000FCF7AAFC001B0328F6D3032001B0F0BD51
:10464000002001B0F0BD0000F0B581B044F22C476D
:10465000C5F6020757F8042C02F00302032A02D120
:10466000012001B0F0BD054657F82C0C0C4620F097
:10467000805047F82C0CFCF787FC064657F82C0CAA
:10468000800005D5FCF780FC801B0228F6D964E089
:1046900057F8040CEE6895E80E0020F07C7040EAB4
:1046A0000150A2F101014FF47E4247F8040C02EBE5
:1046B00043224FF0FE436FF35F2192B202EB010001
:1046C0004FF4FE012A6901EB064101F4FE0103EB00
:1046D0000262084402F0FE41084478613868696962
:1046E00020F4406040EA010038603868A96920F48D
:1046F000007040EA0100386038684FF6F87120F425
:1047000080703860B869EA6920EA010040EAC200B6
:10471000B861386840F4807038602CB1012C38687A
:1047200006D140F4000005E0386840F4800001E064
:1047300040F08070386057F82C0C40F0805047F8FB
:104740002C0CFCF721FC044657F82C0C800007D4F5
:10475000FCF71AFC001B0328F6D3032001B0F0BDC0
:10476000002001B0F0BD0000704700000000000014
:10477000B0B501380024B4EB106F01D00120B0BDFA
:104780004EF210050F21CEF2000568604FF0FF30A9
:1047900000F03EFEAC60072028602046B0BD00005F
:1047A00080B5FCF7F9FB80BDF0B59DB044F6180468
:1047B00040F22C460AA84C21C5F60204C5F60006B4
:1047C000FBF7BEFD02200025CDE90855CDE90655D1
:1047D000CDE90455CDE90255FCF75AFE0195306844
:1047E00020F001003060306800F001000190206886
:1047F00040F440402060206800F44040019001985F
:1048000020688004FCD54FF6DC45CFF6FF75605973
:1048100040F002006051605900F0020001900198E0
:1048200000200190206840F440402060206800F49F
:1048300040400190306840F001003060306800F086
:1048400001000190019800BF20688004FCD5012080
:104850000A904FF480300B9002200521CDE913001F
:104860001591C021CDE91610CDE918000AA8082637
:104870001A960027CDE91B77FEF776F930BB3F206B
:10488000029003204FF48061CDE903070596402094
:10489000CDE90600CDE9081002A80421FDF768FF64
:1048A000A0B94FF6E830CFF6FF70215841F08001F3
:1048B0002150605940F002006051605900F0020040
:1048C00001900198FCF774FA1DB0F0BDFBF714FEDF
:1048D0004EF6885042F2000CCEF20000C5F2002CD9
:1048E000016841F470010160DCF8000000F00F0085
:1048F000062806D8DCF80000072161F30300CCF895
:10490000000044F200404EF67F52C5F60200CEF69B
:10491000F622016841F00101016000210161036894
:104920001A400260DCF80020120706D5DCF80020EF
:10493000072363F30302CCF8002040F200228161D8
:10494000C161C0F20222016282620022C0F2FF1243
:10495000C26240F28022C0F20112026341638263AC
:10496000C16302644164026822F48022026001662D
:1049700041F20000C5F600400068B1EB507F05D160
:1049800048F208100121C5F20010016044F2000055
:1049900043F2D201C5F20020016070470000000020
:1049A00080B541F68020C2F20140FEF7A5FC80BD33
:1049B00010B540F6FF32C4F20002904202680FDCEC
:1049C000B0F1804F1DD040F20043C4F20003984282
:1049D00017D040F60003C4F20003984211D014E04F
:1049E00040F60043C4F2000398420AD040F200436C
:1049F000C4F20103984204D00023C4F20103984298
:104A000003D122F070024B681A434FF6FF7343F64E
:104A1000FF7CC4F20003C4F2010C984210DD604533
:104A20001ADD44F20003C4F2010398422CD044F68C
:104A30000003C4F20103984226D044F2004312E07E
:104A400040F2FF73C4F20003984211DCB0F1804FD2
:104A50001AD040F2004313E00023C4F2010398424D
:104A600012D040F20043C4F2010398420CD00FE090
:104A700040F60003C4F20003984205D040F600431C
:104A8000C4F20003984203D122F44072CB681A4367
:104A900022F080024C696045D1F800E08B6842EA60
:104AA00004020260C362C0F828E00EDD44F2000296
:104AB000C4F20102904213D044F60002C4F2010293
:104AC00090420DD044F2004206E00022C4F20102FE
:104AD000904205D040F20042C4F20102904201D15E
:104AE000096901630121416110BD0000000000005F
:104AF00010B5416E01B3016840F6963CC0F6030C58
:104B000040F69E3E8A68C0F6030EC2F34262896890
:104B10004C0F1CF802301EF802101A011EF8043067
:104B2000B2FBF1F11CF80420A0F868101201B2FBEE
:104B3000F3F2A0F86A2010BD0121A0F86A10A0F8D5
:104B4000681010BD00000000816ACA070CD18A07F6
:104B500015D44A071ED40A0727D4CA0630D48A06B9
:104B600039D44A0655D541E00268D0F82CC05368C4
:104B700023F4003343EA0C0353608A07E9D5026843
:104B8000D0F830C0536823F4803343EA0C035360F9
:104B90004A07E0D50268D0F834C0536823F4802374
:104BA00043EA0C0353600A07D7D50268D0F838C02F
:104BB000536823F4004343EA0C035360CA06CED57E
:104BC0000268D0F83CC0936823F4805343EA0C0396
:104BD00093608A06C5D50268D0F840C0936823F474
:104BE000005343EA0C0393604A0612D50268D0F8DA
:104BF00044C0BCF5801F536823F4801343EA0C03C0
:104C0000536006D1536823F4C00C836C43EA0C0351
:104C10005360090658BF70470168C06C4A6822F4A7
:104C20000022104348607047B0B582B004460020AF
:104C3000C4F89000FCF7A8F921680546096809073F
:104C400019D54FF4001100226FF07E4000902046ED
:104C50002B4600F059FB70B1206850E8000F216826
:104C600020F0800041E80002002AF5D12020C4F89D
:104C7000880003202FE020680068400723D54FF408
:104C8000800100226FF07E40009020462B4600F00D
:104C90003BFBC0B1206850E8000F216820F4907001
:104CA00041E80002002AF5D1206850E8020F21688F
:104CB00020F0010041E80202002AF5D12020C4F8CA
:104CC0008C00032007E02020C4F88800C4F88C0082
:104CD0000020E0662067002184F8841002B0B0BD97
:104CE00080B5806B0021A0F85E10A0F85610FEF78A
:104CF0006BFC80BD00000000016851E8001F0268E5
:104D000021F4907142E80013002BF5D14FF6FE7CA0
:104D1000CEF6FF7C026852E8022F036802EA0C021A
:104D200043E802210029F5D1C16E01290AD100BF53
:104D3000016851E8001F026821F0100142E80013E9
:104D4000002BF5D12021C0F88C100021C1664167ED
:104D5000704700000000000080B500BF016851E806
:104D6000001F026821F0400142E80013002BF5D13A
:104D70002021C0F8881000218167FEF705FF80BD63
:104D8000F0B583B004460368806846F6F316D4E9AC
:104D90000312104362691043E2691F68CCF6FF7684
:104DA000104307EA06021043186058684FF2FF47A5
:104DB00020F4405240F6004011435960C5F600000F
:104DC000A1698342C1F2FF171CBF226A11439A688E
:104DD00047F2FF763A40C4F2000611439960DA6A5E
:104DE00044F2544122F00F02676AC5F602013A43C9
:104DF000B342DA624FF0800225DD40F6FF77C4F25D
:104E00000107BB423FDD834200F0718041F2004761
:104E1000C4F20107BB4200F0758041F20007C4F202
:104E20000107BB4240F0A5800A68C2F3C203052B0C
:104E300000F296800122DFE813F09C0091009500BB
:104E4000970099009B0044F6FF37C4F20007BB426D
:104E500033DC44F20047C4F20007BB4200F05D803F
:104E600044F60007C4F20007BB4240F082800A68A3
:104E700002F00703052B00F273800022DFE803F045
:104E8000796E7274767847F60007C4F20007BB4269
:104E900000F04E8047F60047C4F20007BB4240F0E6
:104EA00068800A6802F00703052B00F2598000228F
:104EB000DFE803F05F54585A5C5E44F60047C4F2E2
:104EC0000007BB4200F03F8045F20007C4F2000734
:104ED000BB4240F04E800A6802F00703052B00F247
:104EE0003F800022DFE803F0453A3E4042444A68F2
:104EF00002F00703052B33D80222DFE803F03A2F34
:104F0000333537390A68C2F3C203052B28D801228A
:104F1000DFE803F02F24282A2C2E0A6802F007036A
:104F2000052B1DD80022DFE803F024191D1F2123C3
:104F30000A6802F00703052B12D80022DFE803F00D
:104F4000190E121416180A6802F00703052B07D869
:104F50000022DFE803F00E0307090B0D042208E02E
:104F6000802206E0082204E0102202E0202200E075
:104F700040222368834240F60010C0F23D0000F05A
:104F80005380E369B3F5004F40F07880402A00F287
:104F90001A810025DFE812F0410012011701170104
:104FA0001B011701170117011F0117011701170135
:104FB0001701170117011701260117011701170122
:104FC0001701170117011701170117011701170121
:104FD00017011701170117013401170117011701F4
:104FE0001701170117011701170117011701170101
:104FF00017011701170117011701170117011701F1
:1050000017011701170117011701170117011701E0
:10501000170117011701170131010025FDF7F8FCF1
:10502000002840F0EF8049E1931E1E2B00F27480AF
:105030000027DFE813F01F0077007A007700770081
:1050400077007E00770077007700770077007700A1
:105050007700B80077007700770077007700770057
:105060007700770077007700770077007700770088
:10507000770083000027FCF737FD5FE0402A00F24D
:10508000E6800025DFE812F04100DE00E300E300E7
:10509000E700E300E300E300EB00E300E300E300EC
:1050A000E300E300E300E300F200E300E300E300D9
:1050B000E300E300E300E300E300E300E300E300D8
:1050C000E300E300E300E3000001E300E300E300AA
:1050D000E300E300E300E300E300E300E300E300B8
:1050E000E300E300E300E300E300E300E300E300A8
:1050F000E300E300E300E300E300E300E300E30098
:10510000E300E300E300E300FD000025FDF780FC81
:10511000002840F0BA80D1E0402A03D14FF400408B
:1051200000270BE00020012708E06846FCF7F0FCB0
:1051300002E06846FCF780FD0027019878B3616AB9
:1051400040F65412C0F603026668012532F81120B9
:1051500006EB4603B0FBF2F19942C0F0AF80330397
:10516000994200F2AB8000210023FBF7B1F809025D
:10517000002341EA10613246000210EB560041F173
:105180000001FBF7A5F84FF6FF42A0F54071C0F211
:105190000F02914205D821683D46C8608EE03D4629
:1051A0008CE001258AE051F8540C800649F2000099
:1051B000C0F2D03000F18B800027BFE70025FDF75B
:1051C0003BFCF8B97AE000200125D8B976E06846C2
:1051D000FCF79EFC02E06846FCF72EFD00250198D6
:1051E00080B96BE051F8540C800649F20000C0F21F
:1051F000D03073D4002528B960E04FF4004000257A
:1052000000285BD0616A40F65412C0F6030232F8FF
:1052100011106268B0FBF1F0510801EB4000B0FBE7
:10522000F2F0A0F110014FF6EF72914208D84FF65C
:10523000F071C0F34202236808401044D8603DE09A
:1052400001253BE00025FDF7F7FBF0B936E0002033
:105250000125D0B932E06846FCF75AFC02E0684606
:10526000FCF7EAFC0025019878B927E051F8540CC6
:10527000800649F20000C0F2D03039D4002520B9B0
:105280001CE04FF400400025C0B1616A40F65412A2
:10529000C0F6030232F811106268B0FBF1F000EBC7
:1052A0005200B0FBF2F0A0F110014FF6EF72914204
:1052B00003D8216880B2C86000E001254FF00110DA
:1052C000A0660020C4E91D00284603B0F0BD51F8D7
:1052D000541C0027C1F3C101C8402FE751F8541CEA
:1052E0000025C1F3C101C84000287FF48BAFE5E77A
:1052F00051F8541C0025C1F3C101C8400028C4D195
:10530000DCE70000000000002DE9F04381B0044616
:105310000068C0690840401AB0FA80F04009904225
:1053200039D1DDF820800D461646994608F101076F
:1053300009E000BF2068C0692840401BB0FA80F037
:105340004009B0422BD1002FF4D0FBF71DFEB8F17D
:10535000000F01464FF0030022D0A1EB09014145A7
:105360001ED8206801684907E4D5C16909071AD425
:10537000C1690905DED54FF4006101622046FFF7DF
:10538000BBFC2020C4F89000002084F88400032097
:1053900001B0BDE8F083002001B0BDE8F08300203B
:1053A00001B0BDE8F083082505622046FFF7A4FCA4
:1053B000C4F89050002084F88400012001B0BDE8BA
:1053C000F08300000000000080B541F6CC20C2F25E
:1053D0000140FEF7FDF880BDFEE700000000000080
:1053E000002848BF704700F01F01012202FA01F1B6
:1053F0004EF200124009CEF2000242F8201070472F
:105400004EF60C50CEF200000068C0F30220704748
:105410004EF6145300F00F02CEF20003B0F1FF3F3E
:105420001A4400F16043C8BF03F5644208011070DC
:1054300070470000000000004EF60C514FF6FF03CD
:10544000CEF200010A681A4060F30A2242F080603E
:1054500040F0FD700860704770B505680446287814
:1054600000F022F8A0B1681E00250646811C2160CC
:1054700005EB850116F8012F807802EB4101A1F1BF
:10548000300500F011F800283046EFD1284670BDF5
:105490000025284670BD000080B589B219F02CF9AE
:1054A00080BD000000000000A0F1300100200A29AA
:1054B00038BF01207047000010B541F27C604421E4
:1054C000C2F2014001F044FA48F251301E21C0F608
:1054D00000000022002424F0DFF941F28861C2F2CA
:1054E0000141086002F0D4FE41F61C00C2F2014006
:1054F000047010BD000000002DE9F04381B00D469E
:10550000814608461146164600F0FEF808B3002210
:1055100028463146002700F0A7F800286DD128461C
:1055200011F03AFC8046284611F04EFB71886A88DB
:1055300001388B1A1BB2012B0DDBAF882B88A9F821
:1055400004700127A9F80030A9F80220A9F8061074
:1055500002E0FF2751E00027B6F906206988831A88
:105560000B441BB2012B11DBB5F906309A420DDA60
:10557000B5F800C009EBC703B5F804E029F837C057
:1055800001375A80A3F804E00844D880B6F90240F5
:10559000B5F90210B6F800E02A88B6F90630B5F978
:1055A00006008C42A8F1010CC8BF2146AEEB0204F4
:1055B000834224B2B8BF1846012C0CDB431A1BB23D
:1055C000012B08DB09EBC70329F837200137598085
:1055D000A3F804E0D880B2882B88ACEB02061E4406
:1055E00036B2012E09DB09EBC70629F8372001374F
:1055F00003EB0C027180B280F08078B201B0BDE89C
:10560000F08300000000000070B5B1F90030B1F97E
:1056100004E0B1F902C0B1F90610B2F90040B2F9E4
:105620000460B2F90250B2F90620A342C8BF1C467A
:10563000AC454FF00003C8BF6546B645B8BF7646D7
:105640009142B8BF0A460021B442D8BF0123954217
:105650000480D8BF0121458019408680C280084659
:1056600070BD0000000000002DE9F04381B00C4641
:10567000B0F90070B1F900108F423DDBB0F9026063
:10568000B4F902108E4237DBB0F90490B4F904107B
:10569000894531DCB0F90680B4F9060080452BDC81
:1056A00015466AB3694620462A46ADF80070ADF843
:1056B000026000F099F8F8B1694620462A46ADF834
:1056C0000090ADF8026000F08FF8A8B1694620465E
:1056D0002A46ADF80070ADF8028000F085F858B1A8
:1056E000694620462A46ADF80090ADF8028000F0E9
:1056F0007BF801B0BDE8F083002001B0BDE8F08385
:10570000012001B0BDE8F083B0F90020B1F9043008
:105710009A4211DCB0F90420B1F900309A420BDB57
:10572000B0F90220B1F906309A4205DCB0F9060062
:10573000B1F90210884201DA002070470120704759
:105740002DE9F04381B00C46B0F90460B1F90010C6
:105750008E4211DBB0F90670B4F902108F420BDBF8
:10576000B0F90080B4F90410884505DCB0F9029066
:10577000B4F90600814503DD012001B0BDE8F083E6
:105780001546EAB1694620462A46ADF80080ADF8D4
:10579000029000F029F898B9694620462A46ADF8EB
:1057A0000060ADF8029000F01FF848B96946204645
:1057B0002A46ADF80080ADF8027000F015F818B177
:1057C000002001B0BDE8F083694620462A46ADF8C6
:1057D0000060ADF8027000F007F880F0010001B041
:1057E000BDE8F083000000002DE9F04F83B00646CD
:1057F000B1F90000B6F90070B8420EDBB6F904A0AA
:1058000050450ADCB1F90200B6F902800C46404569
:1058100003DBB6F90690484503DD002003B0BDE880
:10582000F08F1546012A6BDB304611F0B5FA81B2D4
:1058300000EBD1300FFA80FB4FEA6B00009030464E
:1058400011F0C2F981B2002200EBD130009900B210
:105850004610B1EB600F01A8B8BF4FEA6B062146B6
:10586000AE42A8BF2E46ADF804703744ADF80870BC
:10587000ADF8068006EB0805ADF80A50FFF7B4FF57
:1058800030B1B819ADF80800A819ADF80A0022E047
:1058900001A800222146A9EB060BADF806B0ADF831
:1058A0000A90FFF7A1FF18B1B819ADF808000EE093
:1058B00001A800222146AAEB0607ADF80470ADF856
:1058C00008A0FFF791FF68B1B81BADF80400ABEB7F
:1058D0000600ADF8060001A8214620F0B9FF03B08C
:1058E000BDE8F08F01A800222146ADF80680ADF892
:1058F0000A50FFF779FF18B1B81BADF80400C3E7F1
:10590000012003B0BDE8F08F70B5B1F90030B2F9F5
:105910000040B1F902C0B1F904E0B1F90610B2F9E2
:105920000250B2F90460A342B2F90620B8BF1C4687
:10593000AC450480B8BF6546B6454580C8BF7646CD
:1059400091428680C8BF0A46C28070BD0000000038
:1059500080B541F6A451C2F20241096820B1481C49
:10596000022888BF002003E0481E002908BF02204B
:1059700041F65841C2F202410978012902D100F0F2
:10598000FBFB80BD2AF070FA80BD00000000000023
:105990000E2801D90020704701A151F8200070475E
:1059A000524B0908664B0908EA4B0908BD4B090828
:1059B000664B0908EA4B0908EA4B0908FE4B09083F
:1059C000FE4B0908FE4B0908FE4B0908FE4B09086F
:1059D000FE4B0908FE4B0908FE4B090800000000B9
:1059E0000D2801D90020704701A151F8200070470F
:1059F0002F4B09081C4B0908FD4A09080F4B0908E1
:105A00000F4B09080F4B09080F4B09080F4B0908EA
:105A10000F4B09080F4B09080F4B09080F4B0908DA
:105A20000F4B09080F4B09080D2801D900207047BA
:105A300001A151F820007047974B0908824B0908D3
:105A4000F34B09083B4B0908C84B09080D4C0908E2
:105A5000AD4B0908E04B0908734B0908444B090892
:105A6000D84B0908D84B0908D84B0908D84B090866
:105A70000D2801D90020704701A151F8200070477E
:105A80004A00000092000000720000009000000038
:105A90009D000000D500000074000000D30000004D
:105AA0008C0000008B0000008C0000008B000000C8
:105AB0008C0000008B000000B0B541F67C320D4632
:105AC000C2F20142014610681CF08AFB0021044624
:105AD0001CF086FB002D05464FF001010ED020463C
