:020000040800F2
:10000000582D0224AD020008B1330008512E00081B
:10001000A933000851040008A946000800000000A8
:10002000000000000000000000000000813A00080D
:10003000F104000800000000E9330008B93A0008A4
:10004000C7020008C7020008C7020008C70200086C
:10005000C7020008C7020008C7020008F904000828
:10006000C7020008C7020008C7020008C70200084C
:10007000C7020008C7020008C7020008C70200083C
:10008000C7020008C7020008C7020008C70200082C
:10009000C7020008C7020008C7020008C70200081C
:1000A000C7020008C7020008C7020008C70200080C
:1000B000C7020008C7020008C7020008C7020008FC
:1000C000C7020008C7020008C7020008C7020008EC
:1000D000C7020008A1460008C7020008C7020008BE
:1000E000C7020008C702000800000000C70200089D
:1000F000C7020008C7020008C7020008C7020008BC
:10010000C7020008C7020008C7020008C7020008AB
:10011000C7020008C7020008C7020008B93C00086F
:10012000C7020008C7020008C7020008C70200088B
:10013000C7020008C7020008C7020008C70200087B
:1001400000000000000000000000000000000000AF
:10015000C7020008C7020008C7020008C70200085B
:10016000C7020008C7020008C7020008C70200084B
:10017000C7020008C7020008C7020008C70200083B
:10018000C7020008C7020008C7020008C70200082B
:10019000C7020008C7020008C7020008C70200081B
:1001A000C7020008C7020008C7020008C70200080B
:1001B00031380008C7020008C7020008C70200085B
:1001C000C7020008C7020008C7020008C7020008EB
:1001D000C7020008C7020008C7020008C7020008DB
:1001E000C7020008C7020008C7020008C7020008CB
:1001F000C7020008C7020008C7020008C7020008BB
:10020000C7020008C7020008C7020008C7020008AA
:10021000C7020008C7020008C7020008C70200089A
:10022000C7020008C7020008813000080000000073
:10023000C7020008C702000800000000C70200084B
:10024000C7020008C7020008C7020008C70200086A
:10025000C7020008C7020008C7020008C70200085A
:10026000C7020008C7020008C7020008C70200084A
:10027000C7020008C7020008C7020008000000000B
:10028000C7020008C7020008C702000800000000FB
:1002900000000000C7020008DFF80CD000F098F85A
:1002A00000480047A1970208582D022406488047BD
:1002B00006480047FEE7FEE7FEE7FEE7FEE7FEE74B
:1002C000FEE7FEE7FEE7FEE7E93B000899020008CB
:1002D0002DE9F05F0546002092469B46884606467B
:1002E000814640241BE0284641464746224600F00E
:1002F0005FF853465A46C01A914110D3114618462A
:10030000224600F046F82D1A67EB01084F462246B8
:100310000120002100F03DF817EB00094E41201E9E
:10032000A4F10104DFDC484631462A464346BDE8D5
:10033000F09FD2B201E000F8012B491EFBD27047BA
:100340000022F6E710B513460A4604461946FFF7A1
:10035000F0FF204610BD421C10F8011B0029FBD104
:10036000801A704710B5002200E0521C835C8C5C40
:10037000A34201D1002BF8D1D8B2E1B2401A10BD8E
:10038000034611F8012B00F8012B002AF9D1184679
:100390007047202A04DB203A00FA02F1002070475F
:1003A0009140C2F1200320FA03F3194390407047B3
:1003B000202A04DB203A21FA02F00021704721FABA
:1003C00002F3D040C2F12002914008431946704721
:1003D000064C074D06E0E06840F0010394E8070092
:1003E00098471034AC42F6D3FFF75AFF5C40090837
:1003F0007C40090870B58C1810F8015B15F00703F4
:1004000001D110F8013B2A1106D110F8012B03E0AD
:1004100010F8016B01F8016B5B1EF9D12B0705D4B5
:100420000023521E0DD401F8013BFAE710F8013BFE
:10043000CB1A921C03E013F8015B01F8015B521E1A
:10044000F9D5A142D8D3002070BD00000000000003
:10045000FEE700000000000070B54EF61450CEF22A
:1004600000000168890312D4BFF34F8FBFF36F8F71
:100470000021C0F83C12BFF34F8FBFF36F8F0168AC
:1004800041F400310160BFF34F8FBFF36F8F0168FC
:10049000C90348BF70BD00210167BFF34F8FC26E13
:1004A00043F6E07CC2F34E31C2F3C90202F1010E01
:1004B000930700BF0CEA41121C46754644EA020647
:1004C000013D04F14044C0F84C62F7D10029A1F18C
:1004D0000101EFD1BFF34F8F016841F4803101601A
:1004E000BFF34F8FBFF36F8F70BD0000000000009F
:1004F000704700000000000080B5022000F030F8D6
:1005000080BD000000000000EFF3108072B600BF55
:10051000FEE7000000000000B0B5044600F00CF952
:1005200041F275510546C2F20141621C097818BFBB
:100530000C4400BF00F000F9401BA042FAD3B0BD4C
:1005400040F22040C5F60000016841F00101016061
:10055000704700000000000070470000000000002D
:1005600080B58821C5F600010A68024208BF80BD37
:100570000860FFF7F1FF80BD2DE9F04F83B00C68F4
:10058000002C00F0C68000F1264242F2004702F142
:10059000FF72C5F602074FEAB22201920A22B84260
:1005A00008BF0922002500274FF0010A009209E048
:1005B0000C68043734FA0AF20AF1010A05F102055F
:1005C00000F0A780AAF10109012202FA09FE14EA4B
:1005D0000E08EDD0D1F804B00BF00304A4F1010C27
:1005E000BCF1010F11D803228668AA40CB6826EA25
:1005F0000202AB401A4382604268CBF3001322EA46
:100600000E0203FA09F31A434260032C1ED003239F
:10061000C268AB40022C22EA03028B6803FA05F39E
:1006200042EA0302C26011D16FF0030207F01C0618
:1006300002EA59020F23024403FA06F4D2F820C05A
:100640000B692CEA0404B3402343136203230268BA
:10065000AB404E689A4306F00303AB4016F4403FAC
:1006600042EA03020260A3D044F2F44340F2084E8F
:10067000C5F60203C5F6000E1A6842F002021A60BF
:100680001A6807F00C0302F002020292029A29F0A3
:100690000302019C009E092C38BF26460F2452F805
:1006A0000EC09C402CEA040406FA03F34FF0B04C51
:1006B000234342F80E30DCF800204B6842EA08067B
:1006C000DC0258BF22EA08069C02CCF8006040F227
:1006D000040CC5F6000CDCF8002042EA080658BFFE
:1006E00022EA08069C03CCF80060DCF8802042EA8D
:1006F000080658BF22EA0806DB03CCF88060DCF865
:100700007C2042EA080658BF22EA0806CCF87C6042
:100710004EE703B0BDE8F08F002A08BF09048161ED
:10072000704700000000000041F20000C5F60040E4
:100730000068000C7047000041F65450C2F20240BD
:10074000006870470000000041F2755041F65451B6
:10075000C2F20140C2F2024100780A681044086007
:10076000704700000000000080B5032000F064FA2C
:1007700001F052FD44F218414FF6EE33C5F6020186
:10078000C0F602030A68C2F30322096801F00F01F0
:100790009A5C595C02F01F02D04041F2C032C2F2B2
:1007A000014201F01F0120FA01F1116041F2BC3158
:1007B000C2F201410860002000F00AF800281CBFC6
:1007C000012080BD00F014FA002080BD0000000070
:1007D000B0B541F27551C2F20141097801B3044646
:1007E00041F2BC30C2F201404FF47A72B2FBF1F137
:1007F0000068B0FBF1F002F02FF80F2C4FF001056C
:100800000CD858B94FF0FF3000210022002500F02D
:1008100003FA41F27850C2F2014004602846B0BDAC
:100820000120B0BD0000000068B190F83D10022921
:100830000BD1042180F83D100068C16821F001014E
:10084000C16000207047012070478021816601202F
:100850007047000000000000D8B1026801461F2365
:10086000D06820F00100D0600020D060106150619D
:100870009061D06110625062906210635063536067
:10088000C1E917004866886681F83D0081F83C00A0
:10089000704701207047000070B582B00446002008
:1008A000019041F2BC302168C2F2014001F5F862CA
:1008B0004FF0A4430168C2F384101A6822FA00F0D2
:1008C000C0076CD0206848F2B512C1F64E320368FA
:1008D000A1FB0216D90720D0C16889071DD5C168C0
:1008E00021F00201C16081680A064FF0020258BF80
:1008F0000122A36E8D0542EA0302A2667ED4CA05D8
:1009000000F183804A0500F18780090503D5A16EB7
:1009100041F02001A166012141600168C90644BF80
:10092000C1685FEA81613CD420680168090744BF5F
:10093000C1685FEAC1613CD420680168490744BFCF
:10094000C1685FEA01713CD420680168890744BF2F
:10095000C1685FEA41713CD4A06E00B3042084F802
:100960003D002068B10AC26822F00102C26000BFE7
:10097000019A013201928A4202D8C268D207F7D1A5
:10098000002184F83C10C068C0074FF0030008BF86
:10099000012084F83D00616D09B12046884702B00E
:1009A00070BD10214160A16C0029BDD02046884750
:1009B000BAE708214160E16C0029BDD02046884794
:1009C000BAE704214160216D0029BDD02046884747
:1009D000BAE7C16821F03E01C16094F83D100429D6
:1009E00022D1002084F83C00012084F83D00A16D54
:1009F0000029D4D02046884702B070BDA26E42F0D4
:100A00000402A266CA057FF57DAFA26E42F008021D
:100A1000A2664A057FF579AFA26E42F01002A26687
:100A200009053FF574AF76E702214160002084F8A4
:100A30003C00012084F83D00616C00293FF48CAF3C
:100A40002046884788E70000B0B50446FFF774FEEB
:100A5000CCB10546002084F83C00022084F83D001B
:100A60002068C16821F00101C16000BF2068C06832
:100A7000C0070AD0FFF760FE401B0528F6D9012009
:100A8000032240210AE00120B0BD204602F004FB11
:100A9000002101220020C4E917116166A16684F8D3
:100AA0003D20B0BD0000000010B582B0002846D047
:100AB000044690F83C00012847D0012084F83C000F
:100AC00094F83D0001283DD1022084F83D0000202B
:100AD000A066D4F800E0DDF810C0DEF80C0020F0CD
:100AE0000100CEF80C002046CDF800C002F024FB37
:100AF0002068E16C0029C26842F00601C16003D0A1
:100B0000C16841F01001C160216D19B1C16841F0A7
:100B10000801C160A16C19B1C16841F02001C16038
:100B2000C16841F00101C1606168B1F1804F03D13A
:100B3000C16841F48031C160002002B010BD0120C5
:100B400002B010BD002084F83C00022002B010BDAD
:100B5000B0B502784EF69C5CCEF2000C43784CF8AF
:100B6000043CF2B14368CCF80030037BC17A90F8C2
:100B70000AE0457B447A42EA0372837B42EA0161E0
:100B8000C27B41EACE41007A41EA854141EA4341D4
:100B900041EA024141EA042141EA4000CCF8040064
:100BA000B0BD0020CCF80000CCF80400B0BD0000BF
:100BB0004EF62450CEF20000BFF35F8F016821F49F
:100BC00080310160002101677047000000000000D3
:100BD0004EF6245140F00100CEF20001086708688B
:100BE00040F480300860BFF34F8FBFF36F8F7047C2
:100BF00081B044F2F440C5F60200016841F0020100
:100C00000160006800F002000090009801B0704799
:100C100080B503F04DFD80BD70B514460D46064607
:100C200003F056FD2946224602F0C6FB0146304637
:100C300003F056FD70BD000080B503F065FD80BD7A
:100C4000B0B544F60C05C5F60205296849072968C0
:100C500005D401F00701081A18BF0120B0BD21F02A
:100C6000070108432860FFF767FD044655F8080CA4
:100C7000800407D4FFF760FD001BB0F57A7FF5D93B
:100C80000120B0BD0020B0BD704700000000000092
:100C900010B5044690F84100800713D5002084F871
:100CA0004000082084F841002068016821F4F81110
:100CB00001600168490707D4816889061AD40120B8
:100CC00084F84100002010BD016821F0040101609A
:100CD000E06B43F26951C0F600018165FFF7A4FDA6
:100CE0000028EFD0012084F841002046FFF7CCFF18
:100CF000002010BD0221C160016841F40031016093
:100D0000016841F002010160002010BD00000000F8
:100D100070470000000000002DE9F04182B09046CD
:100D20000E460446FFF708FD94F84010012901D152
:100D3000022535E00746012084F84000022594F89A
:100D40004100012829D10020606420210022204692
:100D50003B4684F84150CDF8008002F031FD054655
:100D6000D8B900222046314602F042FB706A18B121
:100D7000012084F8410010E00221012220463B4678
:100D8000CDF8008002264FF0010802F019FD05465B
:100D900018B92068C66084F84180002084F84000BB
:100DA000284602B0BDE8F081704700000000000056
:100DB000704700000000000010B50446006882681B
:100DC000510701681AD511F4802317D094F8411007
:100DD000122936D1216800BF8A68520760D5E26ABD
:100DE000002A59D0616A097880F820102168626A67
:100DF000E36A013262625A1EE262EDE7930736D57A
:100E000011F4003333D00221C160016821F4E021E4
:100E1000016094F84110122946D10168490709D5AB
:100E2000016821F004010160E06B0068C16821F0F5
:100E30000101C160012084F84100204600F024FA3D
:100E400010BD94F8411022292AD121688A685207DE
:100E500026D5A26B02B390F82010226B1170216886
:100E6000226BA36B013222635A1EA263EEE71307C3
:100E700023D511F4002320D00821C1600168490264
:100E800006D5016821F410210160012084F8410099
:100E9000204600F0F5F810BD086820F480200860B6
:100EA0002046FFF785FF10BD94F84110222915D187
:100EB000016849072DD4216852E0D30718BF11F407
:100EC000803316D1D20608D511F4801108BF10BDA9
:100ED0001021C160204600F0D7F810BD94F84110F1
:100EE000022921D1012084F841002046FFF710FF9C
:100EF00010BD0121C160026822F470220260626CA0
:100F000042F0020262640268520737D484F841104A
:100F100049E0016821F004010160E06B0068C168EC
:100F200021F00101C16022E094F841100829D4D1D8
:100F3000416921F040614161012084F84100606C09
:100F400088BB2046FFF7A0FE10BD90F82010226B52
:100F500011702168226BA36B013222635A1EA263B7
:100F6000896811F47C5F1CBFA16B0029EDD10120C1
:100F700084F84100204600F07BF810BD016821F0A4
:100F800004010160E06B43F26951C0F60001816524
:100F9000FFF74AFC0028A0D0606C40F004006064B9
:100FA000012084F841002046FFF7FEFE10BD00003E
:100FB0002DE9F04182B00446FFF7BEFB24B305469D
:100FC00094F8410038B9204600F04EF841F28831DB
:100FD000204600F051F820686FF0FF06A1684FF03E
:100FE0000008A36C026822F4F85206EB01211143B9
:100FF000016020210022009320462B4602F0E0FBF6
:1010000030B102B0BDE8F081012002B0BDE8F0814E
:10101000D4E900124FF62F77D4E903350E68C0F2F9
:10102000FF0737403B43E76943EA0262236A3A43DA
:101030001A430A604FF6FE034A68CFF6E0731A407F
:1010400063691A43A36942EA05421A434A600A687F
:1010500042F001020A60C4F84480012184F8411082
:1010600002B0BDE8F0810000704700000000000001
:10107000704700000000000081647047000000001D
:1010800070470000000000007047000000000000F2
:101090002DE9F04182B090460F460446FFF74CFB25
:1010A000256894F84010012903D1022002B0BDE860
:1010B000F0810646012084F8400094F841000128A0
:1010C0002CD14FF00000606457B3122084F8410027
:1010D00028690130E06228690130A06267626869AE
:1010E00020F040606861E06A00B300BF0421012283
:1010F00020463346CDF8008002F062FB60B9616A99
:10110000097885F82010616AE26A01316162511E36
:10111000E162E16A0029E9D1B0B909E0022016E0F4
:10112000606C40F008006064012010E0002058B9B5
:101130000221012220463346CDF80080022502F02C
:101140003FFB08B92168CD60012184F841100021DE
:1011500084F8401002B0BDE8F081000000000000FB
:1011600070B582B004460268106994F84030012BD3
:1011700001D1022582E0012384F8403094F8413007
:10118000012B37D12346002543F8445FB9B3013022
:10119000E062122084F841000320D060E06AA0627F
:1011A000616243F2C9565069C0F6000620F0406003
:1011B0005061E06B40F60C4E466443F2A156D0F805
:1011C00000C0C0F600064665C6698565202E5CF83D
:1011D000105F25EA0E05CCF8005018D0102E1FD055
:1011E0003EBBDCF8003040F20336B343002503F188
:1011F000020E23E00225002084F840003EE0606CEF
:1012000040F00800606484F84050012536E0DCF8C6
:10121000003040F20336B343002503F2022E0DE006
:10122000DCF8003040F20336B343002503F5817E3D
:1012300004E01E68012546F0040E9C46CCF800E050
:101240002032A36A01260096FFF72EFC50B1606C95
:10125000012540F00400606484F84160002084F8B7
:1012600040000BE0002084F840002068016841F451
:1012700080310160016841F004010160284602B03C
:1012800070BD00000000000080B541F62400C2F2ED
:10129000014017F05DFC08F01FFF80BD000000005A
:1012A00080B500F069FF44F220414FF6EE32C5F6FA
:1012B0000201C0F602020968C1F30211515C01F09B
:1012C0001F01C84080BD000080B544F2384EC5F60D
:1012D000020E5EF8103C5EF8102CC2F3053C5EF87E
:1012E0000C2CBCF1000FC2F30012DEF80410C1F3A5
:1012F000CC0102FB01F100EE101AB8EE400A0BD04F
:1013000003F00303022B0CD073B95EF8381C890676
:101310000DD49FED351A18E00021C0E9001181605D
:1013200080BD9FED301A10E09FED2D1A0DE05EF8A4
:10133000381C49F20002C0F2D032C1F3C10122FAD6
:1013400001F101EE101AB8EE411A02EE10CA9FED3B
:10135000274AB8EE422ADEF800106FF35F2103EE51
:10136000101A81EE021AB8EE433ADEF8001000EED1
:10137000043AB7EE000AC1F3462133EE002A03EE29
:10138000101AB8EE433A21EE021A33EE002A81EE2B
:10139000022ABCEEC22A80ED002ADEF80010C1F35A
:1013A000064102EE101AB8EE422A32EE002A81EE11
:1013B000022ABCEEC22A80ED012ADEF80010C1F339
:1013C000066102EE101AB8EE422A32EE000A81EEF1
:1013D000000ABCEEC00A10EE101A816080BD00BF8A
:1013E0000024744A20BCBE4B0024744C0000003919
:1013F00080B544F2404EC5F6020E5EF8183C5EF829
:10140000182CC2F3055C5EF8142CBCF1000FC2F37B
:101410000022DEF80410C1F3CC0102FB01F100EE62
:10142000101AB8EE400A0BD003F00303022B0CD0C5
:1014300073B95EF8401C89060DD49FED351A18E08B
:101440000021C0E90011816080BD9FED301A10E0DD
:101450009FED2D1A0DE05EF8401C49F20002C0F22B
:10146000D032C1F3C10122FA01F101EE101AB8EE37
:10147000411A02EE10CA9FED274AB8EE422ADEF862
:1014800000106FF35F2103EE101A81EE021AB8EE1E
:10149000433ADEF8001000EE043AB7EE000AC1F35A
:1014A000462133EE002A03EE101AB8EE433A21EE3D
:1014B000021A33EE002A81EE022ABCEEC22A80ED27
:1014C000002ADEF80010C1F3064102EE101AB8EE51
:1014D000422A32EE002A81EE022ABCEEC22A80EDB8
:1014E000012ADEF80010C1F3066102EE101AB8EE10
:1014F000422A32EE000A81EE000ABCEEC00A10EE6B
:10150000101A816080BD00BF0024744A20BCBE4B0D
:101510000024744C000000392DE9F04381B00446EA
:10152000C07844F22C490007C5F6020901D4002511
:101530002EE0A06E4FEA305003280DD80025DFE8DA
:1015400000F0020E1714D9F80000002540F4003016
:10155000C9F8000055B913E001253DB910E004F1C8
:101560000800022102F06CF905464DB1A84611E0D1
:1015700004F12800022102F0F3F90546002DF5D10F
:10158000D9F82400A16E20F440100843C9F82400C3
:101590004FF000086078C00730D0A06D042807D84D
:1015A000DFE800F00A131C030300FDB1A84625E0A4
:1015B0000125002DFAD119E0D9F8000040F40030DF
:1015C000C9F80000002DF1D110E004F1080000215D
:1015D00002F036F90546002DE8D107E004F12800B5
:1015E000002102F0BDF90546002DDFD1D9F8240015
:1015F000A16D20F007000843C9F824006078800737
:1016000032D5E06D4FEAB010042807D8DFE800F0CB
:101610000A131C030300FDB1A84625E00125002D97
:10162000FAD119E0D9F8000040F40030C9F8000000
:10163000002DF1D110E004F10800002102F000F9C2
:101640000546002DE8D107E004F12800002102F052
:1016500087F90546002DDFD1D9F82400E16D20F48B
:10166000E0700843C9F824006078400734D5D4F806
:10167000A8004FEA7050042807D8DFE800F00A13EA
:101680001C030300FDB1A84626E00125002DFAD178
:1016900019E0D9F8000040F40030C9F80000002D2E
:1016A000F1D110E004F10800002102F0C9F805466C
:1016B000002DE8D107E004F12800002102F050F9E4
:1016C0000546002DDFD1D9F82C00D4F8A81020F45D
:1016D00060000843C9F82C006078000734D5D4F8BE
:1016E000AC004FEA3060042807D8DFE800F00A13A6
:1016F0001C030300FDB1A84626E00125002DFAD108
:1017000019E0D9F8000040F40030C9F80000002DBD
:10171000F1D110E004F10800002102F091F8054633
:10172000002DE8D107E004F12800002102F018F9AB
:101730000546002DDFD1D9F82C00D4F8AC1020F0EC
:10174000E0600843C9F82C00E078800728D5E06CF9
:101750004FEA3010032806D8DFE800F00209120231
:10176000B5B1A8461CE00125002DFAD110E0D9F84A
:10177000000040F40030C9F80000002DF1D107E06E
:1017800004F10800022102F05BF80546002DE8D1C3
:10179000D9F82000E16C20F030000843C9F820009F
:1017A0006078C00632D5206E4FEA3030042807D862
:1017B000DFE800F00A131C030300FDB1A84625E092
:1017C0000125002DFAD119E0D9F8000040F40030CD
:1017D000C9F80000002DF1D110E004F1080000214B
:1017E00002F02EF80546002DE8D107E004F12800AC
:1017F000002102F0B5F80546002DDFD1D9F824000C
:10180000216E20F4E0400843C9F824006078800687
:1018100026D5606E4FEA3040052807D8DFE800F093
:10182000030A100303039DB1A84619E00125002D0A
:10183000FAD10DE004F10800012102F001F804E002
:1018400004F12800012102F08BF80546002DEBD1B0
:10185000D9F82400616E20F4E0200843C9F8240080
:101860006078400628D5D4F8B0004FEA30700528DB
:1018700007D8DFE800F0030A100303039DB1A84670
:101880001AE00125002DFAD10DE004F10800012134
:1018900001F0D6FF04E004F12800012102F060F815
:1018A0000546002DEBD1D9F82C00D4F8B01020F06B
:1018B000E0400843C9F82C006078000620D5206F6E
:1018C000D8B1B0F1005F12D0B0F1805F25D1D9F866
:1018D000000040F40030C9F8000085B9D9F82400B0
:1018E000216F20F040500843C9F8240008E004F1BB
:1018F0000800012101F0A4FF0546002DEED0A84606
:10190000E078C0072AD0A06C03280AD8DFE800F0EE
:10191000020D1602D5B1A84620E00125002DEED11A
:10192000DCE70125002DF6D110E0D9F8000040F4E5
:101930000030C9F80000002DEDD107E004F10800E7
:10194000022101F07DFF0546002DE4D1D9F82000E9
:10195000A16C20F003000843C9F82000A0784006DD
:1019600042D5D9F8D40340F48070C9F8D403FEF707
:10197000E3FE0646D9F8D403C00505D4FEF7DCFE25
:10198000801B6528F6D303256DBBD9F84410D4F825
:10199000B400414011F4407F11D0D9F84410D9F877
:1019A000442042F48032C9F84420D9F8442021F47C
:1019B000407122F48032C9F84420C9F84410B0F5CF
:1019C000807F0FD1FEF7B8FE064641F2893700BF8F
:1019D000D9F84400800705D4FEF7AEFE801BB8425C
:1019E000F6D3032585B1A8462078C00742D0E06F22
:1019F0004FEAF000052823D8DFE800F003262C0387
:101A000003037DB3A84635E04FF6CF73D4F8B40096
:101A100059F81C2CC0F2FF0300F4407122F47C52F0
:101A200003EA1013B1F5407F08BF1A436FF31F306C
:101A300049F81C2CD9F844100843C9F84400D3E7EE
:101A40000125002DDED10DE004F10800012101F097
:101A5000F7FE04E004F12800012101F081FF0546B2
:101A6000002DCFD1D9F82800E16F20F038000843CD
:101A7000C9F828002078800724D5A06F052807D84A
:101A8000DFE800F0030A100303039DB1A84619E044
:101A90000125002DFAD10DE004F10800012101F02B
:101AA000CFFE04E004F12800012101F059FF0546B2
:101AB000002DEBD1D9F82800A16F20F007000843D2
:101AC000C9F828002078400726D5D4F894000528C6
:101AD00007D8DFE800F0030A100303039DB1A8460E
:101AE0001AE00125002DFAD10DE004F108000121D2
:101AF00001F0A6FE04E004F12800012101F030FF0E
:101B00000546002DEBD1D9F82C00D4F8941020F024
:101B100007000843C9F82C002078800628D5D4F89F
:101B200090004FEA3070052807D8DFE800F0030A7C
:101B3000100303039DB1A8461AE00125002DFAD138
:101B40000DE004F10800002101F07AFE04E004F148
:101B50002800022101F004FF0546002DEBD1D9F841
:101B60002800D4F8901020F0E0400843C9F828007D
:101B70002078400628D5D4F89C004FEAB0200528EC
:101B800007D8DFE800F0030A100303039DB1A8465D
:101B90001AE00125002DFAD10DE004F10800002122
:101BA00001F04EFE04E004F12800022101F0D8FE0D
:101BB0000546002DEBD1D9F82C00D4F89C1020F468
:101BC000E0500843C9F82C002078000628D5D4F846
:101BD000A0004FEA7030052807D8DFE800F0030ABC
:101BE000100303039DB1A8461AE00125002DFAD188
:101BF0000DE004F10800002101F022FE04E004F1F0
:101C00002800022101F0ACFE0546002DEBD1D9F8E9
:101C10002C00D4F8A01020F460400843C9F82C0030
:101C20002078000716D5D4F88400B0F5805F08D17D
:101C300004F12800022101F093FE002818BF4FF0A4
:101C40000108D9F82800D4F8841020F44050084343
:101C5000C9F828002078C00616D5D4F89800B0F549
:101C6000807F08D104F12800022101F079FE0028CC
:101C700018BF4FF00108D9F82C00D4F8981020F4C0
:101C800040700843C9F82C00A078000722D5D4F88A
:101C9000A400B0F5003F1AD0B0F5803F11D0C8BB0A
:101CA00004F10800002101F0CBFD05468DB9D9F8FB
:101CB0002C00D4F8A41020F440300843C9F82C00BC
:101CC00008E004F12800022101F04AFE0546002D3B
:101CD000EDD0A846A078400729D5D4F88800B0F503
:101CE000401F21D0B0F5001F18D0B0F5801F40F084
:101CF000BF80D9F8000040F40030C9F80000ADB949
:101D0000D9F82800D4F8881020F440100843C9F806
:101D100028000CE00125002DDBD1C8E704F12800E4
:101D2000012101F01DFE0546002DE9D0A846A0784E
:101D3000C00720D0206DB0F5803F10D0B8B9D9F8D9
:101D4000000040F40030C9F800009DB9D9F8200027
:101D5000216D20F480300843C9F820000BE004F125
:101D60000800022101F06CFD05461DB9EEE70125D2
:101D7000002DEBD0A846E078800608D504F12800B5
:101D8000022101F0EDFD002818BF4FF00108D4E951
:101D900000108A037BD5D4F880206FF0010303EB99
:101DA0003223022B0AD34FEA32233BB1012B64D1F9
:101DB000D9F8003043F40033C9F80030002D5FD06B
:101DC000CA0267D4CA006FD48A0279D44A0000F1EB
:101DD0008280B1F1FF3F40F38F80090200F19780CC
:101DE000C00707D004F10800002101F029FD0028F8
:101DF00018BF05462079800707D504F108000121A6
:101E000001F01EFD002818BF05462079400707D5C0
:101E100004F10800022101F013FD002818BF054657
:101E20002079000707D504F12800002101F098FD72
:101E3000002818BF05462079C00607D504F1280000
:101E4000012101F08DFD002818BF0546207980068C
:101E500007D504F12800022101F082FD002818BFF7
:101E60000125002D18BF0125284601B0BDE8F083EB
:101E70000125002D7FF45AAF42E70125002D9FD1A7
:101E8000D9F8283023F440731A43C9F8282045466E
:101E9000CA0297D5D9F82420636F22F000421A4372
:101EA000C9F82420CA008FD559F81C2CD4F8B830B2
:101EB00022F480421A4349F81C2C8A027FF586AF2F
:101EC000D9F82420E36E22F080721A43C9F8242046
:101ED0004A007FF57EAF59F81C2C22F4004249F8E5
:101EE0001C2CD4F8BC2059F81C3C1A4349F81C2C73
:101EF000B1F1FF3F3FF771AFD9F82020636D22F0B9
:101F000040521A43C9F8202009027FF569AFD9F879
:101F10002810D4F88C2021F440011143C9F828106E
:101F2000C0077FF45FAF65E72DE9F04381B000287B
:101F300000F0F28042F200080446C5F2002889460B
:101F4000D8F8000000F00F0088420ED2D8F8000048
:101F500020F00F0040EA0900C8F80000D8F800009F
:101F600000F00F00484540F0D780206844F2184741
:101F70004107C5F602070AD521693A6802F07002E6
:101F8000914204D93A6822F0700211433960010786
:101F90000AD561697A6802F07002914204D97A68C0
:101FA00022F0700211437960C1060AD5A1697A68EE
:101FB00002F4E062914204D97A6822F4E0621143AB
:101FC000796081060AD5E169BA6802F0700291422F
:101FD00004D9BA6822F070021143B96081070AD5AA
:101FE000E1683A6802F00F02914204D93A6822F09F
:101FF0000F0211433960C0077ED1206881070AD5DE
:10200000E1683A6802F00F02914204D23A6822F085
:102010000F0211433960D8F8001001F00F01494553
:102020000DD9D8F8001021F00F0141EA0901C8F8D4
:102030000010D8F8001001F00F0149456CD141079C
:102040000AD521693A6802F07002914204D23A68D6
:1020500022F070021143396001070AD561697A687C
:1020600002F07002914204D27A6822F070021143A9
:102070007960C1060AD5A1697A6802F4E0629142EA
:1020800004D27A6822F4E0621143796080060AD5AE
:10209000E069B96801F07001884204D2B96821F0A2
:1020A00070010843B86000F0B7F839684FF6EE32B7
:1020B000C0F60202C1F303213B6803F00F03515C39
:1020C000D25C01F01F01C84002F01F0141F2C03292
:1020D00020FA01F1C2F20142116041F2BC3141F239
:1020E0007852C2F20141C2F2014208601068FEF764
:1020F0006FFB01B0BDE8F083386820F47061D4E96B
:102100000102032841EA0201396009D0022829D1DD
:1021100057F8181C890307D4012001B0BDE8F083EB
:1021200057F8181C8901F7D557F8081C21F007014A
:10213000084347F8080CFEF7FFFA064641F28835D7
:1021400057F8080C616800F03800B0EBC10F3FF49D
:1021500054AFFEF7F1FA801BA842F1D9032001B079
:10216000BDE8F083012857F8181C02D1C905D3D562
:10217000DAE74907D0D5D7E780B500F04DF844F24B
:1021800018414FF6EE33C5F60201C0F602030A68A5
:10219000C2F30322096801F00F019A5C595C02F056
:1021A0001F0220FA02F201F01F0041F2C03122FAB0
:1021B00000F0C2F20141086041F2BC31C2F20141BB
:1021C0000A6080BD0000000080B5FFF7D5FF44F233
:1021D0001C414FF6EE32C5F60201C0F60202096854
:1021E000C1F30211515C01F01F01C84080BD000025
:1021F00080B5FFF7C1FF44F21C414FF6EE32C5F641
:102200000201C0F602020968C1F30221515C01F02B
:102210001F01C84080BD000044F20041C5F6020124
:102220000869C0F3C20003280FD002282BD078BB66
:102230000868800649F20000C0F2D03058BF7047ED
:102240000968C1F3C101C84070478A6A886AC0F34F
:10225000051CCB6A486B03F00103BCF1000FC0F30F
:10226000CC0003FB00F000EE100AB8EE400A14D0D8
:1022700002F00302022A12D0A2B90868800614D420
:102280009FED251A1EE047F64000C0F27D10704712
:1022900040F60010C0F23D007047002070479FEDEF
:1022A0001D1A0FE09FED1A1A0CE0086849F20002AF
:1022B000C0F2D032C0F3C10022FA00F001EE100AE1
:1022C000B8EE411A02EE10CA9FED144AB8EE422A47
:1022D000086B6FF35F2003EE100A81EE021AB8EE6E
:1022E000433A086B00EE043AB7EE000AC0F346200A
:1022F000013033EE000A21EE000A01EE100AB8EEBA
:10230000411A80EE010ABCEEC00A10EE100A7047B6
:102310000024744A20BCBE4B0024744C00000039D9
:102320002DE9F041002800F05F810446007844F276
:102330000046C007C5F602064AD0306900F03801F1
:10234000B06A102905D018290AD100F0030002282C
:1023500006D13068800337D56068A8BB012726E026
:1023600065686DB1B5F5803F06D0B5F5A02F306832
:1023700007D140F480203060306840F4803006E0BF
:10238000306820F480303060306820F48020306085
:10239000FEF7D2F9002D054613D000BF3068800348
:1023A00012D4FEF7C9F9401B6428F7D9032700208F
:1023B000002800F030820BE0FEF7BEF9401B6428D5
:1023C000F4D830688003F7D40120002800F023827D
:1023D0002078800768D5306910F03801B06A18D0CD
:1023E000182908BF5FEA807013D0E0683168C8B36D
:1023F00021F0190108433060FEF79EF9054600BF41
:10240000306840071FD4FEF797F9401B0228F7D920
:1024100036E03068400703D5E068002800F0768198
:102420003068E16820F0190008433060FEF784F955
:10243000054600BF3068400705D4FEF77DF9401B14
:102440000228F7D91CE0FEF76FF941F20301884238
:102450001CD820697168402821F47C311DD141F4D9
:1024600000301CE021F001003060FEF765F9054600
:102470003068400714D5FEF75FF9401B0328F7D3F7
:1024800003270020002800F0C6810DE07068216954
:1024900020F0FE4040EA016001E041EA0030706057
:1024A0000120002800F0B7812078C00659D5306996
:1024B00000F03801B06A082905D0182918D100F0B9
:1024C0000300012814D13068C00502D5E0698028D6
:1024D00042D1FEF729F941F2030188421BD8206A54
:1024E0007168202821F0F8412ED141F080402DE084
:1024F000E0690028306816D040F080003060FEF7B8
:102500001BF905463068C005E3D4FEF715F9401BFA
:102510000228F7D916E0F068216A20F07C5040EAE2
:102520000160F06013E020F080003060FEF704F9F5
:10253000054600BF3068C00509D5FEF7FDF8401B11
:102540000328F7D3032708E041EA80607060012088
:10255000002800F0608104E001270020002800F03E
:102560005A812078000743D42078800653D42078FD
:10257000400764D4656A9DB3306900F038001828BC
:1025800040F0A480012DB16A306B2DD001F0030220
:10259000A36A9A4228D1C1F30511E26A914223D17C
:1025A0000146226B6FF35F21013A91421CD1C0F3C7
:1025B0004621626B013A914216D1C0F30641A26BEB
:1025C000013A914210D1C0F30660E16B01398842B3
:1025D0000AD1706BC0F3CC00A16C814240F01E8127
:1025E0000027F8B2BDE8F0810127F8B2BDE8F0811C
:1025F00060690028706F38D040F001007067FEF706
:102600009BF80546706F8007AED4FEF795F8401B27
:102610000228F7D925E0A0690028306845D040F4A9
:1026200080503060FEF788F8054600BF30688004AF
:102630009DD4FEF781F8401B0228F7D911E0D6F8A7
:10264000000440F48070C6F80004FEF775F80546F3
:10265000D6F80004C00519D4FEF76EF8401B6428B4
:10266000F6D90327F8B2BDE8F08120F001007067C9
:10267000FEF762F805460327706F80077FF574AF99
:10268000FEF75AF8401B0228F6D9C4E0A568002DD1
:102690003ED0012D05D0052D306F3AD140F0040019
:1026A0003067306F40F0010039E020F48050306036
:1026B000FEF742F805460327306880047FF557AFE0
:1026C000FEF73AF8401B0228F6D9A4E0306820F063
:1026D00080703060FEF730F8022D05464FF003079A
:1026E0000AD100BF3068800137D5FEF725F8401BBE
:1026F0000228F7D98FE000BF306880017FF570AF06
:10270000FEF71AF8401B0228F6D984E00127B8E644
:10271000306F20F001003067306F20F00400306728
:10272000FEF70AF8002D054641F288384FF00307FE
:102730000FD000BF306F80073FF51CAFFDF7FCFFE7
:10274000401B4045F6D966E0FDF7F6FF401B4045CB
:1027500061D8306F8007F7D40CE704F12807B06A1E
:1027600040F2F33188438ECF0843591E40EA0210ED
:102770004FF47E42B06202EB47206FF35F214FF4CB
:10278000FE0280B2E36B0844A16B02EB01414FF003
:10279000FE4201F4FE0102EB0362084402F0FE4136
:1027A00008443063F06A4FF6F87120F00100F062DF
:1027B000706BA26C884340EAC2007063F06A216CBF
:1027C00020F00C000843F062F06A616C20F0020017
:1027D0000843F062F06A40F48030F062F06A40F43E
:1027E0000030F062F06A40F48020F062F06A40F05D
:1027F0000100F062306840F080703060FDF79CFFAF
:1028000004460327306880013FF5EAAEFDF794FFE8
:10281000001B0228F6D9F8B2BDE8F081F06A20F07A
:102820000100F062FDF788FF0546FDF785FFA8422D
:10283000FBD0706B4FF6F871A26C8843002740EA1A
:10284000C2007063F06A40F00100F062F8B2BDE8C7
:10285000F08100000000000080B501F015F980BD96
:1028600070470000000000007047000000000000FA
:102870007047000000000000B0B590F83C20012A2D
:102880004FF002025CD0012380F83C3080F83D20FC
:1028900040F2004C0268C4F2010C42F480636345CC
:1028A0005368D2F808E002BF23F470034C68234356
:1028B00041F2FF740D68C4F2000423F07003A242D9
:1028C00043EA050353600BDC40F2FF73C4F20003DC
:1028D0009A4215DCB2F1804F27D040F2004317E056
:1028E00040F2FF33C4F201039A4216DC41F60003C2
:1028F000C4F200039A4218D00023C4F2010309E095
:1029000040F60003C4F200039A420ED040F60043A2
:10291000C4F200039A4208D00CE044F20003C4F26F
:1029200001039A4201D0624504D12EF080038968E8
:10293000194391600022012180F83D1080F83C206D
:102940001046B0BD0000000060B310B5044690F81A
:102950003D0028B9002084F83C00204600F024F80F
:10296000022084F83D002068211D01F0ADF901200E
:1029700084F8480084F83E0084F83F0084F8400062
:1029800084F8410084F8420084F8430084F844004D
:1029900084F8450084F8460084F8470084F83D0038
:1029A000002010BD0120704780B582B041F2004187
:1029B0000068C4F20001884201D002B080BD44F238
:1029C000E8400022C5F60200016841F020010160E4
:1029D0000068002100F02000019001983720FEF7E8
:1029E0001BF93720FEF714F902B080BD000000008B
:1029F00090F83D1001291BD1022180F83D1001689B
:102A000041F2FF70C4F200008142C86840F001004A
:102A1000C8600FDC40F2FF70C4F20000814217DC96
:102A2000B1F1804F2BD040F20040C4F2000024E00E
:102A30000120704740F2FF30C4F20100814212DCF5
:102A400041F60000C4F20000814218D0002012E0DC
:102A500040F60000C4F20000814210D040F6004071
:102A6000C4F2000009E044F20000C4F20100814217
:102A700005D040F20040C4F2010081420BD1072290
:102A80008868C0F2010202400020062A18BFB2F591
:102A9000803F00D17047086840F0010008600020C6
:102AA00070470000000000007047000000000000B8
:102AB00010B5044600680169890744BFC1685FEA30
:102AC000817140D420680169490744BFC1685FEA49
:102AD000417144D420680169090744BFC1685FEAB5
:102AE000017149D420680169C90644BFC1685FEA21
:102AF000C1614DD420680169C9071CBFC1685FEA84
:102B0000C17152D120680169090644BFC1685FEAFA
:102B1000016151D420680169C90544BFC1685FEAF9
:102B2000016150D420680169490644BFC1685FEA69
:102B300041614FD420680169890644BFC1685FEADA
:102B400081614ED410BD6FF0020101610121217736
:102B5000806980074CD02046FFF7A6FF4EE06FF05B
:102B60000401016102212177806910F4407F48D07F
:102B70002046FFF799FF4AE06FF008010161042148
:102B80002177C069800745D02046FFF78DFF47E0D9
:102B90006FF01001016108212177C06910F4407FB6
:102BA00041D02046FFF780FF43E06FF00101016153
:102BB000204600F049F8A5E76FF08001016120464A
:102BC000FFF752FEA6E76FF4807101612046FFF720
:102BD00047FEA7E76FF040010161204600F044F88E
:102BE000A8E76FF0200101612046FFF741FE10BD0C
:102BF000204600F021F8204600F022F8002020773F
:102C000060E7204600F018F8204600F019F8002090
:102C100020775FE7204600F00FF8204600F010F81C
:102C2000002020775EE7204600F006F8204600F0FE
:102C300007F8002020775DE77047000000000000E3
:102C4000704700000000000080B541F62C210068AC
:102C5000C2F201410968884218BF80BD012025F0F9
:102C60000FFF80BD00000000704700000000000062
:102C700090F88410012901D1022070472421C0F866
:102C8000881002681368116823F0005321F00101D5
:102C900011600021416613602022C0F8882080F86E
:102CA0008410084670470000B0B5044690F88400D0
:102CB000012801D10220B0BD012084F88400242025
:102CC000C4F8880020680568026822F001020260EA
:102CD000826822F0606211438160204601F094F81E
:102CE000206805602020C4F88800002084F8840053
:102CF000B0BD000000000000B0B5044690F88400AC
:102D0000012801D10220B0BD012084F884002420D4
:102D1000C4F8880020680568026822F00102026099
:102D2000826822F0604211438160204601F06CF815
:102D3000206805602020C4F88800002084F8840002
:102D4000B0BD00000000000010B5B0B10446D0F8DE
:102D5000880028B9002084F88400204600F028F874
:102D60002420C4F888002068016821F00101016076
:102D7000204601F071F9012801D1012010BDA06A9F
:102D800010B1204601F06CF82068416821F49041B0
:102D90004160816821F02A018160016841F00101F0
:102DA0000160204601F0CCF810BD000000000000DA
:102DB000B0B5B8B0044602A8C0210025CDE936550B
:102DC000CDE934553395FDF7BBFA41F20001206897
:102DD000C4F20101884201D038B0B0BD0120029098
:102DE00002A803952195FEF797FB08B1FDF78CFB30
:102DF00044F2E040C5F60200016941F010010161B2
:102E0000016901F0100101910199016841F001018E
:102E10000160006833A900F00100019001984FF4AF
:102E2000C0603390022034900020CDE935000720A7
:102E300037900020C5F60200FDF79EFB25200221F9
:102E40000022FDF7E9FE2520FDF7E2FE38B0B0BD17
:102E5000FEE7000000000000B0B541F2A4533225A7
:102E6000C2F201430002144641F288321D6041F271
:102E7000DC55C2F2014558604FF4807098614FF400
:102E80008060D8614FF040705862996228461946B8
:102E9000FDF742FF41F2883228462146FEF7F8F856
:102EA000B0BD000000000000B0B541F2A4533225CF
:102EB000C2F201430002144641F288321D6041F221
:102EC000DC55C2F2014558604FF4807098614FF4B0
:102ED0008060D8614FF04070586299622846194668
:102EE000FDF71AFF28462146FEF73AF9B0BD00006B
:102EF00080B582B04FEA102C8DF80500100A8DF8CD
:102F000006008DF80720080A8DF80000180A8DF8D1
:102F1000011001AA8DF802002A2004218DF804C0B6
:102F20008DF80330FFF798FF6A462B200421FFF746
:102F300093FF02B080BD00002DE9F0471D46164604
:102F40000F460446DDF8208007F0BEF8301B022152
:102F500032462B4601EB400920463946C7F1010AAB
:102F6000FFF7C6FF2C2000F067F8BFF34F8F4EF637
:102F700068710020CEF2000100F110522030B0F54F
:102F8000002F0A60F8D10AEB05004246BFF34F8FCD
:102F9000BFF36F8F09FB00F13C20FFF785FFBDE811
:102FA000F087000000000000B0B540F600040221E8
:102FB000C5F6020401222046FDF7AEFB0A20FDF70C
:102FC000ABFA022100222046FDF7A6FB6420FDF7A4
:102FD000A3FA022101222046FDF79EFB7820FDF78F
:102FE0009BFA4FF64864C2F20044617CFF2908BF97
:102FF000B0BD0020002510E004EB420201F01F01EB
:103000000132FFF729FF0135A8B2C10011FA85F19D
:1030100004EB4101497CFF290BD000EBC0020B06F9
:1030200014F81200E8D500F007F87820FDF774FADC
:10303000E9E7B0BD0000000080B541F2A4510222D2
:10304000C2F2014100020A604FF4807248604FF4FE
:103050000050C8600020C1E904008A614FF480621A
:10306000CA6141F28832C1E90900C1E90B00486335
:1030700041F2DC50C2F20140FDF74EFE80BD00007F
:1030800080B541F2DC50C2F20140C06BFDF704FC98
:1030900080BD00000000000070B590E80250D0E94B
:1030A00003231A43CA60D0E9052300F120061A431E
:1030B000C369BCF1804F42EA030278CE42EA0302C0
:1030C000036B42EA040240F2000442EA0602CFF631
:1030D000FC7442EA030204EB854342EA0E0242EA30
:1030E00003020A6103D10A6942F040420A610022E8
:1030F0004A61436BB3F1FF3F04DC4A695B4242F42F
:1031000080224A619AB20A62806BB0F1FF3F01DD12
:10311000000406E04A69002342F400224A61A3EB5E
:1031200000400A6A104308625FFA8CF0886200204F
:10313000486270BD0000000010B5D0F800C0C06D3E
:10314000DDF808E011F05F4FDCF8144063F3100481
:103150004FF6FF73CCF81440C0F20103DCF81440C2
:1031600003F5602303EA040343EA0E53A3F5801337
:10317000CCF814304FF01F03CCF80430CCF81C20EE
:10318000CCF81810DCF8283023F4803408BF43F45E
:10319000803412F05F4FCCF82840DCF8281021F47E
:1031A000003308BF41F40033CCF82830CCF82400B9
:1031B00010BD00000000000080B584B0FDF7F8FCF1
:1031C0000120ADF800004FF01050019012208DF852
:1031D000080003208DF80B000020ADF809004FF423
:1031E000803003906846FDF7B3FC0420FDF7F0FC47
:1031F00004B080BD000000002DE9F04786B044F225
:10320000E0400027C5F602000597CDE90377CDE938
:103210000177016840F6000A41F010010160016881
:10322000C5F6020A01F0100100910099016841F011
:10323000040101600168012201F00401009100997C
:10324000016841F0010101600068022100F0010005
:103250000090009850464FF002094FF00108FDF72A
:103260005BFA0AF500660821012230460824FDF7C2
:1032700053FA01AD30462946CDE90148CDF80C801E
:1032800003240494FDF778F9CDF804904FF404106A
:10329000CDE90207AAF5006029460494FDF76CF910
:1032A000072000210022FDF7B7FC0720FDF7B0FC46
:1032B00050462946CDE90198CDE90374FDF75CF944
:1032C00006B0BDE8F087000010B584B041F62C20B0
:1032D00041F20041C2F2014000240394C4F2000113
:1032E000CDE90144016045F6C051C0E901140A214D
:1032F000C16080218161FFF727FB08B1FDF704F968
:1033000041F62C2001A9C2F2014001940394FFF779
:10331000B3FA08B1FDF7F8F841F62C20C2F20140EB
:10332000FFF766FB04B010BD80B541F6782041F28E
:103330000001C2F20140C4F201010C2201604FF40D
:10334000E13141600021C0E902110161C0E90521BC
:10335000C0E90711C0E90911FFF7F6FC08B1FDF754
:10336000D3F841F678200021C2F20140FFF7C4FCF7
:1033700008B1FDF7C9F841F678200021C2F20140FA
:10338000FFF792FC08B1FDF7BFF841F67820C2F2D2
:103390000140FFF76DFC002808BF80BDFDF7B4F8C1
:1033A00080BD000000000000FEE7000000000000FB
:1033B000FEE700000000000000F007004FF0FF3CB7
:1033C00080F00703042B28BF0423033838BF0020F4
:1033D0000CFA03F399430CFA00F301FA00F022EA25
:1033E0000301084370470000704700000000000020
:1033F0002DE9F041D1F824E0B2F1406F18BFBEF1E1
:10340000000F03D003688C6A013C1C61D1F818C01E
:10341000BCF1000F0B6A25D0002B46D000688D68E8
:10342000D1E90487CC69C561CD6A43EA0E030E6B0E
:103430002B434D6B33432B43002C43EA874343EA32
:1034400008034DD04CEA0207CD6827430E683B4382
:10345000B2F1406F43EA050343EA060242615AD1E2
:10346000BDE8F081002B40D000688D68D1E9048769
:10347000CC69C561CD6A43EA0E030E6B2B434D6BDD
:1034800033432B43002C43EA874343EA080346D0E7
:103490004CEA0207CE682743B2F1406F43EA0703C4
:1034A00043EA06024261DBD035E0D1E90B5645EA3A
:1034B0000E074C694D6B3743CB692F4347EA844471
:1034C0009BB34CEA0206CD683343006823430F6880
:1034D0002B43B2F1406F43EA07024261C0D01AE0C9
:1034E00042EA0C0209681A4324E0CB6933B34EEA7E
:1034F0000205CC6A2B430D6B23434E694C6B2B4367
:1035000023430068CF6843EA8643B2F1406F43EA41
:1035100007024261A4D049688161BDE8F0814CEAAC
:10352000020119434161BDE8F08142EA0C020068E2
:103530000968224311434161BDE8F081BEF1000FEB
:1035400008BFBDE8F081D1E90B7642EA0E024B6973
:103550003A43496B32430068114341EA8341416178
:10356000BDE8F0810000000080B5006C002181639F
:10357000C16290F8411008290BD100680221C16096
:10358000016841F400310160016841F0020101600D
:1035900080BD012180F84110FDF706FC80BD0000D0
:1035A00080B5006C00218163C162416C41F004016F
:1035B000416401680A6822F004020A60FDF768FBB2
:1035C00080BD000000000000006C0021C1620068A6
:1035D000016841F400310160704700000000000004
:1035E0002DE9F04786B044F2E04040F20044C5F6D1
:1035F0000200C5F6020401AD4FF002080168012780
:1036000041F0100101600168032601F010010191F1
:103610000199016841F00801016001684FF0090952
:1036200001F0080101910199016841F00201016076
:103630000068294600F00200019001984FF46050A4
:10364000019004F50060CDF8088003970496CDF84A
:103650001490FCF791FF204629464FF0040ACDE96B
:1036600001A8CDE90376CDF81490FCF785FF402042
:103670002946CDE90108CDE903760A2005902046C8
:10368000FCF77AFF04F540602946CDE901A8CDE9B1
:103690000376CDF81490FCF76FFF06B0BDE8F08715
:1036A000F0B583B044F2D44541F2DC54C5F60205CE
:1036B000C2F201440026286840F48040286028684F
:1036C00000F480400290029855F8580C40F4804075
:1036D00045F8580C55F8580C20F4804045F8580C23
:1036E00045F200002662C5F20020206004206060E0
:1036F0002020C4E90206112020614FF4E0606061DF
:103700000120C4E906062046FDF752FC41F2A45010
:103710003221C2F201404FF400570022C0E90016E6
:10372000C7604FF48071466181614FF48061C0E9E8
:103730000716C0E90966C0E90B6646635C200F21E5
:10374000FDF76AFA5C20FDF763FA286840F0010093
:103750002860286841F6C015C2F2014500F001005A
:1037600001904020C5F20020019928601620C5E98B
:10377000010640201021C5E903074FF481706861FC
:103780004FF48160A861C5E907104FF000706862CE
:103790008020E563C5E90A062846C5E90C66AE63E4
:1037A0002C64FDF759F82846FDF74EF97A200521DB
:1037B0000022FDF731FA7A20FDF72AFA03B0F0BDB6
:1037C0002DE9F04381B0044600688068084018BFC6
:1037D0000120904203D1002001B0BDE8F083DDF864
:1037E00020800D461646994608F1010707E000BF04
:1037F00020688068284018BF0120B042EBD0002F1D
:10380000F6D0FCF799FFB8F1000F03D0A0EB090048
:103810004045EDD9042084F84100606C40F001007F
:103820006064012001B0BDE8F083000000000000EA
:1038300080B541F2DC50C2F20140FDF7BDFA80BD17
:10384000F0B581B044F22C47C5F6020757F8042CB6
:1038500002F00302032A02D1012001B0F0BD0546A7
:1038600057F82C0C0C4620F0806047F82C0CFCF725
:1038700063FF064657F82C0C000105D5FCF75CFFEA
:10388000801B0228F6D964E057F8040CEE6895E82E
:103890000E0020F47C3040EA0130A2F101014FF427
:1038A0007E4247F8040C02EB43224FF0FE436FF3D5
:1038B0005F2192B202EB01004FF4FE012A6901EB95
:1038C000064101F4FE0103EB0262084402F0FE41EE
:1038D0000844F8603868696920F0C00040EA0100D7
:1038E00038603868A96920F0200040EA010038609B
:1038F00038684FF6F87120F0100038603869EA69CE
:1039000020EA010040EAC2003861386840F0100047
:1039100038602CB1012C386806D140F4801005E0E5
:10392000386840F4002001E040F40010386057F897
:103930002C0C40F0806047F82C0CFCF7FDFE044690
:1039400057F82C0C000107D4FCF7F6FE001B0328E7
:10395000F6D3032001B0F0BD002001B0F0BD00009F
:10396000F0B581B044F22C47C5F6020757F8042C95
:1039700002F00302032A02D1012001B0F0BD054686
:1039800057F82C0C0C4620F0805047F82C0CFCF714
:10399000D3FE064657F82C0C800005D5FCF7CCFE6C
:1039A000801B0228F6D964E057F8040CEE6895E80D
:1039B0000E0020F07C7040EA0150A2F101014FF4AA
:1039C0007E4247F8040C02EB43224FF0FE436FF3B4
:1039D0005F2192B202EB01004FF4FE012A6901EB74
:1039E000064101F4FE0103EB0262084402F0FE41CD
:1039F000084478613868696920F4406040EA010051
:103A000038603868A96920F4007040EA0100386025
:103A100038684FF6F87120F480703860B869EA6948
:103A200020EA010040EAC200B861386840F48070C2
:103A300038602CB1012C386806D140F4000005E054
:103A4000386840F4800001E040F08070386057F83A
:103A50002C0C40F0805047F82C0CFCF76DFE04460F
:103A600057F82C0C800007D4FCF766FE001B0328D7
:103A7000F6D3032001B0F0BD002001B0F0BD00007E
:103A80007047000000000000B0B501380024B4EB1E
:103A9000106F01D00120B0BD4EF210050F21CEF203
:103AA000000568604FF0FF3000F01AFEAC600720A0
:103AB00028602046B0BD000080B5FCF745FE80BD03
:103AC000F0B59DB044F6180440F22C460AA84C21EB
:103AD000C5F60204C5F60006FCF732FC02200025FC
:103AE000CDE90855CDE90655CDE90455CDE9025596
:103AF000FDF7A6F80195306820F0010030603068CD
:103B000000F001000190206840F4404020602068EF
:103B100000F440400190019820688004FCD54FF6E5
:103B2000DC45CFF6FF75605940F0020060516059E6
:103B300000F002000190019800200190206840F4FC
:103B400040402060206800F440400190306840F020
:103B500001003060306800F001000190019800BF62
:103B600020688004FCD501200A904FF480300B902F
:103B700002200521CDE913001591C021CDE91610D1
:103B8000CDE918000AA808261A960027CDE91B7768
:103B9000FEF7C6FB30BB3F20029003204FF480614C
:103BA000CDE9030705964020CDE90600CDE90810D0
:103BB00002A80421FEF7B8F9A0B94FF6E830CFF615
:103BC000FF70215841F080012150605940F00200FF
:103BD0006051605900F0020001900198FCF7B0FCC0
:103BE0001DB0F0BDFCF790FC4EF6885042F2000C80
:103BF000CEF20000C5F2002C016841F470010160B2
:103C0000DCF8000000F00F00062806D8DCF8000001
:103C1000072161F30300CCF8000044F200404EF6A7
:103C20007F52C5F60200CEF6F622016841F001018E
:103C300001600021016103681A400260DCF8002085
:103C4000120706D5DCF80020072363F30302CCF843
:103C5000002040F200228161C161C0F202220162B3
:103C600082620022C0F2FF12C26240F28022C0F2E1
:103C70000112026341638263C163026441640268AA
:103C800022F480220260016641F20000C5F6004085
:103C90000068B1EB507F05D148F208100121C5F250
:103CA0000010016044F2000043F2D201C5F200208E
:103CB000016070470000000080B541F62C20C2F280
:103CC0000140FEF7F5FE80BD10B540F6FF32C4F2AC
:103CD0000002904202680FDCB0F1804F1DD040F22C
:103CE0000043C4F20003984217D040F60003C4F228
:103CF0000003984211D014E040F60043C4F20003E0
:103D000098420AD040F20043C4F20103984204D022
:103D10000023C4F20103984203D122F070024B68E1
:103D20001A434FF6FF7343F6FF7CC4F20003C4F25C
:103D3000010C984210DD60451ADD44F20003C4F224
:103D4000010398422CD044F60003C4F201039842C8
:103D500026D044F2004312E040F2FF73C4F20003A5
:103D6000984211DCB0F1804F1AD040F2004313E0CA
:103D70000023C4F20103984212D040F20043C4F27F
:103D8000010398420CD00FE040F60003C4F2000398
:103D9000984205D040F60043C4F20003984203D194
:103DA00022F44072CB681A4322F080024C696045CD
:103DB000D1F800E08B6842EA04020260C362C0F8F6
:103DC00028E00EDD44F20002C4F20102904213D05A
:103DD00044F60002C4F2010290420DD044F20042C7
:103DE00006E00022C4F20102904205D040F20042F7
:103DF000C4F20102904201D10969016301214161CC
:103E000010BD00000000000010B5416E01B3016854
:103E10004FF63E6CC0F6020C4FF6466E8A68C0F64E
:103E2000020EC2F3426289684C0F1CF802301EF881
:103E300002101A011EF80430B2FBF1F11CF8042044
:103E4000A0F868101201B2FBF3F2A0F86A2010BDCE
:103E50000121A0F86A10A0F8681010BD0000000051
:103E6000816ACA070CD18A0715D44A071ED40A07EB
:103E700027D4CA0630D48A0639D44A0655D541E03B
:103E80000268D0F82CC0536823F4003343EA0C03D3
:103E900053608A07E9D50268D0F830C0536823F42C
:103EA000803343EA0C0353604A07E0D50268D0F838
:103EB00034C0536823F4802343EA0C0353600A0799
:103EC000D7D50268D0F838C0536823F4004343EADA
:103ED0000C035360CA06CED50268D0F83CC0936884
:103EE00023F4805343EA0C0393608A06C5D5026825
:103EF000D0F840C0936823F4005343EA0C03936066
:103F00004A0612D50268D0F844C0BCF5801F536839
:103F100023F4801343EA0C03536006D1536823F45F
:103F2000C00C836C43EA0C035360090658BF70470A
:103F30000168C06C4A6822F4002210434860704750
:103F4000B0B582B004460020C4F89000FCF7F4FB42
:103F5000216805460968090719D54FF400110022A8
:103F60006FF07E40009020462B4600F039FB70B188
:103F7000206850E8000F216820F0800041E800022E
:103F8000002AF5D12020C4F8880003202FE0206803
:103F90000068400723D54FF4800100226FF07E4077
:103FA000009020462B4600F01BFBC0B1206850E873
:103FB000000F216820F4907041E80002002AF5D13A
:103FC000206850E8020F216820F0010041E8020259
:103FD000002AF5D12020C4F88C00032007E020201F
:103FE000C4F88800C4F88C000020E0662067002137
:103FF00084F8841002B0B0BD016851E8001F026867
:1040000021F4907142E80013002BF5D14FF6FE7CAD
:10401000CEF6FF7C026852E8022F036802EA0C0227
:1040200043E802210029F5D1C16E01290AD100BF60
:10403000016851E8001F026821F0100142E80013F6
:10404000002BF5D12021C0F88C100021C1664167FA
:104050007047000000000000F0B583B0044603681C
:10406000806846F6F316D4E90312104362691043E0
:10407000E2691F68CCF6FF76104307EA0602104398
:10408000186058684FF2FF4720F4405240F6004055
:1040900011435960C5F60000A1698342C1F2FF17C0
:1040A0001CBF226A11439A6847F2FF763A40C4F275
:1040B000000611439960DA6A44F2544122F00F027B
:1040C000676AC5F602013A43B342DA624FF08002F2
:1040D00025DD40F6FF77C4F20107BB423FDD834296
:1040E00000F0718041F20047C4F20107BB4200F0CA
:1040F000758041F20007C4F20107BB4240F0A58081
:104100000A68C2F3C203052B00F296800122DFE8A1
:1041100013F09C0091009500970099009B0044F6D5
:10412000FF37C4F20007BB4233DC44F20047C4F25D
:104130000007BB4200F05D8044F60007C4F20007B0
:10414000BB4240F082800A6802F00703052B00F2B0
:1041500073800022DFE803F0796E7274767847F698
:104160000007C4F20007BB4200F04E8047F600474C
:10417000C4F20007BB4240F068800A6802F00703FF
:10418000052B00F259800022DFE803F05F54585AF3
:104190005C5E44F60047C4F20007BB4200F03F807B
:1041A00045F20007C4F20007BB4240F04E800A68A7
:1041B00002F00703052B00F23F800022DFE803F046
:1041C000453A3E4042444A6802F00703052B33D883
:1041D0000222DFE803F03A2F333537390A68C2F399
:1041E000C203052B28D80122DFE803F02F24282A58
:1041F0002C2E0A6802F00703052B1DD80022DFE8E9
:1042000003F024191D1F21230A6802F00703052B60
:1042100012D80022DFE803F0190E121416180A68EB
:1042200002F00703052B07D80022DFE803F00E0396
:1042300007090B0D042208E0802206E0082204E0B2
:10424000102202E0202200E040222368834240F650
:104250000010C0F23D0000F05380E369B3F5004F59
:1042600040F07880402A00F21A810025DFE812F041
:1042700041001201170117011B0117011701170156
:104280001F01170117011701170117011701170166
:10429000260117011701170117011701170117014F
:1042A000170117011701170117011701170117014E
:1042B0003401170117011701170117011701170121
:1042C000170117011701170117011701170117012E
:1042D000170117011701170117011701170117011E
:1042E000170117011701170117011701170117010E
:1042F00031010025FDF768FF002840F0EF8049E11B
:10430000931E1E2B00F274800027DFE813F01F00BD
:1043100077007A007700770077007E0077007700DB
:1043200077007700770077007700B8007700770094
:1043300077007700770077007700770077007700C5
:104340007700770077007700770083000027FCF77D
:10435000A7FF5FE0402A00F2E6800025DFE812F0C8
:104360004100DE00E300E300E700E300E300E300D8
:10437000EB00E300E300E300E300E300E300E3001D
:10438000F200E300E300E300E300E300E300E30006
:10439000E300E300E300E300E300E300E300E30005
:1043A0000001E300E300E300E300E300E300E300D7
:1043B000E300E300E300E300E300E300E300E300E5
:1043C000E300E300E300E300E300E300E300E300D5
:1043D000E300E300E300E300E300E300E300E300C5
:1043E000FD000025FDF7F0FE002840F0BA80D1E086
:1043F000402A03D14FF4004000270BE000200127A2
:1044000008E06846FCF760FF02E06846FCF7F0FF52
:104410000027019878B3616A4FF6FE32C0F60202B7
:104420006668012532F8112006EB4603B0FBF2F175
:104430009942C0F0AF803303994200F2AB80002173
:104440000023FBF745FF0902002341EA10613246D1
:10445000000210EB560041F10001FBF739FF4FF667
:10446000FF42A0F54071C0F20F02914205D82168C9
:104470003D46C8608EE03D468CE001258AE051F85B
:10448000540C800649F20000C0F2D03000F18B805D
:104490000027BFE70025FDF7ABFEF8B97AE0002062
:1044A0000125D8B976E06846FCF70EFF02E06846C1
:1044B000FCF79EFF0025019880B96BE051F8540C81
:1044C000800649F20000C0F2D03073D4002528B92C
:1044D00060E04FF40040002500285BD0616A4FF691
:1044E000FE32C0F6020232F811106268B0FBF1F041
:1044F000510801EB4000B0FBF2F0A0F110014FF6C3
:10450000EF72914208D84FF6F071C0F3420223686F
:1045100008401044D8603DE001253BE00025FDF750
:1045200067FEF0B936E000200125D0B932E06846D8
:10453000FCF7CAFE02E06846FCF75AFF0025019826
:1045400078B927E051F8540C800649F20000C0F217
:10455000D03039D4002520B91CE04FF400400025AC
:10456000C0B1616A4FF6FE32C0F6020232F8111095
:104570006268B0FBF1F000EB5200B0FBF2F0A0F18A
:1045800010014FF6EF72914203D8216880B2C860E3
:1045900000E001254FF00110A0660020C4E91D00D5
:1045A000284603B0F0BD51F8541C0027C1F3C101E7
:1045B000C8402FE751F8541C0025C1F3C101C84081
:1045C00000287FF48BAFE5E751F8541C0025C1F3B8
:1045D000C101C8400028C4D1DCE700000000000091
:1045E0002DE9F04381B004460068C0690840401AD4
:1045F000B0FA80F04009904239D1DDF820800D46B4
:104600001646994608F1010709E000BF2068C06915
:104610002840401BB0FA80F04009B0422BD1002F57
:10462000F4D0FCF789F8B8F1000F01464FF0030011
:1046300022D0A1EB090141451ED820680168490735
:10464000E4D5C16909071AD4C1690905DED54FF45B
:10465000006101622046FFF7CFFC2020C4F89000E3
:10466000002084F88400032001B0BDE8F08300201E
:1046700001B0BDE8F083002001B0BDE8F08308255B
:1046800005622046FFF7B8FCC4F89050002084F87B
:104690008400012001B0BDE8F083000000000000AC
:1046A0007047000000000000FEE70000000000006E
:1046B000002848BF704700F01F01012202FA01F1F3
:1046C0004EF200124009CEF2000242F8201070476C
:1046D0004EF60C50CEF200000068C0F30220704786
:1046E0004EF6145300F00F02CEF20003B0F1FF3F7C
:1046F0001A4400F16043C8BF03F56442080110701A
:1047000070470000000000004EF60C514FF6FF030A
:10471000CEF200010A681A4060F30A2242F080607B
:1047200040F0FD700860704770B505680446287851
:1047300000F022F8A0B1681E00250646811C216009
:1047400005EB850116F8012F807802EB4101A1F1FC
:10475000300500F011F800283046EFD1284670BD32
:104760000025284670BD000080B589B219F02CF9EB
:1047700080BD000000000000A0F1300100200A29E7
:1047800038BF01207047000010B541F22860442175
:10479000C2F2014001F044FA47F221601E21C0F646
:1047A00000000022002424F0DFF941F23461C2F25B
:1047B0000141086002F0D4FE41F2C870C2F201402B
:1047C000047010BD000000002DE9F04381B00D46DB
:1047D000814608461146164600F0FEF808B300224E
:1047E00028463146002700F0A7F800286DD128465A
:1047F00011F03AFC8046284611F04EFB71886A8819
:1048000001388B1A1BB2012B0DDBAF882B88A9F85E
:1048100004700127A9F80030A9F80220A9F80610B1
:1048200002E0FF2751E00027B6F906206988831AC5
:104830000B441BB2012B11DBB5F906309A420DDA9D
:10484000B5F800C009EBC703B5F804E029F837C094
:1048500001375A80A3F804E00844D880B6F9024032
:10486000B5F90210B6F800E02A88B6F90630B5F9B5
:1048700006008C42A8F1010CC8BF2146AEEB020431
:10488000834224B2B8BF1846012C0CDB431A1BB27A
:10489000012B08DB09EBC70329F8372001375980C2
:1048A000A3F804E0D880B2882B88ACEB02061E4443
:1048B00036B2012E09DB09EBC70629F8372001378C
:1048C00003EB0C027180B280F08078B201B0BDE8D9
:1048D000F08300000000000070B5B1F90030B1F9BC
:1048E00004E0B1F902C0B1F90610B2F90040B2F922
:1048F0000460B2F90250B2F90620A342C8BF1C46B8
:10490000AC454FF00003C8BF6546B645B8BF764614
:104910009142B8BF0A460021B442D8BF0123954254
:104920000480D8BF0121458019408680C280084696
:1049300070BD0000000000002DE9F04381B00C467E
:10494000B0F90070B1F900108F423DDBB0F90260A0
:10495000B4F902108E4237DBB0F90490B4F90410B8
:10496000894531DCB0F90680B4F9060080452BDCBE
:1049700015466AB3694620462A46ADF80070ADF880
:10498000026000F099F8F8B1694620462A46ADF871
:104990000090ADF8026000F08FF8A8B1694620469B
:1049A0002A46ADF80070ADF8028000F085F858B1E5
:1049B000694620462A46ADF80090ADF8028000F026
:1049C0007BF801B0BDE8F083002001B0BDE8F083C2
:1049D000012001B0BDE8F083B0F90020B1F9043046
:1049E0009A4211DCB0F90420B1F900309A420BDB95
:1049F000B0F90220B1F906309A4205DCB0F90600A0
:104A0000B1F90210884201DA002070470120704796
:104A10002DE9F04381B00C46B0F90460B1F9001003
:104A20008E4211DBB0F90670B4F902108F420BDB35
:104A3000B0F90080B4F90410884505DCB0F90290A3
:104A4000B4F90600814503DD012001B0BDE8F08323
:104A50001546EAB1694620462A46ADF80080ADF811
:104A6000029000F029F898B9694620462A46ADF828
:104A70000060ADF8029000F01FF848B96946204682
:104A80002A46ADF80080ADF8027000F015F818B1B4
:104A9000002001B0BDE8F083694620462A46ADF803
:104AA0000060ADF8027000F007F880F0010001B07E
:104AB000BDE8F083000000002DE9F04F83B006460A
:104AC000B1F90000B6F90070B8420EDBB6F904A0E7
:104AD00050450ADCB1F90200B6F902800C464045A7
:104AE00003DBB6F90690484503DD002003B0BDE8BE
:104AF000F08F1546012A6BDB304611F0B5FA81B212
:104B000000EBD1300FFA80FB4FEA6B00009030468B
:104B100011F0C2F981B2002200EBD130009900B24D
:104B20004610B1EB600F01A8B8BF4FEA6B062146F3
:104B3000AE42A8BF2E46ADF804703744ADF80870F9
:104B4000ADF8068006EB0805ADF80A50FFF7B4FF94
:104B500030B1B819ADF80800A819ADF80A0022E084
:104B600001A800222146A9EB060BADF806B0ADF86E
:104B70000A90FFF7A1FF18B1B819ADF808000EE0D0
:104B800001A800222146AAEB0607ADF80470ADF893
:104B900008A0FFF791FF68B1B81BADF80400ABEBBC
:104BA0000600ADF8060001A8214620F0B9FF03B0C9
:104BB000BDE8F08F01A800222146ADF80680ADF8CF
:104BC0000A50FFF779FF18B1B81BADF80400C3E72E
:104BD000012003B0BDE8F08F70B5B1F90030B2F933
:104BE0000040B1F902C0B1F904E0B1F90610B2F920
:104BF0000250B2F90460A342B2F90620B8BF1C46C5
:104C0000AC450480B8BF6546B6454580C8BF76460A
:104C100091428680C8BF0A46C28070BD0000000075
:104C200080B541F65051C2F20241096820B1481CDA
:104C3000022888BF002003E0481E002908BF022088
:104C400041F60441C2F202410978012902D100F083
:104C5000FBFB80BD2AF070FA80BD00000000000060
:104C60000E2801D90020704701A151F8200070479B
:104C7000FA3D09080E3E0908923E0908653E0908FA
:104C80000E3E0908923E0908923E0908A63E090810
:104C9000A63E0908A63E0908A63E0908A63E090840
:104CA000A63E0908A63E0908A63E09080000000025
:104CB0000D2801D90020704701A151F8200070474C
:104CC000D73D0908C43D0908A53D0908B73D0908B5
:104CD000B73D0908B73D0908B73D0908B73D0908C0
:104CE000B73D0908B73D0908B73D0908B73D0908B0
:104CF000B73D0908B73D09080D2801D900207047C4
:104D000001A151F8200070473F3E09082A3E0908DA
:104D10009B3E0908E33D0908703E0908B53E0908B5
:104D2000553E0908883E09081B3E0908EC3D090864
:104D3000803E0908803E0908803E0908803E090837
:104D40000D2801D90020704701A151F820007047BB
:104D50004A00000092000000720000009000000075
:104D60009D000000D500000074000000D30000008A
:104D70008C0000008B0000008C0000008B00000005
:104D80008C0000008B000000B0B541F628320D46C3
:104D9000C2F20142014610681CF08AFB0021044661
:104DA0001CF086FB002D05464FF001010ED0204679
:104DB0001BF00AFB41F2FC312846C2F2014118F017
:104DC00067FD0121204620F01FF8B0BD20461BF0F2
:104DD00007FF41F208412846C2F2014118F058FD90
:104DE000B0BD0000000000002DE9F04381B041F6A5
:104DF000AC1941F6A815C2F2014941F6E8444EF655
:104E00001851C2F20145C2F20244C0F60801C9F8C5
:104E100000104EF6505180462046C0F60801296029
:104E200022F0CEF90421204622F072FDFF21204617
:104E300022F032FB47F6EF51204622F015FB47F6F1
:104E4000FF71204622F0E8FC0421204622F02CFCD1
:104E500041F69046C2F20246304622F0B1F90021F6
:104E6000304622F019FB4FF62C513046C0F60201B5
:104E700022F05AFB4FF634513046C0F6020122F0C0
:104E80006BFB0121304622F05BFB41F28250C2F203
:104E900001400188304622F07BFB1421304622F08D
:104EA00003FC41F6A846C2F20246304622F088F9D9
:104EB000FF21304622F0F0FA44F66510C0F24C00B3
:104EC00012F03AFF87B23046394622F0CDFA41F669
:104ED0009846C2F20246304622F072F9FF2130466F
:104EE00022F0DAFA3046394622F0BEFA41F6A04600
:104EF000C2F20246304622F063F96621304622F0C3
:104F0000E7FC6621304622F03BFB41F6F847C2F24F
:104F10000247384622F054F92968384622F0C8FC86
:104F20006FF07F4012F008FF86B23846314622F01B
:104F3000B7FC41F68847C2F20247384622F040F9F2
:104F4000D9F80010384622F0B3FC4BF2BE00C0F294
:104F5000B10012F0F1FE81B2384622F0A1FC41F618
:104F6000F047C2F20247384622F02AF9296838464B
:104F700022F09EFC3846314622F092FC40461BF05F
:104F80007BFE41F62837C2F2014738601FF0D0FDA2
:104F90003D6813F0E5FD13F0FFFD064613F0E0FD5C
:104FA00013F062FE1438314602B2284620F048F968
:104FB0003868142120F04CFC38684FF480322146C8
:104FC0001BF00EFA386801211FF0CEFF0020FFF71A
:104FD00093FE002838680CD0012400BF611E01F048
:104FE00073FF2046FFF788FE0028386804F10104AB
:104FF000F4D1032120F0FCF800200121FFF7C4FECA
:10500000386801B0BDE8F0832DE9F04F99B041F662
:10501000B0114EF61852C2F20141C0F608020A6001
:1050200041F6A412C2F201424EF65051C0F60801F8
:10503000116004F015FB044604F05AFE204604F00B
:10504000C3FD0646204604F05FFD8146204604F07D
:10505000BFFB8246204604F093FD41F62C47C2F286
:1050600002473860204604F0FBFC834613F078FDCD
:1050700013F092FD4AF6AB21C2F6AA2150FB01F0D3
:1050800000EBD07001B2204620F046FB13F068FD23
:1050900013F0EAFD41F2C4324FF63A51C2F2014236
:1050A000C0F60201508020461FF0AAFF0621002210
:1050B00020464FF00608002520F0BEFA386803218C
:1050C000002201230124CDE9004402941FF068FF6F
:1050D00002200927CDE90070032100220123304678
:1050E000029407961FF05CFF04200321CDE90070B5
:1050F0000022012348460294CDF818901FF050FF7B
:105100000321002201235046CDE900780294CDF816
:1051100014A01FF045FF08200321CDE900700022F4
:10512000012358460294CDF810B01FF039FF4FF21A
:10513000B1004FF47A71C0F60200002223F014FD92
:1051400041F60C41C2F20241086023F035FE41F6FF
:1051500030404FF4FA51C2F20240002204704CF287
:10516000E950C0F6020023F0FFFC41F68441C2F290
:1051700002410860012123F03BFE08AC20460FF0FD
:105180006FFD44F699412046C0F601010FF0FCFE88
:105190004CF251512046C0F602010FF0CDFE48F20C
:1051A0001F5A44F6D35841F63247C5F2EB1AC826C7
:1051B000C1F262084FF4FA7BC2F2024713F0D0FC4E
:1051C00013F0EAFC0146052220460FF0A9FF4FF23A
:1051D000D020C0F6080030F80590A9FB0A01880924
:1051E00000FB169000F5E16120460FF069FEA9FB77
:1051F0000801480900FB1B9000F6C41120460FF07F
:105200005FFF791920460FF0B3FF20460FF0C4FF6F
:105210000235282DD2D14FF47A7140F6B832079872
:105220001CF0EAF84FF47A7140F6B83206981CF098
:10523000E3F84FF47A7140F6B83205981CF0DCF8C8
:105240004FF47A7140F6B83204981CF0D5F841F268
:10525000C0754FF44871C2F2014540F6B832286873
:105260001CF0CAF841F62C470021C2F202474FF465
:10527000FA624FF0000838681CF0BEF844F6096185
:1052800008ACC0F6010120460FF07EFE29682046DA
:105290000FF06EFF4FF47A7120460FF011FF40F6C9
:1052A000B83120460FF00CFE01214FF480722046E9
:1052B0000FF036FF44F269712046C0F600010FF08E
:1052C0003BFE002120460FF0A7FE20460FF064FFB2
:1052D00020F04AFF17F048FD41F2D4410546C2F2E2
:1052E000014118F0D5FA28461EF01EFE20F03CFFC2
:1052F00018F0C6FF2FA1064619F0EEFE022100228B
:10530000304620F035FA41F6A4100022C2F20140E6
:105310000168304620F03CFA08210022304620F097
:105320003FFA4FF4FA714FF4FA6230461CF094F8E9
:105330003968092200232846CDF800801BF0C4F804
:1053400011226FF0130330462946CDF800801BF080
:10535000BBF844F699512046C0F601010FF014FE47
:10536000204629460FF004FF4FF4C87120460FF085
:10537000A7FE4FF42F6120460FF0A2FD4FF480717D
:105380000A2220460FF0CCFE40F6F9412046C0F636
:1053900002010FF041FE20460FF0FEFE41F6D4342C
:1053A000C2F20244206820F0ABFA206819B0BDE8D0
:1053B000F08F00BF4C56474C2044656D6F0A4D7509
:1053C00073696320706C61796572000000000000F1
:1053D00010B541F604400021C2F2024041F62C44CF
:1053E00041F62043C2F20244017041F61C40C2F271
:1053F0000240C2F20243026801604CF26901206877
:10540000C0F602011A600FF0CBFB20681EF0A0FC72
:1054100041F2C0704FF48071C2F20140006818F090
:10542000D3FA41F60C40C2F20240006823F0C4FCFB
:1054300041F600400121C2F2024000681BF0D0FB9F
:1054400010BD00000000000080B529F075FE00F0DE
:1054500003F880BD0000000070B592B041F6044032
:105460000121C2F2024041F61C45C2F2024501ACE4
:10547000017041F62040C2F20240006828602046D8
:105480000FF0EEFB41F628462968C2F2024630686A
:10549000421E20460FF044FE4CF269012046C0F641
:1054A00002010FF049FD41F62C40C2F202400168B2
:1054B00020460FF05DFE30682968401A4FF47A717B
:1054C000484348F68901C8F68801A0FB010120463F
:1054D00009090FF0F5FD20460FF066FD4CF2415131
:1054E0002046C0F602010FF097FD20460FF054FE53
:1054F00041F60C40C2F20240006823F071FC41F614
:10550000104041F65051C2F20240C2F2024104681A
:105510000868FFF715FC0146204621F0FDFA41F628
:1055200000400121C2F2024000681AF04DFF12B0A3
:1055300070BD000000000000F0B58BB0054623F000
:105540008FFA04464FF000000A900DB1E86801E0C0
:1055500013F006FB41F67405C2F2014528600069AC
:1055600020F0CEF92868406908B120F0C9F9286810
:10557000C06920F0C5F92868006A20F0C1F92868E0
:105580000169002900F0B18020F092FB25F024FE93
:1055900025F022FB2868B0F85011002944D000689B
:1055A000017CC90721D0C0684068F0B12868B0F814
:1055B0005011D1B130264FF4987708E02868A7F24F
:1055C0002F1201370836B0F850118A420DD2C15D52
:1055D0000029F3D100F5AC7000F082FB29688A192C
:1055E0008959526842600160E8E728684FF4807189
:1055F00030301AF0EDFA2868202100F598701AF082
:10560000E7FA28680021A0F85011204623F020FA7C
:105610000A9028680068436A33B141F608420A9943
:10562000C2F20242126898471AF03EF800F040F9C0
:1056300000F012F941F6E836C2F202467469ECBB9A
:1056400019F0DEFD18F01CFE7F21002204461FF039
:1056500023FF12F0D1FA81B2002220461FF0FCFE97
:1056600012F07AFE81B20022204620F089F8032150
:105670000022204620F074F803210022204620F06A
:1056800043F803210022204620F052F80321002293
:10569000204620F055F803210022204620F068F82B
:1056A00043F6EA512046C0F6090119F015FD05211F
:1056B0000022002320461AF0F7FE7461306823F0C0
:1056C000C7F980084A2815D841F6084041F28931C7
:1056D000C2F20240006888423BD30A98D6E9011220
:1056E00008447060501CB06033E00021A0F85011F5
:1056F0000BB0F0BD23F0B4F929683060496829B1D6
:1057000008684FF47A71B1FBF0F000E02120716875
:1057100009B901217160B168054629B14FF47A7267
:1057200051437268B1FBF2F5002171608542B160AE
:1057300088BF0546D6E90301294431610130F06094
:1057400023F086FAC0F1640336A120462A4619F0F8
:10575000FFFC41F6E035C2F202452C68C4BB19F0EB
:105760004FFD18F08DFD7F21002204461FF094FEAE
:1057700012F042FA81B2002220461FF06DFE12F0B4
:10578000EBFD81B2002220461FF0FAFF0321002228
:1057900020461FF0E5FF0321002220461FF0B4FF42
:1057A0000321002220461FF0C3FF032100222046D0
:1057B0001FF0C6FF43F6EA512046C0F6090119F072
:1057C0008BFC09210022002320461AF06DFE2C607C
:1057D00041F6DC35C2F20245286823F039F9B0F50C
:1057E000967F1DD923F03CF9286003A81AF028F809
:1057F00003984AF2A1030599CAF2A003401A40F2A5
:10580000FE310140820AA1FB03019DF824009DF8AE
:10581000257000908B0907A12046019719F098FC8C
:105820000BB0F0BD2575204650530A25752525205F
:105830004350550025752E2575206B4220757365E4
:105840006420282564202525290A2564252520662D
:105850007261672E00000000B0B541F23865002487
:10586000C2F2014507E000BF28191C211AF0B0F967
:105870001C34702C05D028590028F5D019F0B0FF41
:10588000F2E7B0BD0000000041F6A011C2F20141F4
:10589000096804E00A7E42F001020A76496931B1E2
:1058A0004A688242F6D00A688242F7D1F2E770472E
:1058B000704700000000000080B541F23470042100
:1058C000C2F2014000F0ACF980BD00000000000011
:1058D00080B541F244702021C2F2014000F0A0F9ED
:1058E00080BD0000000000002DE9F04F85B01D468E
:1058F00083460E9E002B08BFB6F5807F6FD0DDF883
:105900003C800023019301A8ADF80810071DCDF8D5
:105910000A304346ADF80E2000F10809ADF810102A
:105920002946ADF81220324600F10C0A20F04CF85E
:10593000384629463246434620F046F8484629462E
:105940003246434620F040F8504629463246434608
:1059500020F03AF8BDF90860BDF90430BDF9100037
:10596000BDF90C703246B3420146B8BF1A468742B1
:10597000B8BF39468A42B8BF1146B342C8BF1E46B7
:105980008742A1F10201C8BF3846BDF90A40BDF9FE
:105990000620BDF91250BDF90E7086422346C8BFDD
:1059A00030462E46A242B8BF1346AF4200F1020075
:1059B000B8BF3E46B342B8BF1E46A242C8BF144657
:1059C000AF42C8BF3D46ABF80010AC42ABF8040094
:1059D000C8BF2546B01EABF80200A81C06E0002098
:1059E000CBF80000481EABF80400501EABF80600D0
:1059F00005B0BDE8F08F0000F0B581B016460C464A
:105A0000074623F02DF8A2B241F25074C2F20144CD
:105A1000054620463946334617F05AFD70B1E06915
:105A200000284FF00000A06203D1284623F010F8B0
:105A3000E061E06950B90120E06107E02C212046D7
:105A40001AF0C6F84FF00040A0620024204601B0D2
:105A5000F0BD00000000000010B541F27C70142180
:105A6000C2F2014000F0DCF817F0EAFCE0B14CF6BD
:105A7000C1510446C0F6010117F0BAFD4DF2D9112B
:105A80002046C0F6010117F0B7FD4DF2A1312046C6
:105A9000C0F6010117F0B4FD4CF689512046C0F65E
:105AA000010117F0A1FD10BDFEE70000000000009D
:105AB000F0B585B004460D4610B134B905B0F0BD5F
:105AC00013F04EF80446002CF8D0204613F0E8F806
:105AD0000028F3D094F828004007EFD40020BDB38D
